:020000040800F2
:10000000FFFF01201586010861860108618601084D
:100010006186010861860108618601080000000010
:1000200000000000000000000000000061860108E0
:10003000618601080000000061860108E5170008DC
:1000400061860108618601086186010861860108F0
:1000500061860108618601086186010861860108E0
:1000600061860108618601086186010861860108D0
:1000700061860108618601086186010861860108C0
:1000800061860108618601086186010861860108B0
:1000900061860108618601086186010861860108A0
:1000A0006186010861860108618601086186010890
:1000B0006186010861860108618601086186010880
:1000C0006186010861860108618601086186010870
:1000D0006186010861860108618601086186010860
:1000E0006186010861860108618601086186010850
:1000F0006186010861860108618601086186010840
:10010000618601086186010861860108618601082F
:100110006186010861860108B9440008618601080A
:10012000618601086186010861860108618601080F
:1001300061860108618601086186010861860108FF
:10014000618601086186010861860108F5170008CB
:1001500061860108618601086186010861860108DF
:1001600061860108618601086186010861860108CF
:1001700061860108618601086186010800000000AF
:08018000618601086186010897
:1001A00080B500AF07200EF015F86FF00B000021AE
:1001B00000220EF019F86FF00A00002100220EF064
:1001C00013F86FF00900002100220EF00DF86FF017
:1001D0000300002100220EF007F84FF0FF3000214D
:1001E00000220EF001F880BD80B500AF094B0A4A2D
:1001F0001A60084B1B6818460849002217F07CFA61
:10020000044B1B681846064917F090FA00235BB2AE
:10021000184680BD2C0D002040190020300F002012
:10022000300D002080B400AF00235BB21846BD46FD
:100230005DF8047B704700BF80B483B000AF034615
:100240003960FB711346BB80FB79232B4AD801A28E
:1002500052F823F0E5020008E5020008E502000874
:10026000E5020008E5020008E5020008E5020008D2
:10027000E5020008E5020008E5020008E5020008C2
:10028000E5020008E5020008E5020008E5020008B2
:10029000E5020008E5020008E5020008E5020008A2
:1002A000E5020008E5020008E5020008E502000892
:1002B000E5020008E5020008E5020008E502000882
:1002C000E5020008E5020008E5020008E502000872
:1002D000E5020008E5020008E5020008E502000862
:1002E000E502000800BF00235BB218460C37BD468C
:1002F0005DF8047B704700BF80B582B000AF7860C6
:1003000039600A4B1B681846796817F00FFA074BDB
:100310001B68184617F048FA7868396802F02CFE16
:1003200000235BB218460837BD4680BD2C0D002067
:1003300080B584B000AF78600B467B800023FB73F0
:100340000F4B1B68D3F81832BB60BB68D3F814326C
:10035000002B01D001230FE0094B1A687B8810465F
:1003600079681A4617F0C8F9054B1B68184617F04C
:10037000F1F90346FB73FB7B18461037BD4680BD81
:100380002C0D002080B588B000AF78607B681B68BA
:10039000B3F1A04F2CD14FF4C053FB6002233B615B
:1003A00000237B610323BB610A23FB6107F10C037C
:1003B0001148194606F0BCFD104A104B5B6B43F028
:1003C000800353630023BB600C4A0C4B5B6C43F40B
:1003D00080435364094B5B6C03F48043BB60BB6890
:1003E0004320002100220DF0FFFE43200DF018FFF6
:1003F0002037BD4680BD00BF0000024000380240EB
:1004000080B582B000AF78607B681B68B3F1A04F05
:100410000DD1084A074B5B6B23F0800353630648FA
:100420004FF4C05106F022FF43200DF007FF0837BC
:10043000BD4680BD003802400000024080B582B059
:1004400000AF78607B68D3F8B4237B6803F56173F1
:100450001046194615F0C6FF0837BD4680BD00BFDF
:1004600080B582B000AF78600B46FB707B68D3F834
:10047000B403FA7879681346DB009B1A9B000B449F
:1004800003F5F0739B68FA7811461A4615F0F4FFED
:100490000837BD4680BD00BF80B582B000AF786030
:1004A0000B46FB707B68D3F8B403FA78796813467F
:1004B000DB009B1A9B000B4440335B68FA781146C3
:1004C0001A4616F035F80837BD4680BD80B582B0B3
:1004D00000AF78607B68D3F8B433184616F020F983
:1004E0000837BD4680BD00BF80B584B000AF7860DE
:1004F0000123FB737B68DB68002B02D0022B03D047
:1005000005E00023FB7305E00123FB7302E00123F8
:10051000FB7300BF7B68D3F8B423FB7B10461946FE
:1005200016F0C6F87B68D3F8B433184616F090F886
:100530001037BD4680BD00BF80B582B000AF786087
:100540007B68D3F8B433184616F0C2F87B681B6892
:1005500003F560631A467B681B6803F560631B68DC
:1005600043F0010313607B681B6A002B05D0044A2B
:10057000034B1B6943F0060313610837BD4680BD7A
:1005800000ED00E080B582B000AF78607B68D3F802
:10059000B433184616F0B2F80837BD4680BD00BF28
:1005A00080B582B000AF78600B46FB707B68D3F8F3
:1005B000B423FB781046194616F0DAF80837BD4622
:1005C00080BD00BF80B582B000AF78600B46FB7085
:1005D0007B68D3F8B423FB781046194616F0BAF8B6
:1005E0000837BD4680BD00BF80B582B000AF7860DF
:1005F0007B68D3F8B433184616F0C8F80837BD4600
:1006000080BD00BF80B582B000AF78607B68D3F852
:10061000B433184616F0C6F80837BD4680BD00BF93
:1006200080B582B000AF78607B681B78002B3AD130
:100630001F4A7B68C2F8B4337B681D4AC3F8202286
:100640001B4B4FF0A0421A60194B07225A60184BFF
:100650000222DA60164B00221A61154B00225A6101
:10066000134B02229A61124B0022DA61104B0022D6
:100670001A620F4B00225A620D4B0122DA620C4BB8
:1006800000221A630A4802F041FD0948802106F061
:10069000C7FF07480021402206F076FF04480121E9
:1006A000802206F071FF002318460837BD4680BD42
:1006B0003011002080B582B000AF78607B68D3F83D
:1006C0002032184602F02AFE002318460837BD469D
:1006D00080BD00BF80B582B000AF78607B68D3F882
:1006E0002032184602F04AFE002318460837BD465D
:1006F00080BD00BF80B582B000AF78607B68D3F862
:100700002032184602F05CFE002318460837BD462A
:1007100080BD00BF80B582B000AF7860084611464A
:100720001A460346FB700B46BB7013463B807B6842
:10073000D3F82002F9783A88BB7803F00DFB002348
:1007400018460837BD4680BD80B582B000AF7860DE
:100750000B46FB707B68D3F82022FB7810461946C5
:1007600003F062FB002318460837BD4680BD00BF7A
:1007700080B582B000AF78600B46FB707B68D3F821
:100780002022FB781046194603F00EFD0023184680
:100790000837BD4680BD00BF80B582B000AF78602D
:1007A0000B46FB707B68D3F82022FB781046194675
:1007B00003F054FC002318460837BD4680BD00BF37
:1007C00080B582B000AF78600B46FB707B68D3F8D1
:1007D0002022FB781046194603F09CFC00231846A3
:1007E0000837BD4680BD00BF80B485B000AF7860DB
:1007F0000B46FB707B68D3F82032FB60FB785BB262
:10080000002B0BDAFB7803F07F02F9681346DB005C
:100810009B1A9B000B4438339B780BE0FB7803F06A
:100820007F02F9681346DB009B1A9B000B4403F51B
:10083000EC739B7918461437BD465DF8047B70470E
:1008400080B582B000AF78600B46FB707B68D3F850
:100850002022FB781046194603F05CFA0023184664
:100860000837BD4680BD00BF80B584B000AFF860DA
:100870007A601A460B46FB7213463B81FB68D3F83D
:1008800020123B89FA7A084611467A6803F08CFBFD
:10089000002318461037BD4680BD00BF80B584B028
:1008A00000AFF8607A601A460B46FB7213463B8134
:1008B000FB68D3F820123B89FA7A084611467A6819
:1008C00003F0FCFA002318461037BD4680BD00BF78
:1008D00080B582B000AF78600B46FB707B68D3F8C0
:1008E0002022FB781046194603F044FB03461846C5
:1008F0000837BD4680BD00BF80B582B000AF7860CC
:10090000786805F031FF0837BD4680BD80B584B0FA
:1009100000AF7860154B1B68002B02D1134B144AB3
:100920001A60124B1B68FB60124B1B681B68BB6094
:10093000BB68A3F50073BB600C4B1A687B681A4454
:10094000BB689A4207D917F099FE02460C23136040
:100950004FF0FF3306E0054B1A687B681344034AE7
:100960001360FB6818461037BD4680BD7C0B002025
:10097000B020002008ED00E080B483B000AF7860C4
:1009800039603B68002B05D03B6800221A603B6849
:1009900000225A60002318460C37BD465DF8047BE0
:1009A000704700BF80B400AFBD465DF8047B704760
:1009B00080B400AF01231846BD465DF8047B704744
:1009C00080B582B000AF7860396017F057FE0246FC
:1009D000162313604FF0FF3318460837BD4680BD1D
:1009E00080B582B000AF786078684FF0FF31FFF7D4
:1009F000E7FFFEE780B586B000AFF860B9607A60C7
:100A000000237B6109E0BB685A1CBA601B7818465A
:100A1000AFF300807B6901337B617A697B689A421E
:100A2000F1DB7B6818461837BD4680BD80B483B0C3
:100A300000AF78604FF0FF3318460C37BD465DF8C5
:100A4000047B704780B483B000AF786039603B6846
:100A50004FF400525A60002318460C37BD465DF82B
:100A6000047B704780B483B000AF786001231846E0
:100A70000C37BD465DF8047B704700BF80B485B07D
:100A800000AFF860B9607A60002318461437BD469D
:100A90005DF8047B704700BF90B587B000AFF86089
:100AA000B9607A6000237B610AE0BC68631CBB60AC
:100AB000AFF300800346DBB223707B6901337B61B7
:100AC0007A697B689A42F0DB7B6818461C37BD4622
:100AD00090BD00BF0EB480B482B000AF78604FF01C
:100AE000FF3318460837BD465DF8047B03B07047F6
:100AF00080B582B000AF786017F0C0FD02460A23CF
:100B000013604FF0FF3318460837BD4680BD00BF65
:100B100080B582B000AF786017F0B0FD02460223C6
:100B200013604FF0FF3318460837BD4680BD00BF45
:100B300080B483B000AF78604FF0FF3318460C37B5
:100B4000BD465DF8047B704780B483B000AF786029
:100B500039603B684FF400525A60002318460C3746
:100B6000BD465DF8047B704780B582B000AF786009
:100B7000396017F083FD02461F2313604FF0FF33E7
:100B800018460837BD4680BD80B500AF17F076FD2A
:100B900002460B2313604FF0FF33184680BD00BFA1
:100BA00080B584B000AFF860B9607A6017F066FD78
:100BB00002460C2313604FF0FF3318461037BD4632
:100BC00080BD00BF80B582B000AF78600B46FB707F
:100BD0007B68002B09D07B681B68FA781A707B68E9
:100BE0001B685A1C7B681A6008E000BFFB1C184693
:100BF0000121FFF79DFB0346002BF7D10837BD46C7
:100C000080BD00BF2DE9F04184B000AFF860B9604D
:100C10007A603B6000244FF020087B68002B17DDD2
:100C20000025BE6801E0013501363378002BFAD18A
:100C30007B689D4202DB00237B6002E07B685B1BDC
:100C40007B603B6803F00203002B01D04FF03008BB
:100C50003B6803F00103002B0DD109E05FFA88F334
:100C6000F8681946FFF7AEFF01347B68013B7B60F3
:100C70007B68002BF2DC09E0BB681B78F86819463A
:100C8000FFF7A0FF0134BB680133BB60BB681B7872
:100C9000002BF1D109E05FFA88F3F8681946FFF7F5
:100CA00091FF01347B68013B7B607B68002BF2DCA9
:100CB000234618461037BD46BDE8F0812DE9F043C4
:100CC00089B000AFF860B9607A603B604FF000090E
:100CD0000026BD68BB68002B0DD130233B75002377
:100CE0007B7507F11403F86819463A6C7B6CFFF7C3
:100CF00089FF034646E03B68002B0AD07B680A2B3D
:100D000007D1BB68002B04DA4FF00109BB685B42D6
:100D10001D4607F114040B340023237015E07B6893
:100D2000B5FBF3F203FB02F3EB1A9846B8F1090F97
:100D300002DDBB6C3A3B9844013C5FFA88F33033E8
:100D4000DBB223707B68B5FBF3F5002DE7D1B9F179
:100D5000000F0FD03B6C002B09D07B6C03F002031B
:100D6000002B04D001363B6C013B3B6402E0013CAC
:100D70002D232370F86821463A6C7B6CFFF742FF05
:100D80000346334418462437BD46BDE8F08300BF10
:100D90002DE9F0418AB004AFF860B9607A600024B0
:100DA000C7E0BB681B78252B40F0B980BB680133D6
:100DB000BB6000263546BB681B78002B00D1BDE028
:100DC000BB681B78252B00D1A9E0BB681B782D2BB5
:100DD00003D1BB680133BB60012604E0BB6801336B
:100DE000BB6046F00206BB681B78302BF6D00BE0E8
:100DF0002B469B002B445B001D46BB681B78303B99
:100E00001D44BB680133BB60BB681B782F2B03D923
:100E1000BB681B78392BEBD9BB681B78732B13D1BC
:100E20007B681A1D7A601B689846B8F1000F01D0E4
:100E3000434600E0484BF86819462A463346FFF718
:100E4000E1FE03461C4471E0BB681B78642B10D1A3
:100E50007B681A1D7A601A680095019661230293D7
:100E6000F86811460A220123FFF728FF03461C44B5
:100E70005CE0BB681B78782B10D17B681A1D7A6008
:100E80001A680095019661230293F86811461022B2
:100E90000023FFF713FF03461C4447E0BB681B78A1
:100EA000582B10D17B681A1D7A601A68009501963C
:100EB00041230293F868114610220023FFF7FEFE3B
:100EC00003461C4432E0BB681B78752B10D17B684D
:100ED0001A1D7A601A680095019661230293F868DA
:100EE00011460A220023FFF7E9FE03461C441DE0D9
:100EF000BB681B78632B19D17B681A1D7A601B684D
:100F0000DBB23B7500237B7507F11403F8681946C3
:100F10002A463346FFF776FE03461C4406E0BB68CC
:100F20001B78F8681946FFF74DFE0134BB680133A2
:100F3000BB60BB681B78002B7FF433AFFB68002BD2
:100F400003D0FB681B6800221A7023461846183726
:100F5000BD46BDE8F08100BFD8B301080FB480B52D
:100F600082B000AF07F114037B60002039697A6812
:100F7000FFF70EFF034618460837BD46BDE8804020
:100F800004B070470FB480B584B000AF124BBB60A3
:100F9000032014F04BFD07F11C037B6007F10803ED
:100FA0001846B9697A68FFF7F3FEF86000BFFB687E
:100FB0009BB209481946FFF7BBF90346012BF6D04F
:100FC000032014F04DFDFB6818461037BD46BDE800
:100FD000804004B0704700BFE81400200FB480B513
:100FE00084B000AF0C4BBB6007F11C037B6007F1C2
:100FF00008031846B9697A68FFF7CAFEF860064820
:101000000121002201F0BAF8FB6818461037BD46EE
:10101000BDE8804004B07047E814002080B483B07D
:1010200000AF00237B600F4A0E4B1B6B43F0800325
:1010300013630C4B1B6B03F080037B607B68002306
:101040003B60084A074B1B6B43F001031363054BDE
:101050001B6B03F001033B603B680C37BD465DF83A
:10106000047B70470038024080B588B000AF002391
:10107000BB60264A254B1B6B43F001031363234BD4
:101080001B6B03F00103BB60BB6802233B610023C1
:101090007B610123BB610223FB610223FB6007F13B
:1010A0000C031B48194605F043FF0423FB6007F1BE
:1010B0000C031748194605F03BFF00237B60134AD9
:1010C000124B1B6C43F008031364104B1B6C03F0B2
:1010D00008037B607B680F4B4FF4D0429A610D4B45
:1010E0006822DA610B4B4AF210429A62094B4FF4C4
:1010F0007A72DA62074B00229A63064B0022DA63A7
:10110000044B80221A602037BD4680BD0038024063
:1011100000000240000C004080B400AF064A064BBD
:101120001B6A43F488731362034B01221A60BD46A5
:101130005DF8047B704700BF000C004080B400AF36
:10114000074A074B1B6A23F488731362044A044B53
:101150001B6823F001031360BD465DF8047B7047F4
:10116000000C004080B483B000AF03460A46FB7118
:101170001346BB71FB79002B02D0012B0CD017E07A
:101180000E4ABB7940F2E93101FB03F30C49A1FBA4
:101190000313DB0993630BE0084ABB7940F2E931A2
:1011A00001FB03F30649A1FB0313DB09D36300BF73
:1011B0000C37BD465DF8047B704700BF000C004053
:1011C0008180808080B584B000AF786039607B68B2
:1011D000022B05D01748FFF7D5FE4FF0FF3324E070
:1011E0003B681B68184617F041FA0346FB733B68DF
:1011F00004331B68184617F039FA0346BB73FB7BB0
:10120000002B08D0FB7B012B05D00A48FFF7BAFE64
:101210006FF0010309E0FA7BBB7B10461946FFF72C
:10122000A1FF0548FFF7AEFE002318461037BD4664
:1012300080BD00BFE0B30108E8B3010880B582B00B
:1012400000AF786039607B68012B05D00B48FFF751
:1012500099FE4FF0FF330CE03B681B68184617F00F
:1012600005FA0346DAB2064B1A700648FFF78AFE03
:10127000002318460837BD4680BD00BFE0B3010813
:10128000800B0020E8B3010880B584B000AF78601F
:1012900039607B68012B05D00E48FFF773FE4FF0D5
:1012A000FF3312E03B681B68184617F0DFF903466E
:1012B000FB73FB7B002B02D0FFF72EFF01E0FFF753
:1012C0003DFF0548FFF75EFE002318461037BD4678
:1012D00080BD00BFE0B30108E8B3010880B58AB063
:1012E00000AF0123BB610023FB6103233B620823A2
:1012F0007B6107F114034A48194605F019FE484876
:101300000821012206F0CCF84FF480737B6107F1CD
:1013100014034348194605F00BFE41484FF4807111
:10132000012206F0BDF800233B613E4A3D4B1B6B9A
:1013300043F0010313633B4B1B6B03F001033B6161
:101340003B690023FB60374A364B1B6B43F00103BC
:101350001363344B1B6B03F00103FB60FB6800233A
:10136000BB60304A2F4B1B6B43F0010313632D4BC3
:101370001B6B03F00103BB60BB680223BB6100234E
:10138000FB6103233B6205237B6210237B6107F132
:1013900014032548194605F0CBFD08237B6107F1AE
:1013A00014032148194605F0C3FD00237B601D4A44
:1013B0001C4B5B6C43F4805353641A4B5B6C03F41B
:1013C00080537B607B68194B194A1A60174B4FF4A6
:1013D00082725A60154B00229A60144B0022DA6028
:1013E000124B00221A61114B00225A610F4B4FF42D
:1013F00000729A610D4B2022DA610C4B00221A62B6
:101400000A4B00225A62094B00229A62074B0722BC
:10141000DA62064806F016F92837BD4680BD00BFDF
:10142000000002400038024000040240840B00200B
:10143000003001402DE9B04388B000AF0346B960E9
:101440007A60FB73FB7B002B05D1644808210022E6
:1014500006F026F805E061484FF48071002206F09E
:101460001FF807F114035E48194604224FF0FF33BA
:1014700006F0AAFAFB7B002B05D15848082101226F
:1014800006F00EF805E055484FF48071012206F091
:1014900007F83B7D1A067B7D1B041A43BB7D1B02AC
:1014A0001343FA7D1343FB61FA694E4B1340002B43
:1014B00001D0FF238DE0FB699B0CBB61BB6903F48A
:1014C0000053002B21D0BB6983F47F5383F03F038B
:1014D000BB61BB690133BB61B86916F0DDFA024636
:1014E0000B46904683F00049404649464FF00002C3
:1014F0003D4B16F047FB02460B461046194616F0C8
:1015000053FD0246BB681A6014E0B86916F0C4FACD
:1015100002460B46104619464FF00002324B16F0B9
:1015200031FB02460B461046194616F03DFD0246B9
:10153000BB681A60FA694FF6F07313401B09BB6170
:10154000BB6903F40063002B21D0BB6983F47F6384
:1015500083F00F03BB61BB690133BB61B86916F04F
:101560009BFA02460B46144683F000452046294666
:101570004FF000021D4B16F005FB02460B461046CD
:10158000194616F011FD02467B681A6014E0B8692E
:1015900016F082FA02460B46104619464FF000023A
:1015A000124B16F0EFFA02460B461046194616F09B
:1015B000FBFC02467B681A60FB6903F00703BB6112
:1015C000FB6903F480335B0ABA691343BB61BB69EF
:1015D000DBB218462037BD46BDE8B08300000240AC
:1015E000840B0020080002000000D03F0000B03F44
:1015F00080B582B000AF05F027F800F077F8FFF76C
:101600000DFD00F0FFF8012014F098F9012014F00E
:1016100027FA002014F092F9002014F021FA022099
:1016200014F08CF9022014F01BFA032014F086F950
:10163000032014F015FA382000F026FBFFF714FD04
:1016400000200021FFF78EFD01200021FFF78AFD19
:10165000FFF774FD4FF47A7005F086F8FFF73EFE51
:1016600005F076F8786005F073F878601B4B93F816
:10167000FC31032B08D1002014F0D8F9184B1B685B
:10168000184601F037FA1AE0002014F0E9F901F0E9
:10169000ABF900F0E5FB0020002100F0ADFC1148A3
:1016A0000121002200F06AFD00200A2100F0A4FCC4
:1016B0000D480121002200F061FD00F003FC012033
:1016C00014F0E8F900BF05F043F802467B68D21A2F
:1016D000034B1B689A42F6D3C5E700BF40190020B0
:1016E00010000020ECB30108FCB3010880B594B0F1
:1016F00000AF0023BB602B4A2A4B1B6C43F0805386
:101700001364284B1B6C03F08053BB60BB68002341
:101710007B60254A244B1B6843F480431360224BB3
:101720001B6803F480437B607B6801233B620123D9
:101730007B620223BB634FF48003FB6304233B649F
:1017400048237B640223BB640323FB6407F120036B
:10175000184612F093FF0F23FB6002233B61002326
:101760007B614FF48053BB610023FB6107F10C03E5
:101770001846022113F094F913F082FB02460B4B3A
:10178000A3FB02239B0918460CF06CFD04200CF00F
:1017900013FE4FF0FF30002100220CF025FD5037E2
:1017A000BD4680BD0038024000700040D34D62103D
:1017B00080B582B000AF786039603B681B6818461E
:1017C00016F054FF03465B001A46044B1A600448A7
:1017D000FFF7D8FB18460837BD4680BD1000002033
:1017E0000CB4010880B500AF04F0A4FF0CF000FEBB
:1017F00080BD00BF80B500AF014801F009FE80BD8B
:101800003011002080B500AF08480949002214F0CB
:1018100023FD0648074914F069FD0448064915F000
:1018200053FF024814F07CFD80BD00BF401900202A
:1018300014000020B80100200000002080B483B014
:1018400000AF03463960FB713B6812221A80034BDC
:1018500018460C37BD465DF8047B70473000002009
:1018600080B483B000AF03463960FB713B6804224B
:101870001A80034B18460C37BD465DF8047B704751
:101880004400002080B582B000AF03463960FB7190
:10189000FB79002B05D1084808493A6815F0A4FBEC
:1018A00004E0054805493A6815F09EFB034B1846CD
:1018B0000837BD4680BD00BF10B40108641B00207E
:1018C00080B582B000AF03463960FB71044805491A
:1018D0003A6815F089FB034B18460837BD4680BDB2
:1018E00028B40108641B002080B582B000AF034615
:1018F0003960FB71FB79002B05D1084808493A682B
:1019000015F072FB04E0054805493A6815F06CFBD8
:10191000034B18460837BD4680BD00BF3CB40108E4
:10192000641B002080B582B000AF03463960FB71B4
:10193000FB79002B05D1084808493A6815F054FB9B
:1019400004E0054805493A6815F04EFB034B18467C
:101950000837BD4680BD00BF4CB40108641B0020A1
:1019600080B582B000AF03463960FB71FB79002B74
:1019700005D1084808493A6815F036FB04E00548E7
:1019800005493A6815F030FB034B18460837BD4649
:1019900080BD00BF58B40108641B002080B594B01E
:1019A00000AF0023FB617D4A7C4B1B6B43F00203BD
:1019B00013637A4B1B6B03F00203FB61FB6900238B
:1019C000BB61764A754B1B6B43F002031363734B89
:1019D0001B6B03F00203BB61BB6900237B616F4A91
:1019E0006E4B1B6B43F0020313636C4B1B6B03F0DA
:1019F00002037B617B6900233B61684A674B1B6B79
:101A000043F002031363654B1B6B03F002033B615E
:101A10003B690023FB60614A604B1B6B43F0020390
:101A200013635E4B1B6B03F00203FB60FB68012337
:101A30003B6400237B640323BB640223FB644FF4F9
:101A40000063FB6307F13C035548194605F070FA43
:101A50004FF48043FB6307F13C035148194605F0FE
:101A600067FA4FF48053FB6307F13C034C48194677
:101A700005F05EFA4A484FF48051012205F010FD4E
:101A800002233B6401237B640223BB640523FB64C4
:101A90004FF40053FB6307F13C034148194605F03E
:101AA00047FA4FF40043FB6307F13C033C481946F7
:101AB00005F03EFA0023BB60384A384B1B6C43F0FC
:101AC00004031364354B1B6C03F00403BB60BB6859
:101AD000344B354A1A60334B02225A60314B002294
:101AE0009A60304B4FF6FF72DA602E4B00221A617B
:101AF0002C4B00225A612B480FF02CFA60233B62DA
:101B000000237B620023BB6200233B6300237B63D3
:101B100007F1200323481946002210F0A5FF2148B1
:101B200000210FF087FA00237B601C4A1B4B1B6CC3
:101B300043F480431364194B1B6C03F480437B60B4
:101B40007B681A4B1A4A1A60184B4FF482725A601B
:101B5000164B00229A60154B0022DA60134B0022CC
:101B60001A61124B00225A61104B4FF400729A61B5
:101B70000E4B3022DA610D4B00221A620B4B002211
:101B80005A620A4B00229A62084B0722DA6207481F
:101B900005F058FD5037BD4680BD00BF00380240FB
:101BA000000402400419002000080040E00B00205F
:101BB0000038004080B582B000AF0346FB710B488F
:101BC0004FF48051002205F06BFCFB1D08481946BC
:101BD00001224FF47A7305F0DBFD04484FF4805185
:101BE000012205F05DFC0837BD4680BD00040240BF
:101BF000E00B002080B582B000AF03460A46FB71BF
:101C00001346BB71FB79012B02D0022B11D021E0CE
:101C1000BB79002B06D011484FF48041012205F01A
:101C20003FFC17E00D484FF48041002205F038FCDE
:101C300010E0BB79002B06D008484FF40061012268
:101C400005F02EFC05E005484FF40061002205F088
:101C500027FC00BF0837BD4680BD00BF000402401E
:101C600080B485B000AF78600023FB6002E0FB68C1
:101C70000133FB60FA687B689A42F8D31437BD469B
:101C80005DF8047B704700BF80B582B000AF0346AB
:101C9000FB71FFF783FE02200021FFF7ABFF42F24A
:101CA0001070FFF7DDFF02200121FFF7A3FF0020E6
:101CB000212100F025F80020142100F021F8FB7903
:101CC0005BB2002B01DA7F23FB71FB7963F07F03AA
:101CD000DBB20020194600F013F80020202100F0AC
:101CE0000FF800200C2100F00BF800F0DFF80020C6
:101CF0000C2100F005F800F0B3F80837BD4680BDB0
:101D000080B582B000AF03460A46FB711346BB7133
:101D1000FB79002B07D0012B00D009E00120012125
:101D2000FFF768FF04E001200021FFF763FF00BF19
:101D3000BB791846FFF73EFF0837BD4680BD00BFA0
:101D400080B582B000AF0346FB7100202121FFF770
:101D5000D7FFFB795BB2002B01DA7F23FB71FB79A4
:101D600063F07F03DBB200201946FFF7C9FF0020B4
:101D70002021FFF7C5FF0837BD4680BD80B582B082
:101D800000AF0346FB710B46BB7113467B71FB79B9
:101D9000532B00D94BE0BB792F2B00D947E07B793F
:101DA000002B1ED0FA79BB79DB08D8B20146542348
:101DB00003FB01F31344F979542202FB00F20A44B5
:101DC0001C498A5CD0B2BA7902F00702012101FAFB
:101DD00002F2D2B201460A43D2B2D1B2154AD1546C
:101DE0001FE0FA79BB79DB08D8B20146542303FB24
:101DF00001F31344F979542202FB00F20A440D491D
:101E00008A5CD0B2BA7902F00702012101FA02F22B
:101E1000D2B2D243D2B201460A40D2B2D1B2054ABE
:101E2000D154F879B979FA79BB7900F0A9F8083773
:101E3000BD4680BD681D002080B582B000AF03465E
:101E4000FB71FB79012B04D000200D21FFF758FF17
:101E500003E000200C21FFF753FF0837BD4680BD8B
:101E600080B582B000AF00F021F800237B6007E06E
:101E70000D4A7B68134400221A707B6801337B6033
:101E80007B68B3F5FC7FF3D30020002100F0B4F8A9
:101E90000020002153222F2300F072F800F012F8E6
:101EA0000837BD4680BD00BF681D002080B500AF6B
:101EB00000208021FFF724FF00204021FFF720FFB2
:101EC00080BD00BF80B582B000AF0023FB713BE056
:101ED000264B1B781A46FB790133DB009A4200DD62
:101EE0002FE0FB79DB00224A1278934200DD2EE0DE
:101EF000FB7943F04003DBB200201946FFF700FFF7
:101F00001C4B1B7863F07F03DBB200201946FFF700
:101F1000F7FE184B1B78BB710EE0FB79542202FBD5
:101F200003F2BB791344144AD35C01201946FFF72E
:101F3000E7FEBB790133BB71104B1B78BA799A422B
:101F4000EBD9FB790133FB71FB79052BC0D9094B28
:101F500053221A70094B00221A70044B2F221A7058
:101F6000034B00221A700837BD4680BDDE0B0020EF
:101F7000DF0B0020DC0B0020681D0020DD0B0020A3
:101F800090B482B000AF0446084611461A46234674
:101F9000FB710346BB710B467B7113463B71124BC1
:101FA0001B78FA799A4202D20F4AFB7913700F4BD1
:101FB0001B787A799A4202D90C4A7B7913700C4BC0
:101FC0001B78BA799A4202D2094ABB791370094B3D
:101FD0001B783A799A4202D9064A3B79137008373E
:101FE000BD4690BC704700BFDC0B0020DD0B00201D
:101FF000DE0B0020DF0B002080B483B000AF03466F
:102000000A46FB711346BB71054AFB791370054AFA
:10201000BB7913700C37BD465DF8047B704700BF79
:10202000651D0020641D002080B584B000AF03460C
:10203000FB710B46BB7113467B717B79012B04D17D
:102040000423BB730623FB7303E00623BB7308233F
:10205000FB73464B1B781A46BB7B1344542B09DD9C
:10206000434B1A78FB7B1344DAB2414B1A703F4B57
:1020700000221A7000237B736AE0FB791F2B1CD9A6
:102080007B79012B0CD1FB79A3F12002797B3948B4
:1020900013465B0013440B4403441B783B730CE072
:1020A000FB79A3F12002797B334813465B0013448C
:1020B0005B000B4403441B783B733B7B002B06D136
:1020C000FB79002B03D0FB79202B00D03DE00023CF
:1020D000FB7230E0BB79012B15D1244B1878244BCF
:1020E0001A78FB7A1344D9B23A7BFB7A42FA03F3AB
:1020F00003F00103002B14BF01230023DBB21A46B7
:10210000FFF73CFE14E0194B1878194B1A78FB7A4C
:102110001344D9B23A7BFB7A42FA03F303F001038A
:10212000002B0CBF01230023DBB21A46FFF726FE6B
:10213000FB7A0133FB72FA7AFB7B9A42CAD30B4BD0
:102140001B780133DAB2094B1A707B7B01337B7346
:102150007A7BBB7B013B9A428FDB044B1B780133BC
:10216000DAB2024B1A701037BD4680BD651D0020E3
:10217000641D0020B0B6010868B4010880B582B0C3
:1021800000AF78600B46FB701346BB700AE07B68BB
:102190005A1C7A601978FA78BB78084611461A46B4
:1021A000FFF742FF7B681B78002BF0D10837BD4654
:1021B00080BD00BF90B585B000AF0446084611460B
:1021C0001A462346FB710346BB710B467B711346CF
:1021D0003B71FA797B799A4205D97B79FB81FB794E
:1021E0007B71FB89FB71BA793B799A4205D93B79BE
:1021F000FB81BB793B71FB89BB717B799AB2FB791F
:102200009BB2D31A9BB2BB813B799AB2BB799BB28A
:10221000D31A9BB27B81B7F90C30002B10D1F9791E
:10222000BA7997F82030084611461A46FFF7A6FDFE
:10223000BB790133BB713A79BB799A42EFD293E013
:10224000B7F90A30002B10D1F979BA7997F8203014
:10225000084611461A46FFF791FDFB790133FB71E1
:102260007A79FB799A42EFD27EE0B7F90C20B7F980
:102270000A309A423CDD7B895B009AB2BB89D31A53
:102280009BB2FB8126E0F979BA7997F820300846AD
:1022900011461A46FFF772FDFB790133FB71B7F95E
:1022A0000E30002B0FDDBB790133BB71B7F90A206B
:1022B000B7F90C30D31A9BB25B009AB2FB89134476
:1022C0009BB2FB8106E07B895B009AB2FB891344D9
:1022D0009BB2FB81FA797B799A42D4D1F979BA79A8
:1022E00097F82030084611461A46FFF747FD3BE0B5
:1022F000BB895B009AB27B89D31A9BB2FB8126E033
:10230000F979BA7997F82030084611461A46FFF74E
:1023100035FDBB790133BB71B7F90E30002B0FDDF2
:10232000FB790133FB71B7F90A20B7F90C30D31AE6
:102330009BB25B009AB2FB8913449BB2FB8106E01F
:102340007B895B009AB2FB8913449BB2FB81BA790B
:102350003B799A42D4D1F979BA7997F82030084676
:1023600011461A46FFF70AFD1437BD4690BD00BF5F
:1023700090B585B002AF0446084611461A4623467A
:10238000FB710346BB710B467B7113463B71F879B9
:10239000B9797A79BC793B7E00932346FFF70AFF2F
:1023A000F879B979FA793C793B7E00932346FFF7B7
:1023B00001FF7879B9797A793C793B7E009323469D
:1023C000FFF7F8FEF87939797A793C793B7E00930A
:1023D0002346FFF7EFFE0C37BD4690BD90B585B0A4
:1023E00002AF0446084611461A462346FB710346CF
:1023F000BB710B467B7113463B710BE0F879B979E1
:102400007A79BC793B7E00932346FFF7D3FEBB79F4
:102410000133BB71BA793B799A42EFD30C37BD4691
:1024200090BD00BF90B587B000AF04460846114686
:102430001A462346FB710346BB710B467B7113465C
:102440003B717B799BB2C3F101039BB2FB820123F9
:10245000BB827B799BB21A46D203D31A5B009BB234
:102460007B8200233B827B79FB81BA797B791344A1
:10247000DAB2F9793B79084611461A46FFF77EFC35
:10248000BA797B79D31ADAB2F9793B7908461146E1
:102490001A46FFF773FCFA797B791344D9B2BA79FB
:1024A0003B79084611461A46FFF768FCFA797B79B2
:1024B000D31AD9B2BA793B79084611461A46FFF7C2
:1024C0005DFC9FE0B7F91630002B0DDBFB899BB25A
:1024D000013B9BB2FB817B8A02339BB27B82FA8AEF
:1024E0007B8A13449BB2FB823B8A9BB201339BB233
:1024F0003B82BB8A02339BB2BB82FA8ABB8A1344FB
:102500009BB2FB823B8ADAB2FB791344D9B2FB89D6
:10251000DAB2BB791344DAB23B79084611461A465F
:10252000FFF72CFC3B8ADBB2FA79D31AD9B2FB89CC
:10253000DAB2BB791344DAB23B79084611461A463F
:10254000FFF71CFC3B8ADAB2FB791344D9B2FB8952
:10255000DBB2BA79D31ADAB23B79084611461A4689
:10256000FFF70CFC3B8ADBB2FA79D31AD9B2FB89AC
:10257000DBB2BA79D31ADAB23B79084611461A4669
:10258000FFF7FCFBFB89DAB2FB791344D9B23B8A33
:10259000DAB2BB791344DAB23B79084611461A46DF
:1025A000FFF7ECFBFB89DBB2FA79D31AD9B23B8A8D
:1025B000DAB2BB791344DAB23B79084611461A46BF
:1025C000FFF7DCFBFB89DAB2FB791344D9B23B8A13
:1025D000DBB2BA79D31ADAB23B79084611461A4609
:1025E000FFF7CCFBFB89DBB2FA79D31AD9B23B8A6D
:1025F000DBB2BA79D31ADAB23B79084611461A46E9
:10260000FFF7BCFBB7F91020B7F90E309A42FFF67E
:1026100059AF1C37BD4690BDB0B588B002AF044677
:10262000084611461A462346FB710346BB710B460A
:102630007B7113463B717B799BB2C3F101039BB263
:10264000FB820123BB827B799BB21A46D203D31A49
:102650005B009BB27B8200233B827B79FB81BA7952
:102660007B791344DAB2F9793B79084611461A4668
:10267000FFF784FBBA797B79D31ADAB2F9793B791F
:10268000084611461A46FFF779FBFA797B7913441D
:10269000D9B2BA793B79084611461A46FFF76EFB64
:1026A000FA797B79D31AD9B2BA793B7908461146BF
:1026B0001A46FFF763FBFA797B79D31AD8B2FA7915
:1026C0007B791344DAB2B979BC793B79009323461C
:1026D000FFF770FD87E0B7F91630002B0DDBFB89A3
:1026E0009BB2013B9BB2FB817B8A02339BB27B8214
:1026F000FA8A7B8A13449BB2FB823B8A9BB20133EA
:102700009BB23B82BB8A02339BB2BB82FA8ABB8AF2
:1027100013449BB2FB823B8ADBB2FA79D31AD8B25C
:10272000FB89DAB2BB791344D9B23B8ADAB2FB79BE
:102730001344DDB2FB89DAB2BB791344DCB23B79D6
:1027400000932A462346FFF735FD3B8ADAB2FB7930
:102750001344D8B2FB89DBB2BA79D31AD9B23B8A17
:10276000DBB2FA79D31ADDB2FB89DBB2BA79D31ABC
:10277000DCB23B7900932A462346FFF71BFDFB8919
:10278000DAB2FB791344D8B23B8ADAB2BB7913448C
:10279000D9B2FB89DBB2FA79D31ADDB23B8ADAB25D
:1027A000BB791344DCB23B7900932A462346FFF7FA
:1027B00001FDFB89DAB2FB791344D8B23B8ADBB264
:1027C000BA79D31AD9B2FB89DBB2FA79D31ADDB25E
:1027D0003B8ADBB2BA79D31ADCB23B7900932A4642
:1027E0002346FFF7E7FCB7F91020B7F90E309A42FD
:1027F000FFF671AF1837BD46B0BD00BF80B483B0DF
:1028000000AF0346FB71FB79642B01D96423FB7194
:10281000054B1B68FA79054931F812205A630C37C9
:10282000BD465DF8047B7047041900204800002075
:1028300090B583B000AF786039601E4B1B88092BC0
:102840002FD81C4B1B881C463B681B68184615F08C
:102850000DFF02464FF47A7303FB02F31A46164B40
:1028600043F83420134B1B881C463B6804331B6819
:10287000184615F0F7FE53EC102B1046194615F0CC
:1028800093FB01460C4AE30013445960094B1B8833
:1028900001339AB2074B1A800848FEF773FB0023F6
:1028A00004E00748FEF76EFB4FF0FF3318460C3785
:1028B000BD4690BD380C00206C1F0020F0B7010809
:1028C000F4B7010880B584B000AF786039607B68E8
:1028D000012B05D01548FEF755FB4FF0FF3320E0E4
:1028E0003B681B68184615F0C1FE0346FB81FB8957
:1028F0000F4ADB001344D3ED017AFCEEE77A17EEC2
:10290000903ABB60F989FB89094A52F83330094A89
:10291000A2FB03239B0908481A46BB68FEF732FB5B
:10292000002318461037BD4680BD00BFF4B701082C
:102930006C1F0020D34D6210FCB7010880B582B037
:1029400000AF78603960054B00221A800448FEF71A
:1029500019FB002318460837BD4680BD380C0020FF
:10296000F0B7010880B582B000AF78603960104BD5
:1029700000221A600F4B4FF000021A600E4B4FF00E
:1029800000021A600D4B01221A7000200021FEF790
:10299000E9FB01200021FEF7E5FBFEF7BDFB08483F
:1029A000FEF7F0FA002318460837BD4680BD00BF89
:1029B000681F0020400C00203C0C00203A0C002036
:1029C000F0B7010880B584B000AF7860396000F0DE
:1029D0000BF8F8600348FEF7D5FAFB681846103785
:1029E000BD4680BDF0B7010880B500AF0D4B002299
:1029F0001A7000200021FEF7B5FB01200021FEF730
:102A0000B1FBFEF79BFB084B00221A60074B4FF00F
:102A100000021A60064B4FF000021A6000231846AD
:102A200080BD00BF3A0C0020681F0020400C002031
:102A30003C0C002090B585B000AF786039607B68B1
:102A4000042B05D02648FEF79DFA4FF0FF3342E0F5
:102A50003B681B68184615F009FE0346DBB2013BD4
:102A6000FB73FC7B3B6804331B68184615F0FAFDCA
:102A700053EC102B1046194615F096FA0146194AE8
:102A8000A30013441960FC7B3B6808331B6818469D
:102A900015F0E8FD53EC102B1046194615F084FA9A
:102AA0000146114AA30013441960FC7B3B680C33B8
:102AB0001B68184615F0D6FD53EC102B104619462E
:102AC00015F072FA0146094AA30013441960084838
:102AD000FEF758FA002318461437BD4690BD00BFD4
:102AE000F4B70108601F0020C41F0020BC1F002095
:102AF000F0B7010880B58EB004AF78608A4B1B78C0
:102B0000002B4AD1FFF7ACF907F1140207F11003CB
:102B1000002011461A46FEF78DFC034687F8273041
:102B200000200021FFF768FAD7ED057AFDEEE77A7D
:102B30007E4817EE901AFEF751FA00200A21FFF79F
:102B40005BFA97F827307A481946FEF747FA07F1FB
:102B50000C0207F10803012011461A46FEF76AFC31
:102B6000034687F8273000201421FFF745FAD7EDF8
:102B7000037AFDEEE77A6F4817EE901AFEF72EFA09
:102B800000201E21FFF738FA97F827306A481946C7
:102B9000FEF724FAFFF796F9C2E007F1140207F1F5
:102BA0001003002011461A46FEF744FC0346002B92
:102BB0000BD107F10C0207F10803012011461A4658
:102BC000FEF738FC0346002B01D0012300E0002370
:102BD00087F8273097F82730002B05D0FFF704FF40
:102BE0005648FEF7CFF99BE097ED057AD7ED037ACB
:102BF00077EE277AB0EE007AC7EE877AC7ED087ACB
:102C00004F4B1B68184600F0A9F887ED070A002013
:102C1000796897ED080AD7ED070A00F08FF90346A7
:102C2000FB760120796897ED080AD7ED070A00F0D6
:102C300085F90346BB76BA7EFB7E934238BF1346C6
:102C4000DBB200201946FEF78DFABA7EFB7E934276
:102C500038BF1346DBB201201946FEF783FA384B22
:102C60001968D7ED077AFDEEE76AD7ED057ABDEE74
:102C7000E77AD7ED037AFDEEE77A17EE900AFA7E4F
:102C8000BB7E0090019202932E4816EE902A17EE1A
:102C9000103AFEF777F9FFF7E3F800200021FFF77D
:102CA000ABF9FB7E28481946FEF798F900200A2167
:102CB000FFF7A2F9BB7E25481946FEF78FF90020E1
:102CC0001421FFF799F9D7ED057AFDEEE77A174859
:102CD00017EE901AFEF782F900201E21FFF78CF9FB
:102CE000D7ED037AFDEEE77A124817EE901AFEF759
:102CF00075F9FFF7E7F8124B1A687B681344104A1E
:102D00001360134B1B88013B124A52F833200C4BC3
:102D10001B689A4204D2FFF767FE0F48FEF732F9AC
:102D20002837BD4680BD00BF3A0C00201CB8010802
:102D30002CB801083CB801084CB80108F4B70108E8
:102D4000681F00205CB8010898B80108A4B8010801
:102D5000380C00206C1F0020B0B8010880B487B088
:102D600000AF78600023FB820FE0FB8A314A52F803
:102D700033207B689A4205D1FB8A2E4ADB0013443C
:102D80005B684EE0FB8A0133FB822B4B1B88FA8A7F
:102D90009A4206D2FB8A274A52F833207B689A422D
:102DA000E3D9FB8A234A52F83320FB8A013B2149AD
:102DB00051F83330D31A07EE903AF8EE677AC7ED40
:102DC000047AFB8A1B4ADB00134493ED017AFB8AE9
:102DD000013B184ADB001344D3ED017A77EE677AA2
:102DE000C7ED037AFB8A013B124ADB00134493EDE3
:102DF000017AD7ED036AD7ED047AC6EEA76AFB8A9B
:102E0000013B0C4A52F833307A68D31A07EE903AF5
:102E1000F8EE677A66EEA77A77EE277AC7ED027A40
:102E2000BB6807EE903AB0EE670A1C37BD465DF806
:102E3000047B70476C1F0020380C002080B489B0E0
:102E400000AF0346B96087ED010AC7ED000AFB73C6
:102E500097ED007AD7ED017A77EE677AC7ED067ABB
:102E6000BB6807EE903AF8EE677A9FED2E7A87EE10
:102E7000877AD7ED067A27EE277A2B4BD3ED007AA7
:102E800077EE277A284BC3ED007A284BD3ED007AF2
:102E900097ED067A37EE677ABB6807EE903AF8EE60
:102EA000677ADFED206AC7EEA67AC7EE277AC7ED0C
:102EB000057AFB7B1E4A9B00134493ED007AD7ED05
:102EC000067A27EE277AFB7B1A4A9B001344D3ED40
:102ED000006A154BD3ED007A66EEA77A37EE277AB3
:102EE000FB7B154A9B001344D3ED006AD7ED057AAE
:102EF00066EEA77A77EE277AFCEEE77A17EE903A3D
:102F0000FB610A4ABB691360FB69FF2B01D9FF23F0
:102F1000FB61FB69DBB218462437BD465DF8047BD4
:102F2000704700BF00007A44400C00203C0C002099
:102F3000601F0020C41F0020BC1F002080B485B08B
:102F400000AF0346B96087ED010AC7ED000AFB73C5
:102F500097ED007AD7ED017A77EE677AF5EEC07AD1
:102F6000F1EE10FA01DBFF2300E0002318461437CE
:102F7000BD465DF8047B704780B584B000AF7860D3
:102F80003960022012F052FD0023FB7336E0FB7B18
:102F90007A6813441B780A2B06D00D2B04D0002B23
:102FA00012D14FF0FF3332E01B4B1B781A461B4BFC
:102FB0000021995400F036F80346002B03D018483E
:102FC000FDF7E0FF17E016E0134B1B787E2B0FD8C0
:102FD000114B1B781946FB7B7A6813441A780F4B08
:102FE0005A540D4B1B780133DAB20B4B1A7002E0C6
:102FF0006FF001030BE0FB7B0133FB73FA7B3B6853
:103000001B689A42C3D3022012F02AFD00231846FF
:103010001037BD4680BD00BF440C0020CC1F0020EF
:1030200098B9010880B58AB000AF00237B62002305
:10303000FB612023BB803B1D2948194616F0CEFDBD
:1030400038621CE0FB69042B02D14FF0FF3343E0F0
:103050007B6A002B02D13B6A7B620AE0FB699B0022
:1030600007F1280213443A6A43F8202CFB69013324
:10307000FB613B1D0020194616F0B0FD38623B6A2B
:10308000002BDFD1174B00221A700023FB761BE0C8
:10309000FB7E154A52F833301846796A14F0E4FF83
:1030A0000346BB76BB7E002B0BD1FB7E0E4ADB00BA
:1030B00013445B6807F10802F8691146984700233A
:1030C0000AE0FB7E0133FB76FB7E074A52F8333081
:1030D000002BDDD16FF0010318462837BD4680BDB7
:1030E000CC1F0020440C00201401002080B582B0C9
:1030F00000AF786039600448FDF744FF00231846AC
:103100000837BD4680BD00BFA0B90108F0B58FB03B
:103110000AAF78600023FB607B68002B01D101239C
:10312000F7E07B68032283F881237868FDF72AF9AA
:103130007B681B68184601F02BFA7B68D3F800E027
:103140007E686D4606F110040FCC0FC50FCC0FC57D
:1031500094E8030085E80300331D0ECB704601F0B0
:10316000B3F97B681B681846002101F023FA00239D
:10317000FB604CE07968FA681346DB009B1A9B0001
:103180000B44383301225A70FB68D8B27968FA6868
:103190001346DB009B1A9B000B44383302461A701F
:1031A000FB6898B27968FA681346DB009B1A9B00AB
:1031B0000B4438330246DA807968FA681346DB003C
:1031C0009B1A9B000B4438330022DA707968FA6846
:1031D0001346DB009B1A9B000B44403300221A600D
:1031E0007968FA681346DB009B1A9B000B44403356
:1031F00000225A607968FA681346DB009B1A9B002C
:103200000B44483300225A60FB680133FB60FB68C3
:103210000E2BAFD90023FB605AE07968FA68134699
:10322000DB009B1A9B000B4403F5EC7300225A71E0
:10323000FB68D8B27968FA681346DB009B1A9B00DA
:103240000B4403F5EC7302461A71FB6898B2796877
:10325000FA681346DB009B1A9B000B443833024686
:10326000DA807968FA681346DB009B1A9B000B44EE
:1032700003F5EC730022DA717968FA681346DB0013
:103280009B1A9B000B4403F5F07300225A60796887
:10329000FA681346DB009B1A9B000B4403F5F0739E
:1032A00000229A607968FA681346DB009B1A9B003B
:1032B0000B4403F5F47300229A607B681A68FB687C
:1032C00040339B00134400225A60FB680133FB60CB
:1032D000FB680E2BA1D97B68D3F800E07E686D46B1
:1032E00006F110040FCC0FC50FCC0FC594E80300F6
:1032F00085E80300331D0ECB704601F083F97B682F
:10330000012283F881237B681B68184602F0C0FA0B
:10331000002318461437BD46F0BD00BF80B582B00B
:1033200000AF78607B68002B01D101230EE07B6841
:10333000032283F88123786800F042F87868FDF76B
:103340005FF87B68002283F8812300231846083742
:10335000BD4680BD80B483B000AF78600C37BD46F9
:103360005DF8047B704700BF80B483B000AF786025
:103370000C37BD465DF8047B704700BF80B582B056
:1033800000AF78607B6893F88033012B01D1022372
:1033900012E07B68012283F880237B681B68184653
:1033A00002F05EFA7B681B68184601F0DFF87B6864
:1033B000002283F88023002318460837BD4680BDCD
:1033C00080B582B000AF78607B6893F88033012BC2
:1033D00001D1022317E07B68012283F880237B68F8
:1033E0001B68184601F0D4F87B681B68184602F089
:1033F000CDF97B681B68184602F04AFA7B68002208
:1034000083F88023002318460837BD4680BD00BFDF
:1034100080B58AB000AF78607B681B68BB61002311
:103420007B6200233B6200237B610023FB6100235E
:103430003B610023FB607B681B68184602F0DCFAE6
:103440000346002B40F0B0837B681B68184602F0EF
:1034500037FA0346002B00D1A6E37B681B681846A9
:1034600002F02EFA034603F00203002B07D07B681C
:103470001B687A681268526902F002025A617B681E
:103480001B68184602F01CFA034603F40023002BC5
:1034900000F0B3800023FB617B681B68184602F0D4
:1034A00025FA3862A5E03B6A03F00103002B00F027
:1034B0009A807B681A68FB69DBB21046194602F0F5
:1034C00045FA78617B6903F00103002B6CD0FB693E
:1034D0005A01BB69134403F530631A460123936014
:1034E0007B681B69012B3CD17968FA691346DB00C4
:1034F0009B1A9B000B4403F5F0735A68FB69590152
:10350000BB690B4403F530631B69C3F31203D11A83
:103510007868FA691346DB009B1A9B00034403F5A5
:10352000F87359607968FA691346DB009B1A9B00AF
:103530000B4403F5F07399687868FA691346DB0069
:103540009B1A9B00034403F5F0735B681944786889
:10355000FA691346DB009B1A9B00034403F5F073E2
:103560009960FB69DBB278681946FCF779FF7B68E4
:103570001B69012B18D1FB69002B15D17968FA69F9
:103580001346DB009B1A9B000B4403F5F4739B6806
:10359000002B09D17B681A687B6803F561731046BC
:1035A00001211A4602F06CFA7B6903F00803002B34
:1035B0000BD07868FCF742FFFB695A01BB691344E2
:1035C00003F530631A46082393607B6903F0100308
:1035D000002B08D0FB695A01BB69134403F5306323
:1035E0001A4610239360FB690133FB613B6A5B0859
:1035F0003B623B6A002B7FF456AF7B681B68184622
:1036000002F05EF9034603F48023002B00F0C4802F
:103610007B681B68184602F081F938620023FB6161
:10362000B6E03B6A03F00103002B00F0AB807B683F
:103630001A68FB69DBB21046194602F0A3F97861FB
:103640007B6903F00103002B5BD0FB69012202FAC6
:1036500003F33B61BB6903F500631946BB6903F5DE
:1036600000635A6B3B69DB4313404B63FB695A01B0
:10367000BB69134403F510631A46012393607B680A
:103680001B69012B1BD17968FA691346DB009B1A71
:103690009B000B44403359687868FA691346DB0095
:1036A0009B1A9B00034440331B6819447868FA69ED
:1036B0001346DB009B1A9B00034440335960FB69AF
:1036C000DBB278681946FCF7E7FE7B681B69012BC3
:1036D00017D1FB69002B14D17968FA691346DB0016
:1036E0009B1A9B000B4448335B68002B09D17B6815
:1036F0001A687B6803F56173104601211A4602F0CF
:10370000BFF97B6903F00803002B08D0FB695A015D
:10371000BB69134403F510631A46082393607B6961
:1037200003F01003002B08D0FB695A01BB69134456
:1037300003F510631A46102393607B6903F040037E
:10374000002B08D0FB695A01BB69134403F51063D1
:103750001A46402393607B6903F00203002B08D0D4
:10376000FB695A01BB69134403F510631A4602232F
:1037700093607B6903F08003002B03D07868F969BC
:1037800000F08AFDFB690133FB613B6A5B083B6229
:103790003B6A002B7FF445AF7B681B68184602F03C
:1037A0008FF80346002B15DABB6903F500631A4650
:1037B000BB6903F500635B6823F00103536078681D
:1037C000FCF7E0FE7B681B687A681268526902F0B9
:1037D00000425A617B681B68184602F071F8034684
:1037E00003F40063002B12D0BB6903F500639B68F0
:1037F00003F00103002B02D07868FCF79DFE7B6884
:103800001B687A681268526902F400625A617B6828
:103810001B68184602F054F8034603F48053002B4B
:1038200000F09380BB6903F500631A46BB6903F59A
:1038300000635B6823F0010353607B681B681846D4
:10384000002101F00BF800237B6214E07B6A5A012F
:10385000BB69134403F510631A46FF2393607B6A28
:103860005A01BB69134403F530631A46FF23936082
:103870007B6A01337B627B685A687B6A9A42E5D82F
:10388000BB6903F500631A464FF0FF339361BB69D0
:1038900003F500631A46BB6903F50063DB6943F077
:1038A0000113D3617B681B6B002B18D0BB6903F538
:1038B00000631A46BB6903F50063D3F8843043F014
:1038C0000B03C2F88430BB6903F500631A46BB6979
:1038D00003F500635B6C43F00B03536415E0BB69B5
:1038E00003F500631A46BB6903F500635B6943F0A7
:1038F0000B035361BB6903F500631A46BB6903F50B
:1039000000631B6943F00B031361BB6903F500639C
:103910001A46BB6903F500631B6823F4FE6313605A
:103920007B6819687B681B69DAB27B6803F5617391
:10393000084611461A4602F0A3F87B681B687A68AD
:103940001268526902F480525A617B681B681846FB
:1039500001F0B6FF034603F40053002B3DD07B6813
:103960001B68184602F056F87B681B687A68126874
:10397000D26822F47052DA607B681B68184600F047
:10398000CDFF0346002B0FD17B680022DA607B68F5
:103990004FF400725A617B681B687A681268D268BB
:1039A00042F41052DA600DE07B680322DA607B6833
:1039B00040225A617B681B687A681268D26842F4B8
:1039C000A052DA607868FCF78FFD7B681B687A6824
:1039D0001268526902F400525A617B681B681846EB
:1039E00001F06EFF034603F01003002B64D07B68E8
:1039F0001B687A681268926922F010029A61BB69AA
:103A00001B6AFB60FB6803F00F021346DB009B1A86
:103A10009B0003F5EC737A6813440433BB60FB68C6
:103A200003F4F0135B0C022B26D1FA6847F6F0730F
:103A30001340002B38D0BB68D968FA6847F6F0739A
:103A400013401B099BB2B8691A4601F097FDBB6889
:103A5000DA68F96847F6F0730B401B091A44BB6833
:103A6000DA60BB689A69F96847F6F0730B401B0986
:103A70001A44BB689A6117E0FB6803F4F0135B0C0F
:103A8000062B11D17B6803F56173B86919460822CA
:103A900001F074FDBB689A69F96847F6F0730B4052
:103AA0001B091A44BB689A617B681B687A681268B4
:103AB000926942F010029A617B681B68184601F017
:103AC000FFFE034603F00803002B0AD07868FCF7DA
:103AD000FDFC7B681B687A681268526902F0080274
:103AE0005A617B681B68184601F0EAFE034603F43E
:103AF0008013002B0DD0FB69DBB278681946FCF708
:103B000061FD7B681B687A681268526902F4801252
:103B10005A617B681B68184601F0D2FE034603F425
:103B20000013002B0DD0FB69DBB278681946FCF757
:103B300037FD7B681B687A681268526902F40012CC
:103B40005A617B681B68184601F0BAFE034603F011
:103B50008043002B0AD07868FCF746FD7B681B6821
:103B60007A681268526902F080425A617B681B6869
:103B7000184601F0A5FE034603F00403002B13D002
:103B80007B681B685B68FB60FB6803F00403002B29
:103B900002D07868FCF736FD7B681B687A6812688B
:103BA0005168FA680A435A602837BD4680BD00BF95
:103BB00080B483B000AF78600B46FB700C37BD4615
:103BC0005DF8047B704700BF80B483B000AF7860BD
:103BD0000B46FB700C37BD465DF8047B704700BF99
:103BE00080B483B000AF78600C37BD465DF8047BCD
:103BF000704700BF80B483B000AF78600C37BD461B
:103C00005DF8047B704700BF80B483B000AF78607C
:103C10000C37BD465DF8047B704700BF80B483B0AD
:103C200000AF78600C37BD465DF8047B704700BF7D
:103C300080B483B000AF78600C37BD465DF8047B7C
:103C4000704700BF80B483B000AF78600B46FB7054
:103C50000C37BD465DF8047B704700BF80B483B06D
:103C600000AF78600B46FB700C37BD465DF8047BF7
:103C7000704700BF80B483B000AF78600C37BD469A
:103C80005DF8047B704700BF80B483B000AF7860FC
:103C90000C37BD465DF8047B704700BF80B582B02D
:103CA00000AF78607B6893F88033012B01D1022349
:103CB0000DE07B68012283F880237B681B6818462F
:103CC00001F0CEFD7B68002283F880230023184694
:103CD0000837BD4680BD00BF80B582B000AF7860B8
:103CE0007B6893F88033012B01D102230DE07B68C0
:103CF000012283F880237B681B68184601F0C8FD09
:103D00007B68002283F88023002318460837BD46CD
:103D100080BD00BF80B582B000AF78600B46FB70FD
:103D20007B6893F88033012B01D102230FE07B687D
:103D3000012283F880237B681A68FB7810461946B5
:103D400001F068FD7B68002283F880230023184679
:103D50000837BD4680BD00BF80B584B000AF786035
:103D6000084611461A460346FB700B463B80134635
:103D7000BB700023FB72FB785BB2002B0BDAFB7885
:103D800003F07F021346DB009B1A9B0038337A68EE
:103D90001344FB600CE0FB7803F07F021346DB006A
:103DA0009B1A9B0003F5EC737A6813440433FB60A1
:103DB000FB7803F07F03DAB2FB681A70FB78DB094B
:103DC000DBB21A46FB685A703A88FB689A60FB6857
:103DD000BA78DA70FB685B78002B04D0FB681B783C
:103DE0009AB2FB68DA80BB78022B02D1FB68002212
:103DF0001A717B6893F88033012B01D102230EE006
:103E00007B68012283F880237B681B681846F96869
:103E100000F0BAFD7B68002283F88023FB7A184605
:103E20001037BD4680BD00BF80B584B000AF78605C
:103E30000B46FB70FB785BB2002B0BDAFB7803F0D0
:103E40007F021346DB009B1A9B0038337A681344C9
:103E5000FB600CE0FB7803F07F021346DB009B1A4B
:103E60009B0003F5EC737A6813440433FB60FB7822
:103E700003F07F03DAB2FB681A70FB78DB09DBB270
:103E80001A46FB685A707B6893F88033012B01D186
:103E900002230EE07B68012283F880237B681B6885
:103EA0001846F96800F0BEFE7B68002283F8802384
:103EB000002318461037BD4680BD00BF80B586B0D0
:103EC00000AFF8607A603B600B46FB72FB7A03F050
:103ED0007F021346DB009B1A9B0003F5EC73FA6824
:103EE000134404337B617B697A68DA607B693A68E2
:103EF0005A617B6900229A617B6900225A70FB7AC1
:103F000003F07F03DAB27B691A70FB681B69012B2F
:103F100002D17A687B691A61FB6893F88033012BC0
:103F200001D1022322E0FB68012283F88023FB7A7F
:103F300003F07F03002B0AD1FB681A68FB681B693A
:103F4000DBB2104679691A4601F084F909E0FB6892
:103F50001A68FB681B69DBB2104679691A4600F0E3
:103F600037FFFB68002283F88023002318461837A8
:103F7000BD4680BD80B483B000AF78600B46FB7057
:103F8000FB7803F07F0279681346DB009B1A9B00E5
:103F90000B4403F5F8735B689BB218460C37BD46BB
:103FA0005DF8047B704700BF80B586B000AFF86055
:103FB0007A603B600B46FB72FB7A03F07F0213468C
:103FC000DB009B1A9B003833FA6813447B617B69E2
:103FD0007A68DA607B693A685A617B6900229A6183
:103FE0007B6901225A70FB7A03F07F03DAB27B69A6
:103FF0001A70FB681B69012B02D17A687B691A6110
:10400000FB6893F88033012B01D1022322E0FB6887
:10401000012283F88023FB7A03F07F03002B0AD16F
:10402000FB681A68FB681B69DBB2104679691A469F
:1040300001F010F909E0FB681A68FB681B69DBB244
:10404000104679691A4600F0C3FEFB68002283F827
:104050008023002318461837BD4680BD80B584B044
:1040600000AF78600B46FB70FB785BB2002B0BDA7D
:10407000FB7803F07F021346DB009B1A9B0038336A
:104080007A681344FB600AE0FA781346DB009B1A57
:104090009B0003F5EC737A6813440433FB60FB6800
:1040A00001229A70FB7803F07F03DAB2FB681A7082
:1040B000FB78DB09DBB21A46FB685A707B6893F821
:1040C0008033012B01D1022320E07B68012283F899
:1040D00080237B681B681846F96801F077FAFB7843
:1040E00003F07F03002B0CD17B6819687B681B6988
:1040F000DAB27B6803F56173084611461A4601F08F
:10410000BFFC7B68002283F8802300231846103709
:10411000BD4680BD80B584B000AF78600B46FB70B3
:10412000FB785BB2002B0BDAFB7803F07F021346BF
:10413000DB009B1A9B0038337A681344FB600AE06B
:10414000FA781346DB009B1A9B0003F5EC737A6840
:1041500013440433FB60FB6800229A70FB7803F081
:104160007F03DAB2FB681A70FB78DB09DBB21A4610
:10417000FB685A707B6893F88033012B01D10223CE
:104180000EE07B68012283F880237B681B68184659
:10419000F96801F08DFA7B68002283F88023002300
:1041A00018461037BD4680BD80B582B000AF78603C
:1041B0000B46FB707B6893F88033012B01D10223FF
:1041C0001BE07B68012283F88023FB785BB2002B25
:1041D00009DA7B681A68FB7803F07F0310461946FA
:1041E00000F03CFB04E07B681B68184600F05CFBB9
:1041F0007B68002283F88023002318460837BD46D9
:1042000080BD00BF80B485B000AF78607B681B685C
:10421000FB60FB6803F500639B6803F00103002B60
:104220000AD0FB6803F500631A46FB6803F50063D8
:104230005B6843F001035360002318461437BD4602
:104240005DF8047B704700BF80B485B000AF786034
:104250007B681B68FB60FB6803F500631A46FB681C
:1042600003F500635B6823F00103536000231846E5
:104270001437BD465DF8047B704700BF80B483B03F
:1042800000AF78607B6893F88133DBB218460C3757
:10429000BD465DF8047B704790B58BB002AF786087
:1042A00039607B681B687B610023FB6100233B61F5
:1042B0003A681346DB009B1A9B0038337A68134434
:1042C000FB60FB685A69FB689B69D31AFB61FA695A
:1042D000FB689B689A4202D9FB689B68FB61FB699B
:1042E00003339B08BB612BE0FB685A69FB689B6941
:1042F000D31AFB61FA69FB689B689A4202D9FB6892
:104300009B68FB61FB6903339B08BB61FB68D96851
:104310003B68DAB2FB699CB27B681B69DBB2009335
:104320007869234601F0F4F8FB68DA68FB691A44FF
:10433000FB68DA60FB689A69FB691A44FB689A615A
:104340003B685A017B69134403F510639B699AB279
:10435000BB699A4209D9FB689A69FB685B699A4212
:1043600003D2FB685B69002BBED1FB69002B10D127
:104370003B68012202FA03F33B617B6903F50063AA
:1043800019467B6903F500635A6B3B69DB431340B5
:104390004B63002318462437BD4690BD80B58CB0D2
:1043A00000AF78600023BB6200237B62362079680F
:1043B000002209F019FF362009F032FF0023BB600C
:1043C000244A244B1B6C43F010031364214B1B6CD9
:1043D00003F01003BB60BB6807F1100207F10C0388
:1043E0001046194610F070FEFB69BB62BB6A002BD9
:1043F00003D110F06DFDF86204E010F069FD034692
:104400005B00FB62FB6A144AA2FB03239B0C013B8B
:104410007B62124B124A1A60104B40F2E732DA60AC
:104420000E4A7B6A53600D4B00221A610B4B00222F
:104430009A600A480CF076F80346002B04D107482E
:104440000CF028F9034600E0012318463037BD463A
:1044500080BD00BF0038024083DE1B434C2000209B
:104460000010004080B400AF054B1B68044A12687E
:10447000D26822F00102DA60BD465DF8047B704725
:104480004C20002080B400AF054B1B68044A126822
:10449000D26842F00102DA60BD465DF8047B7047E5
:1044A0004C20002080B582B000AF786002F042F965
:1044B0000837BD4680BD00BF80B500AF01480EF093
:1044C000CFF880BD4C20002084B080B582B000AF12
:1044D000786007F1140080E80E00BB6A012B20D140
:1044E0007B689B6B23F480327B689A637B68DB6814
:1044F00023F4840323F040037A68D3607B68DB688D
:1045000023F440127B68DA607B6C012B05D17B6859
:10451000DB6843F480127B68DA60786801F0F6FAB1
:104520000CE07B68DB6843F040027B68DA60786807
:1045300001F0ECFA7B684FF480329A633B6A012BFE
:104540000BD17B689B6843F00C027B689A607B68A8
:104550009B6843F020027B689A6000231846083766
:10456000BD46BDE8804004B0704700BF80B483B052
:1045700000AF78607B689B6843F001027B689A60BB
:10458000002318460C37BD465DF8047B704700BF1A
:1045900080B483B000AF78607B689B6823F0010231
:1045A0007B689A60002318460C37BD465DF8047B93
:1045B000704700BF80B582B000AF78600B46FB70DB
:1045C0007B68DB6823F0C0427B68DA60FB78012BF4
:1045D00006D17B68DB6843F000527B68DA6008E054
:1045E000FB78002B05D17B68DB6843F080427B6859
:1045F000DA60322002F0B8F8002318460837BD46CA
:1046000080BD00BF84B080B584B000AF786007F192
:104610001C0080E80E000023FB607B689B6B43F46A
:1046200000227B689A637B6C002B05D17B689B6BB7
:1046300043F400127B689A637B6803F560631A4653
:10464000002313607B6803F500631A467B6803F55B
:1046500000631B6813603B6B012B0CD17B6A002B42
:1046600004D17868002100F041F908E07868012160
:1046700000F03CF903E07868032100F037F978682E
:10468000102100F0EBF8786800F00EF97B6803F574
:1046900000631A46002313617B6803F500631A4622
:1046A000002353617B6803F500631A464FF0FF3324
:1046B00093617B6803F500631A460023D3610023EE
:1046C000FB6031E0FB685A017B68134403F510631B
:1046D0001B68002B0ADAFB685A017B68134403F558
:1046E00010631A464FF09043136008E0FB685A01CC
:1046F0007B68134403F510631A4600231360FB68BC
:104700005A017B68134403F510631A4600231361B2
:10471000FB685A017B68134403F510631A46FF23B4
:104720009360FB680133FB60FA69FB689A42C9D861
:104730000023FB6031E0FB685A017B68134403F5FA
:1047400030631B68002B0ADAFB685A017B6813444C
:1047500003F530631A464FF09043136008E0FB689E
:104760005A017B68134403F530631A460023136033
:10477000FB685A017B68134403F530631A46002333
:104780001361FB685A017B68134403F530631A46D2
:10479000FF239360FB680133FB60FA69FB689A4270
:1047A000C9D87B6803F500631A467B6803F500638C
:1047B0001B6923F480731361BB6A012B17D17B68DB
:1047C00003F500631A46234B13637B6803F500630C
:1047D0001A467B6803F500631B6B43F4803343F098
:1047E000030313637B6803F500631B6BFB607B684B
:1047F00000229A617B686FF080425A61BB6A002B8D
:1048000005D17B689B6943F010027B689A617B68E5
:104810009A69114B13437A6893617B6B002B05D027
:104820007B689B6943F008027B689A617B6C012B73
:1048300007D17B689B6943F0804343F004037A68A7
:104840009361002318461037BD46BDE8804004B090
:10485000704700BF0001800000383C8080B485B004
:1048600000AF786039600023FB603B689B0143F038
:1048700020027B681A61FB680133FB60FB68094A10
:10488000934201D9032306E07B681B6903F02003F0
:10489000002BF0D1002318461437BD465DF8047B89
:1048A000704700BF400D030080B485B000AF786052
:1048B0000023FB607B6810221A61FB680133FB60F8
:1048C000FB68094A934201D9032306E07B681B6910
:1048D00003F01003002BF0D1002318461437BD4617
:1048E0005DF8047B704700BF400D030080B483B0C7
:1048F00000AF78600B46FB707B6803F500631946D8
:104900007B6803F500631A68FB7813430B60002390
:1049100018460C37BD465DF8047B704780B485B0FF
:1049200000AF78600023FB737B6803F500639B682E
:1049300003F00603002B02D10023FB731CE07B680D
:1049400003F500639B6803F00603022B07D07B6826
:1049500003F500639B6803F00603062B02D10323D3
:10496000FB7309E07B6803F500639B6803F00603B3
:10497000042B01D10223FB73FB7B18461437BD4681
:104980005DF8047B704700BF80B483B000AF7860EF
:1049900039603B685B78012B3ED17B6803F500638F
:1049A00019467B6803F50063DA693B681B78184693
:1049B000012383409BB21343CB613B681B785A01B0
:1049C0007B68134403F510631B6803F40043002B5A
:1049D0005CD13B681B785A017B68134403F5106374
:1049E00018463B681B785A017B68134403F5106333
:1049F0001A683B689B68C3F30A033968C97889045D
:104A00000B433968097889050B43134343F08053FE
:104A100043F40043036039E07B6803F50063194603
:104A20007B6803F50063DA693B681B78184601234D
:104A300083401B041343CB613B681B785A017B689E
:104A4000134403F530631B6803F40043002B1DD1AE
:104A50003B681B785A017B68134403F530631846A2
:104A60003B681B785A017B68134403F530631A686E
:104A70003B689B68C3F30A033968C97889040B4310
:104A8000134343F0805343F400430360002318466C
:104A90000C37BD465DF8047B704700BF80B483B01F
:104AA00000AF786039603B685B78012B53D13B687D
:104AB0001B785A017B68134403F510631B6803F4E9
:104AC0000043002B21D13B681B785A017B681344BB
:104AD00003F5106318463B681B785A017B68134442
:104AE00003F510631A683B689B68C3F30A033968CF
:104AF000C97889040B433968097889050B43134346
:104B000043F0805343F4004303603B689B68C3F366
:104B10000A033A68D278920413433A6812789205ED
:104B20001A433F4B1B68134343F0805343F4004345
:104B30003B4A13607B6803F5006319467B6803F505
:104B40000063DA6B3B681B781846012383409BB2F5
:104B50001343CB635DE03B681B785A017B681344C9
:104B600003F530631B6803F40043002B41D13B681D
:104B70001B785A017B68134403F5306318463B6881
:104B80001B785A017B68134403F530631A683B684D
:104B90009B68C3F30A033968C97889040B433968F1
:104BA000097889050B43134343F4004303607B6892
:104BB00003F530631A4A13603B681B785A017B681F
:104BC000134403F530631A46154B1A603B689B6823
:104BD000C3F30A033A68D278920413433A6812780E
:104BE00092051A430E4B1B68134343F400430C4ACF
:104BF00013607B6803F5006319467B6803F5006367
:104C0000DA6B3B681B781846012383401B0413436F
:104C1000CB63002318460C37BD465DF8047B704714
:104C2000480C002080B483B000AF786039603B68E6
:104C30005B78012B35D17B6803F5006319467B68EF
:104C400003F50063DA6B3B681B7818460123834049
:104C50009BB2DB431340CB637B6803F500631946CB
:104C60007B6803F50063DA693B681B78184601230B
:104C700083409BB2DB431340CB613B681B785A01F6
:104C80007B68134403F5106319463B681B785A018F
:104C90007B68134403F510631B6823F400430B6027
:104CA00034E07B6803F5006319467B6803F5006315
:104CB000DA6B3B681B781846012383401B04DB43F7
:104CC0001340CB637B6803F5006319467B6803F5EB
:104CD0000063DA693B681B781846012383401B0494
:104CE000DB431340CB613B681B785A017B6813445C
:104CF00003F5306319463B681B785A017B681344FF
:104D000003F530631B6823F400430B60002318464F
:104D10000C37BD465DF8047B704700BF80B483B09C
:104D200000AF786039603B685B78012B24D13B6829
:104D30001B785A017B68134403F5106319463B68DE
:104D40001B785A017B68134403F510631B6823F436
:104D500000430B607B6803F5006319467B6803F52D
:104D60000063DA693B681B781846012383409BB2D5
:104D7000DB431340CB6123E03B681B785A017B681F
:104D8000134403F5306319463B681B785A017B686E
:104D9000134403F530631B6823F400430B607B6806
:104DA00003F5006319467B6803F50063DA693B6825
:104DB0001B781846012383401B04DB431340CB615F
:104DC000002318460C37BD465DF8047B704700BFD2
:104DD00090B589B002AFF860B9601346FB7100234B
:104DE000FB82BB685B78012B40F04681BB685B6946
:104DF000002B3BD1BB681B785A01FB68134403F5B9
:104E000010631946BB681B785A01FB68134403F50D
:104E100010631B6923F0FF5323F4C0130B61BB68BD
:104E20001B785A01FB68134403F510631946BB68ED
:104E30001B785A01FB68134403F510631B6943F4A4
:104E400000230B61BB681B785A01FB68134403F510
:104E500010631946BB681B785A01FB68134403F5BD
:104E600010631B69DB0CDB040B6186E0BB681B78FD
:104E70005A01FB68134403F510631946BB681B789D
:104E80005A01FB68134403F510631B69DB0CDB0458
:104E90000B61BB681B785A01FB68134403F5106370
:104EA0001946BB681B785A01FB68134403F510636D
:104EB0001B6923F0FF5323F4C0130B61BB681B78FD
:104EC0005A01FB68134403F510631846BB681B784E
:104ED0005A01FB68134403F510631A69BB685969EA
:104EE000BB689B680B44591EBB689B68B1FBF3F31E
:104EF000D9048C4B0B4013430361BB681B785A01E8
:104F0000FB68134403F510631946BB681B785A010C
:104F1000FB68134403F510631A69BB685B69C3F34C
:104F2000120313430B61BB68DB78012B25D1BB68EF
:104F30001B785A01FB68134403F510631946BB68DC
:104F40001B785A01FB68134403F510631B6923F0B7
:104F5000C0430B61BB681B785A01FB68134403F51F
:104F600010631946BB681B785A01FB68134403F5AC
:104F700010631B6943F000530B61FB79012B0BD1CC
:104F8000BB681B785A01FB68134403F510631A468B
:104F9000BB681B69536116E0BB68DB78012B12D03C
:104FA000BB685B69002B0ED0FB6803F500631946F4
:104FB000FB6803F500635A6BBB681B781846012336
:104FC000834013434B63BB68DB78012B2ED1FB6816
:104FD00003F500639B6803F48073002B13D1BB6857
:104FE0001B785A01FB68134403F510631946BB682C
:104FF0001B785A01FB68134403F510631B6843F0E8
:1050000000530B6012E0BB681B785A01FB68134425
:1050100003F510631946BB681B785A01FB681344FB
:1050200003F510631B6843F080530B60BB681B786B
:105030005A01FB68134403F510631946BB681B78DB
:105040005A01FB68134403F510631B6843F00443E3
:105050000B60BB68DB78012B40F0F580BB68D9683A
:10506000BB681A78BB685B699CB2FB790093F868EF
:10507000234600F04DFAE6E0BB681B785A01FB6856
:10508000134403F530631946BB681B785A01FB686B
:10509000134403F530631B69DB0CDB040B61BB6855
:1050A0001B785A01FB68134403F530631946BB684B
:1050B0001B785A01FB68134403F530631B6923F026
:1050C000FF5323F4C0130B61BB685B69002B2BD12A
:1050D000BB681B785A01FB68134403F5306319461B
:1050E000BB681B785A01FB68134403F530631A69E7
:1050F000BB689B68C3F3120313430B61BB681B7847
:105100005A01FB68134403F530631946BB681B78EA
:105110005A01FB68134403F530631B6943F4002311
:105120000B613CE00000F81FBB685A69BB689B68D4
:1051300013445A1EBB689B68B2FBF3F3FB82BB6847
:105140001B785A01FB68134403F530631946BB68AA
:105150001B785A01FB68134403F530631A69FB8A14
:10516000DB0418463A4B034013430B61BB681B78C2
:105170005A01FB68134403F530631846BB681B787B
:105180005A01FB68134403F530631A69BB689B68D6
:10519000F98A01FB03F3C3F3120313430361FB79A1
:1051A000012B0AD1BB681B785A01FB68134403F535
:1051B00030631A46BB68DB685361BB68DB78012B40
:1051C0002ED1FB6803F500639B6803F48073002B0A
:1051D00013D1BB681B785A01FB68134403F5306395
:1051E0001946BB681B785A01FB68134403F530630A
:1051F0001B6843F000530B6012E0BB681B785A0138
:10520000FB68134403F530631946BB681B785A01E9
:10521000FB68134403F530631B6843F080530B6055
:10522000BB681B785A01FB68134403F530631946C9
:10523000BB681B785A01FB68134403F530631B6895
:1052400043F004430B60002318461C37BD4690BD55
:105250000000F81F80B485B000AFF860B960134655
:10526000FB71BB685B78012B40F0D180BB685B6948
:10527000002B3BD1BB681B785A01FB68134403F534
:1052800010631946BB681B785A01FB68134403F589
:1052900010631B6923F0FF5323F4C0130B61BB6839
:1052A0001B785A01FB68134403F510631946BB6869
:1052B0001B785A01FB68134403F510631B6943F420
:1052C00000230B61BB681B785A01FB68134403F58C
:1052D00010631946BB681B785A01FB68134403F539
:1052E00010631B69DB0CDB040B615AE0BB681B78A5
:1052F0005A01FB68134403F510631946BB681B7819
:105300005A01FB68134403F510631B69DB0CDB04D3
:105310000B61BB681B785A01FB68134403F51063EB
:105320001946BB681B785A01FB68134403F51063E8
:105330001B6923F0FF5323F4C0130B61BB685A6948
:10534000BB689B689A4203D9BB689A68BB685A617C
:10535000BB681B785A01FB68134403F510631946B8
:10536000BB681B785A01FB68134403F510631B6983
:1053700043F400230B61BB681B785A01FB6813449C
:1053800003F510631946BB681B785A01FB68134488
:1053900003F510631A69BB685B69C3F31203134317
:1053A0000B61FB79012B0BD1BB681B785A01FB68A1
:1053B000134403F510631A46BB681B69536112E07E
:1053C000BB685B69002B0ED0FB6803F500631946D0
:1053D000FB6803F500635A6BBB681B781846012312
:1053E000834013434B63BB681B785A01FB6813442B
:1053F00003F510631946BB681B785A01FB68134418
:1054000003F510631B6843F004430B6079E0BB684D
:105410001B785A01FB68134403F530631946BB68D7
:105420001B785A01FB68134403F530631B69DB0CDE
:10543000DB040B61BB681B785A01FB68134403F55E
:1054400030631946BB681B785A01FB68134403F5A7
:1054500030631B6923F0FF5323F4C0130B61BB6857
:105460005B69002B03D0BB689A68BB685A61BB6854
:105470001B785A01FB68134403F530631946BB6877
:105480001B785A01FB68134403F530631B6943F42E
:1054900000230B61BB681B785A01FB68134403F5BA
:1054A00030631946BB681B785A01FB68134403F547
:1054B00030631A69BB689B68C3F3120313430B6123
:1054C000FB79012B0AD1BB681B785A01FB68134496
:1054D00003F530631A46BB68DB685361BB681B7811
:1054E0005A01FB68134403F530631946BB681B7807
:1054F0005A01FB68134403F530631B6843F004430F
:105500000B60002318461437BD465DF8047B7047D6
:1055100080B487B000AFF860B96011461A460B46F8
:10552000FB711346BB8000233B6100237B6197F82E
:105530002030002B1AD1BB8803339B083B6100232A
:105540007B610FE0FB791A03FB68134403F580537A
:105550001A46BB681B6813607B6901337B61BB68BB
:105560000433BB607A693B699A42EBD30023184647
:105570001C37BD465DF8047B704700BF80B487B020
:1055800000AFF860B9601346FB8000237B61FB88A5
:1055900003339B083B6100237B610BE0FB6803F551
:1055A00080531A68BB681A607B6901337B61BB68F2
:1055B0000433BB607A693B699A42EFD3BB681846F3
:1055C0001C37BD465DF8047B704700BF80B483B0D4
:1055D00000AF786039603B685B78012B30D13B6865
:1055E0001B785A017B68134403F510631B68002B7A
:1055F00012DB3B681B785A017B68134403F5106388
:1056000019463B681B785A017B68134403F5106305
:105610001B6823F080430B603B681B785A017B6852
:10562000134403F5106319463B681B785A017B68E5
:10563000134403F510631B6843F400130B602FE061
:105640003B681B785A017B68134403F530631B6881
:10565000002B12DB3B681B785A017B68134403F56F
:10566000306319463B681B785A017B68134403F585
:1056700030631B6823F080430B603B681B785A0142
:105680007B68134403F5306319463B681B785A0165
:105690007B68134403F530631B6843F400130B600D
:1056A000002318460C37BD465DF8047B704700BFE9
:1056B00080B483B000AF786039603B685B78012BC1
:1056C0002ED13B681B785A017B68134403F51063A5
:1056D00019463B681B785A017B68134403F5106335
:1056E0001B6823F400130B603B68DB78032B03D0AB
:1056F0003B68DB78022B41D13B681B785A017B6801
:10570000134403F5106319463B681B785A017B6804
:10571000134403F510631B6843F080530B602DE0C6
:105720003B681B785A017B68134403F530631946C4
:105730003B681B785A017B68134403F530631B6890
:1057400023F400130B603B68DB78032B03D03B682A
:10575000DB78022B12D13B681B785A017B6813441B
:1057600003F5306319463B681B785A017B68134484
:1057700003F530631B6843F080530B600023184629
:105780000C37BD465DF8047B704700BF80B584B020
:1057900000AF78600023FB6014E0FB685A017B686F
:1057A000134403F510631A46FF239360FB685A0104
:1057B0007B68134403F530631A46FF239360FB684C
:1057C0000133FB60FB680E2BE7D97B6803F50063B0
:1057D0001A464FF0FF3393617B6803F500631A4666
:1057E000002313617B6803F500631A4600235361AD
:1057F0007B6803F500631A460023D3617868FFF7DE
:1058000053F878681021FFF729F80023184610375D
:10581000BD4680BD80B483B000AF78600B46FB709E
:105820007B6803F500631A467B6803F500631B6819
:1058300023F4FE6313607B6803F5006319467B68FD
:1058400003F500631A68FB781B0103F4FE6313433E
:105850000B60002318460C37BD465DF8047B70478B
:1058600080B582B000AF78607B6803F500631A46AC
:105870007B6803F500635B6823F002035360032039
:1058800000F072FF002318460837BD4680BD00BFF8
:1058900080B582B000AF78607B6803F500631A467C
:1058A0007B6803F500635B6843F0020353600320E9
:1058B00000F05AFF002318460837BD4680BD00BFE0
:1058C00080B485B000AF78600023FB607B685B69C3
:1058D000FB607B689B69FA681340FB60FB681846B5
:1058E0001437BD465DF8047B704700BF80B485B0B7
:1058F00000AF78607B6803F500639B69FB607B68A1
:1059000003F50063DB69FA681340FB60FB681B0C5E
:1059100018461437BD465DF8047B704780B485B0E7
:1059200000AF78607B6803F500639B69FB607B6870
:1059300003F50063DB69FA681340FB60FB689BB208
:1059400018461437BD465DF8047B704780B485B0B7
:1059500000AF78600B46FB70FB785A017B681344FC
:1059600003F530639B68FB607B6803F500635B694C
:10597000FA681340FB60FB6818461437BD465DF8B3
:10598000047B704780B487B000AF78600B46FB7033
:105990007B6803F500631B697B617B6803F500632B
:1059A0005B6B3B61FB783A6922FA03F3DB01DBB204
:1059B0007A6913437B61FB785A017B68134403F5D2
:1059C00010639A687B691340FB60FB6818461C37BC
:1059D000BD465DF8047B704780B483B000AF78604B
:1059E00039607B685A693B681A437B685A610C3797
:1059F000BD465DF8047B704780B483B000AF78602B
:105A00007B685B6903F0010318460C37BD465DF8FF
:105A1000047B704780B483B000AF78607B6803F587
:105A200010631A467B6803F510631B6823F4FF6359
:105A300023F0070313607B6803F500639B6803F0A2
:105A40000603042B0AD17B6803F510631A467B68B2
:105A500003F510631B6843F0030313607B6803F5D1
:105A600000631A467B6803F500635B6843F4807348
:105A70005360002318460C37BD465DF8047B704721
:105A800080B485B000AFF8600B467A60FB72FB68AB
:105A900003F530631A4600231361FB6803F5306396
:105AA0001A46FB6803F530631B6943F40023136156
:105AB000FB6803F530631A46FB6803F530631B6926
:105AC00043F018031361FB6803F530631A46FB6863
:105AD00003F530631B6943F0C0431361FB7A012B6C
:105AE0000CD1FB6803F530631A467B685361FB6891
