:020000040800F2
:10000000FFFF0120FD6601084967010849670108F3
:1000100049670108496701084967010800000000B5
:100020000000000000000000000000004967010817
:10003000496701080000000049670108690F0008CE
:1000400049670108496701084967010849670108CC
:1000500049670108496701084967010849670108BC
:1000600049670108496701084967010849670108AC
:10007000496701084967010849670108496701089C
:10008000496701084967010849670108496701088C
:10009000496701084967010849670108496701087C
:1000A000496701084967010849670108496701086C
:1000B000496701084967010849670108496701085C
:1000C000496701084967010849670108496701084C
:1000D000496701084967010849670108496701083C
:1000E000496701084967010849670108496701082C
:1000F000496701084967010849670108496701081C
:10010000496701084967010849670108496701080B
:100110004967010849670108A133000849670108D8
:1001200049670108496701084967010849670108EB
:1001300049670108496701084967010849670108DB
:10014000496701084967010849670108790F0008F4
:1001500049670108496701084967010849670108BB
:1001600049670108496701084967010849670108AB
:100170004967010849670108496701080000000054
:08018000496701084967010805
:1001880080B500AF094B0A4A1A60084B1B6818462D
:100198000849002216F020FA044B1B681846064945
:1001A80016F034FA00235BB2184680BD740B0020A9
:1001B800900F00207C0B0020780B002080B400AF4B
:1001C80000235BB21846BD465DF8047B704700BF4C
:1001D80080B483B000AF03463960FB711346BB801F
:1001E800FB79232B4AD801A252F823F08502000894
:1001F80085020008850200088502000885020008BB
:1002080085020008850200088502000885020008AA
:10021800850200088502000885020008850200089A
:10022800850200088502000885020008850200088A
:10023800850200088502000885020008850200087A
:10024800850200088502000885020008850200086A
:10025800850200088502000885020008850200085A
:10026800850200088502000885020008850200084A
:1002780085020008850200088502000800BF0023E7
:100288005BB218460C37BD465DF8047B704700BF6B
:1002980080B582B000AF786039600C4B1B68184697
:1002A800796816F0B3F9094B1B68184616F0ECF993
:1002B8003B681B689BB27868194600F009F8002370
:1002C8005BB218460837BD4680BD00BF740B0020DE
:1002D80080B584B000AF78600B467B800023FB7349
:1002E8000F4B1B68D3F81832BB60BB68D3F81432C5
:1002F800002B01D001230FE0094B1A687B881046B8
:1003080079681A4616F068F9054B1B68184616F006
:1003180091F90346FB73FB7B18461037BD4680BD39
:10032800740B002080B588B000AF78607B681B68CC
:10033800B3F1A04F2CD14FF4C053FB6002233B61B3
:1003480000237B610323BB610A23FB6107F10C03D4
:100358001148194605F05CFD104A104B5B6B43F0E1
:10036800800353630023BB600C4A0C4B5B6C43F463
:1003780080435364094B5B6C03F48043BB60BB68E8
:100388004320002100220CF09FFE43200CF0B8FE11
:100398002037BD4680BD00BF000002400038024043
:1003A80080B582B000AF78607B681B68B3F1A04F5E
:1003B8000DD1084A074B5B6B23F080035363064853
:1003C8004FF4C05105F0C2FE43200CF0A7FE0837D9
:1003D800BD4680BD003802400000024080B582B0B2
:1003E80000AF78607B68D3F8B4237B6803F561734A
:1003F8001046194614F066FF0837BD4680BD00BF99
:1004080080B582B000AF78600B46FB707B68D3F88C
:10041800B403FA7879681346DB009B1A9B000B44F7
:1004280003F5F0739B68FA7811461A4614F094FFA6
:100438000837BD4680BD00BF80B582B000AF786088
:100448000B46FB707B68D3F8B403FA7879681346D7
:10045800DB009B1A9B000B4440335B68FA7811461B
:100468001A4614F0D5FF0837BD4680BD80B582B066
:1004780000AF78607B68D3F8B433184615F0C0F83D
:100488000837BD4680BD00BF80B584B000AF786036
:100498000123FB737B68DB68002B02D0022B03D09F
:1004A80005E00023FB7305E00123FB7302E0012351
:1004B800FB7300BF7B68D3F8B423FB7B1046194657
:1004C80015F066F87B68D3F8B433184615F030F8A1
:1004D8001037BD4680BD00BF80B582B000AF7860E0
:1004E8007B68D3F8B433184615F062F87B681B684C
:1004F80003F560631A467B681B6803F560631B6835
:1005080043F0010313607B681B6A002B05D0044A83
:10051800034B1B6943F0060313610837BD4680BDD2
:1005280000ED00E080B582B000AF78607B68D3F85A
:10053800B433184615F052F80837BD4680BD00BFE1
:1005480080B582B000AF78600B46FB707B68D3F84B
:10055800B423FB781046194615F07AF80837BD46DB
:1005680080BD00BF80B582B000AF78600B46FB70DD
:100578007B68D3F8B423FB781046194615F05AF86F
:100588000837BD4680BD00BF80B582B000AF786037
:100598007B68D3F8B433184615F068F80837BD46B9
:1005A80080BD00BF80B582B000AF78607B68D3F8AB
:1005B800B433184615F066F80837BD4680BD00BF4D
:1005C80080B582B000AF78607B681B78002B3AD189
:1005D8001F4A7B68C2F8B4337B681D4AC3F82022DF
:1005E8001B4B4FF0A0421A60194B07225A60184B58
:1005F8000222DA60164B00221A61154B00225A615A
:10060800134B02229A61124B0022DA61104B00222E
:100618001A620F4B00225A620D4B0122DA620C4B10
:1006280000221A630A4801F0E1FC0948802105F01C
:1006380067FF07480021402205F016FF0448012102
:10064800802205F011FF002318460837BD4680BDFB
:10065800800B002080B582B000AF78607B68D3F84B
:100668002032184601F0CAFD002318460837BD4657
:1006780080BD00BF80B582B000AF78607B68D3F8DA
:100688002032184601F0EAFD002318460837BD4617
:1006980080BD00BF80B582B000AF78607B68D3F8BA
:1006A8002032184601F0FCFD002318460837BD46E5
:1006B80080BD00BF80B582B000AF786008461146A3
:1006C8001A460346FB700B46BB7013463B807B689B
:1006D800D3F82002F9783A88BB7802F0ADFA002303
:1006E80018460837BD4680BD80B582B000AF786037
:1006F8000B46FB707B68D3F82022FB78104619461E
:1007080002F002FB002318460837BD4680BD00BF33
:1007180080B582B000AF78600B46FB707B68D3F879
:100728002022FB781046194602F0AEFC002318463A
:100738000837BD4680BD00BF80B582B000AF786085
:100748000B46FB707B68D3F82022FB7810461946CD
:1007580002F0F4FB002318460837BD4680BD00BFF1
:1007680080B582B000AF78600B46FB707B68D3F829
:100778002022FB781046194602F03CFC002318465C
:100788000837BD4680BD00BF80B485B000AF786033
:100798000B46FB707B68D3F82032FB60FB785BB2BA
:1007A800002B0BDAFB7803F07F02F9681346DB00B5
:1007B8009B1A9B000B4438339B780BE0FB7803F0C3
:1007C8007F02F9681346DB009B1A9B000B4403F574
:1007D800EC739B7918461437BD465DF8047B704767
:1007E80080B582B000AF78600B46FB707B68D3F8A9
:1007F8002022FB781046194602F0FCF9002318461F
:100808000837BD4680BD00BF80B584B000AFF86032
:100818007A601A460B46FB7213463B81FB68D3F895
:1008280020123B89FA7A084611467A6802F02CFBB6
:10083800002318461037BD4680BD00BF80B584B080
:1008480000AFF8607A601A460B46FB7213463B818C
:10085800FB68D3F820123B89FA7A084611467A6871
:1008680002F09CFA002318461037BD4680BD00BF31
:1008780080B582B000AF78600B46FB707B68D3F818
:100888002022FB781046194602F0E4FA034618467F
:100898000837BD4680BD00BF80B582B000AF786024
:1008A800786804F0D1FE0837BD4680BD80B584B0B5
:1008B80000AF7860154B1B68002B02D1134B144A0C
:1008C8001A60124B1B68FB60124B1B681B68BB60ED
:1008D800BB68A3F50073BB600C4B1A687B681A44AD
:1008E800BB689A4207D915F02DFF02460C23136006
:1008F8004FF0FF3306E0054B1A687B681344034A40
:100908001360FB6818461037BD4680BD940A002066
:100918006C16002008ED00E080B483B000AF78606A
:1009280039603B68002B05D03B6800221A603B68A1
:1009380000225A60002318460C37BD465DF8047B38
:10094800704700BF80B400AFBD465DF8047B7047B8
:1009580080B400AF01231846BD465DF8047B70479C
:1009680080B582B000AF7860396015F0EBFE0246C2
:10097800162313604FF0FF3318460837BD4680BD75
:1009880080B582B000AF786078684FF0FF31FFF72C
:10099800E7FFFEE780B586B000AFF860B9607A601F
:1009A80000237B6109E0BB685A1CBA601B781846B3
:1009B800AFF300807B6901337B617A697B689A4277
:1009C800F1DB7B6818461837BD4680BD80B483B01C
:1009D80000AF78604FF0FF3318460C37BD465DF81E
:1009E800047B704780B483B000AF786039603B689F
:1009F8004FF400525A60002318460C37BD465DF884
:100A0800047B704780B483B000AF78600123184638
:100A18000C37BD465DF8047B704700BF80B485B0D5
:100A280000AFF860B9607A60002318461437BD46F5
:100A38005DF8047B704700BF90B587B000AFF860E1
:100A4800B9607A6000237B610AE0BC68631CBB6004
:100A5800AFF300800346DBB223707B6901337B610F
:100A68007A697B689A42F0DB7B6818461C37BD467A
:100A780090BD00BF0EB480B482B000AF78604FF074
:100A8800FF3318460837BD465DF8047B03B070474E
:100A980080B582B000AF786015F054FE02460A2394
:100AA80013604FF0FF3318460837BD4680BD00BFBE
:100AB80080B582B000AF786015F044FE024602238C
:100AC80013604FF0FF3318460837BD4680BD00BF9E
:100AD80080B483B000AF78604FF0FF3318460C370E
:100AE800BD465DF8047B704780B483B000AF786082
:100AF80039603B684FF400525A60002318460C379F
:100B0800BD465DF8047B704780B582B000AF786061
:100B1800396015F017FE02461F2313604FF0FF33AC
:100B280018460837BD4680BD80B500AF15F00AFEEF
:100B380002460B2313604FF0FF33184680BD00BFF9
:100B480080B584B000AFF860B9607A6015F0FAFD3E
:100B580002460C2313604FF0FF3318461037BD468A
:100B680080BD00BF80B500AF07200CF0A3FA6FF07E
:100B78000B00002100220CF0A7FA6FF00A000021F8
:100B880000220CF0A1FA6FF00900002100220CF0FD
:100B98009BFA6FF00300002100220CF095FA4FF049
:100BA800FF30002100220CF08FFA80BD80B483B0A2
:100BB80000AF00237B600F4A0E4B1B6B43F0800392
:100BC80013630C4B1B6B03F080037B607B68002373
:100BD8003B60084A074B1B6B43F001031363054B4B
:100BE8001B6B03F001033B603B680C37BD465DF8A7
:100BF800047B70470038024080B588B000AF0023FE
:100C0800BB601F4A1E4B1B6B43F0010313631C4B55
:100C18001B6B03F00103BB60BB6802233B6100232D
:100C28007B610123BB610223FB610223FB6007F1A7
:100C38000C031448194605F0EBF800237B60104AB2
:100C48000F4B1B6C43F0080313640D4B1B6C03F034
:100C580008037B607B680C4B4FF4D0429A610A4BC7
:100C680006229A62084B4EF66022DA62064B002290
:100C78009A63054B80221A602037BD4680BD00BFAD
:100C88000038024000000240000C004080B400AF71
:100C9800064A064B1B6A43F010031362034B0122FA
:100CA8001A60BD465DF8047B704700BF000C004029
:100CB80080B400AF074A074B1B6A23F01003136286
:100CC800044A044B1B6823F001031360BD465DF81A
:100CD800047B7047000C004080B483B000AF03462B
:100CE800FB80044AFB8893630C37BD465DF8047BA0
:100CF800704700BF000C004080B588B000AF0123EA
:100D08003B6100237B610323BB610823FB6007F180
:100D18000C032B48194605F07BF8294808210122C5
:100D280005F02EFB0023BB60264A264B1B6B43F0C5
:100D380001031363234B1B6B03F00103BB60BB6808
:100D480000237B601F4A1F4B1B6B43F00103136397
:100D58001C4B1B6B03F001037B607B6800233B602B
:100D6800184A184B1B6B43F001031363154B1B6B9D
:100D780003F001033B603B6802233B6101237B6175
:100D88000223BB610523FB610823FB6007F10C0309
:100D98000D48194605F03CF88023FB6007F10C0369
:100DA8000948194605F034F82023FB6007F10C03C5
:100DB8000548194605F02CF82037BD4680BD00BF10
:100DC80000100240003802400000024080B582B0A6
:100DD80000AF04F0A9FB00F061F8FFF7E7FE00F0B0
:100DE800CFF8012013F01AFD012013F08FFD002029
:100DF80013F014FD002013F0A3FD022013F00EFDE4
:100E0800022013F09DFD382000F01CFB002000217B
:100E180000F0D0FC1F480121002200F08DFD00F0F9
:100E28002FFCFFF7E9FE47F23050FFF755FFFFF7B9
:100E38002DFF0123FB8001237B71174B93F8FC31B5
:100E4800032B03D1002013F061FD02E0002013F012
:100E580077FDFA2004F0F8FB022013F08BFDFB88E5
:100E68001846FFF739FF7B79002B03D0FB885B001E
:100E7800FB8002E0FB885B08FB80FB88B3F5004F32
:100E880001D100237B71FB88012B01D101237B71E8
:100E9800D3E700BFD06F0108900F002080B594B051
:100EA80000AF0023BB602B4A2A4B1B6C43F08053D6
:100EB8001364284B1B6C03F08053BB60BB68002392
:100EC8007B60254A244B1B6843F480431360224B04
:100ED8001B6803F480437B607B6801233B6201232A
:100EE8007B620223BB634FF48003FB6304233B64F0
:100EF80048237B640223BB640323FB6407F12003BC
:100F0800184612F02BFB0F23FB6002233B610023E2
:100F18007B614FF48053BB610023FB6107F10C0335
:100F28001846022112F02CFD12F01AFF02460B4B54
:100F3800A3FB02239B0918460CF004F904200CF0CB
:100F4800ABF94FF0FF30002100220CF0BDF850370C
:100F5800BD4680BD0038024000700040D34D62108D
:100F680080B500AF04F056FB0CF0B2F980BD00BFAD
:100F780080B500AF014801F0BBF980BD800B0020AF
:100F880080B500AF08480949002214F0D5F8064892
:100F9800074914F01BF90448064915F005FB0248F7
:100FA80014F02EF980BD00BF900F00201000002023
:100FB800540100200000002080B483B000AF034635
:100FC8003960FB713B6812221A80034B18460C37B4
:100FD800BD465DF8047B70472C00002080B483B0C8
:100FE80000AF03463960FB713B6804221A80034B4B
:100FF80018460C37BD465DF8047B7047400000205A
:1010080080B582B000AF03463960FB71FB79002BD5
:1010180005D1084808493A6814F056FF04E0054825
:1010280005493A6814F050FF034B18460837BD4687
:1010380080BD00BFE46F0108B411002080B582B004
:1010480000AF03463960FB71044805493A6814F05B
:101058003BFF034B18460837BD4680BDFC6F0108AF
:10106800B411002080B582B000AF03463960FB712F
:10107800FB79002B05D1084808493A6814F024FF89
:1010880004E0054805493A6814F01EFF034B18466A
:101098000837BD4680BD00BF10700108B41100209C
:1010A80080B582B000AF03463960FB71FB79002B35
:1010B80005D1084808493A6814F006FF04E00548D5
:1010C80005493A6814F000FF034B18460837BD4637
:1010D80080BD00BF20700108B411002080B582B027
:1010E80000AF03463960FB71FB79002B05D1084836
:1010F80008493A6814F0E8FE04E0054805493A68EA
:1011080014F0E2FE034B18460837BD4680BD00BF09
:101118002C700108B411002080B594B000AF0023F2
:10112800FB618C4A8B4B1B6B43F002031363894BA7
:101138001B6B03F00203FB61FB690023BB61854A5B
:10114800844B1B6B43F002031363824B1B6B03F04E
:101158000203BB61BB6900237B617E4A7D4B1B6B2D
:1011680043F0020313637B4B1B6B03F002037B61A9
:101178007B6900233B61774A764B1B6B43F0020384
:101188001363744B1B6B03F002033B613B69002341
:10119800FB60704A6F4B1B6B43F0020313636D4B8C
:1011A8001B6B03F00203FB60FB680023BB60694A0A
:1011B800684B1B6B43F008031363664B1B6B03F010
:1011C8000803BB60BB6801233B6400237B640323E3
:1011D800BB640223FB644FF40063FB6307F13C0329
:1011E8005D48194604F014FE4FF48043FB6307F191
:1011F8003C035948194604F00BFE4FF48053FB6337
:1012080007F13C035448194604F002FE52484FF4D3
:101218008051012205F0B4F802233B6401237B646A
:101228000223BB640523FB644FF40053FB6307F1FF
:101238003C034948194604F0EBFD4FF40043FB63B7
:1012480007F13C034448194604F0E2FD02233B64DD
:1012580000237B640323BB640223FB644FF48053A5
:10126800FB6307F13C033D48194604F0D1FD002318
:101278007B60384A374B1B6C43F004031364354BCF
:101288001B6C03F004037B607B68354B354A1A609E
:10129800334B02225A60324B00229A60304B4FF691
:1012A800FF72DA602E4B00221A612D4B00225A6120
:1012B8002B480EF0BFFD60233B6200237B620023B6
:1012C800BB6200233B6300237B6307F120032448B0
:1012D8001946002210F038FB214800210EF01AFEB2
:1012E80000233B601B4A1B4B1B6C43F48043136475
:1012F800184B1B6C03F480433B603B681A4B1B4A3A
:101308001A60194B4FF482725A60174B00229A6088
:10131800154B0022DA60144B00221A61124B00228E
:101328005A61114B4FF400729A610F4B2022DA6117
:101338000D4B00221A620C4B00225A620A4B002203
:101348009A62094B0722DA62074805F0EBF8503732
:10135800BD4680BD0038024000040240000C024037
:10136800540F002000080040B0150020003800404D
:1013780080B582B000AF0346FB710B484FF4805133
:10138800002204F0FDFFFB1D0848194601224FF416
:101398007A7305F06DF904484FF48051012204F086
:1013A800EFFF0837BD4680BD00040240B01500209D
:1013B80080B582B000AF03460A46FB711346BB7185
:1013C800FB79012B02D0022B11D021E0BB79002B35
:1013D80006D011484FF48041012204F0D1FF17E0F4
:1013E8000D484FF48041002204F0CAFF10E0BB7999
:1013F800002B06D008484FF40061012204F0C0FF1A
:1014080005E005484FF40061002204F0B9FF00BF71
:101418000837BD4680BD00BF0004024080B485B0D7
:1014280000AF78600023FB6002E0FB680133FB60DB
:10143800FA687B689A42F8D31437BD465DF8047B96
:10144800704700BF80B582B000AF0346FB71FFF75D
:1014580063FE02200021FFF7ABFF42F21070FFF796
:10146800DDFF02200121FFF7A3FF0020212100F06A
:1014780025F80020142100F021F8FB795BB2002B3D
:1014880001DA7F23FB71FB7963F07F03DBB2002075
:10149800194600F013F80020202100F00FF8002072
:1014A8000C2100F00BF800F0DFF800200C2100F010
:1014B80005F800F0B3F80837BD4680BD80B582B0A6
:1014C80000AF03460A46FB711346BB71FB79002B3C
:1014D80007D0012B00D009E001200121FFF768FFA8
:1014E80004E001200021FFF763FF00BFBB79184625
:1014F800FFF73EFF0837BD4680BD00BF80B582B00C
:1015080000AF0346FB7100202121FFF7D7FFFB79CD
:101518005BB2002B01DA7F23FB71FB7963F07F0359
:10152800DBB200201946FFF7C9FF00202021FFF792
:10153800C5FF0837BD4680BD80B582B000AF034601
:10154800FB710B46BB7113467B71FB79532B00D99A
:101558004BE0BB792F2B00D947E07B79002B1ED0BD
:10156800FA79BB79DB08D8B20146542303FB01F3AF
:101578001344F979542202FB00F20A441C498A5C9C
:10158800D0B2BA7902F00702012101FA02F2D2B20E
:1015980001460A43D2B2D1B2154AD1541FE0FA79B2
:1015A800BB79DB08D8B20146542303FB01F313448B
:1015B800F979542202FB00F20A440D498A5CD0B240
:1015C800BA7902F00702012101FA02F2D2B2D2433B
:1015D800D2B201460A40D2B2D1B2054AD154F87902
:1015E800B979FA79BB7900F0A9F80837BD4680BD0A
:1015F800B813002080B582B000AF0346FB71FB79B9
:10160800012B04D000200D21FFF758FF03E0002034
:101618000C21FFF753FF0837BD4680BD80B582B067
:1016280000AF00F021F800237B6007E00D4A7B68DB
:10163800134400221A707B6801337B607B68B3F522
:10164800FC7FF3D30020002100F0B4F80020002133
:1016580053222F2300F072F800F012F80837BD4625
:1016680080BD00BFB813002080B500AF00208021E6
:10167800FFF724FF00204021FFF720FF80BD00BFB7
:1016880080B582B000AF0023FB713BE0264B1B788E
:101698001A46FB790133DB009A4200DD2FE0FB7923
:1016A800DB00224A1278934200DD2EE0FB7943F0FA
:1016B8004003DBB200201946FFF700FF1C4B1B78E4
:1016C80063F07F03DBB200201946FFF7F7FE184BE3
:1016D8001B78BB710EE0FB79542202FB03F2BB7945
:1016E8001344144AD35C01201946FFF7E7FEBB797F
:1016F8000133BB71104B1B78BA799A42EBD9FB794D
:101708000133FB71FB79052BC0D9094B53221A70A1
:10171800094B00221A70044B2F221A70034B002227
:101728001A700837BD4680BD9A0A00209B0A00201F
:10173800980A0020B8130020990A002090B482B0BB
:1017480000AF0446084611461A462346FB71034675
:10175800BB710B467B7113463B71124B1B78FA79B0
:101768009A4202D20F4AFB7913700F4B1B787A7991
:101778009A4202D90C4A7B7913700C4B1B78BA79C0
:101788009A4202D2094ABB791370094B1B783A79FD
:101798009A4202D9064A3B7913700837BD4690BC75
:1017A800704700BF980A0020990A00209A0A002072
:1017B8009B0A002080B483B000AF03460A46FB7141
:1017C8001346BB71054AFB791370054ABB79137040
:1017D8000C37BD465DF8047B704700BFB513002089
:1017E800B413002080B584B000AF0346FB710B46EC
:1017F800BB7113467B717B79012B04D10423BB7326
:101808000623FB7303E00623BB730823FB73464BD5
:101818001B781A46BB7B1344542B09DD434B1A78BB
:10182800FB7B1344DAB2414B1A703F4B00221A700B
:1018380000237B736AE0FB791F2B1CD97B79012B72
:101848000CD1FB79A3F12002797B394813465B0060
:1018580013440B4403441B783B730CE0FB79A3F15E
:101868002002797B334813465B0013445B000B442A
:1018780003441B783B733B7B002B06D1FB79002B81
:1018880003D0FB79202B00D03DE00023FB7230E031
:10189800BB79012B15D1244B1878244B1A78FB7A85
:1018A8001344D9B23A7BFB7A42FA03F303F00103FB
:1018B800002B14BF01230023DBB21A46FFF73CFEBE
:1018C80014E0194B1878194B1A78FB7A1344D9B2DB
:1018D8003A7BFB7A42FA03F303F00103002B0CBFB7
:1018E80001230023DBB21A46FFF726FEFB7A0133F9
:1018F800FB72FA7AFB7B9A42CAD30B4B1B780133F3
:10190800DAB2094B1A707B7B01337B737A7BBB7B22
:10191800013B9A428FDB044B1B780133DAB2024B4E
:101928001A701037BD4680BDB5130020B4130020CF
:10193800847201083C70010880B582B000AF7860FD
:101948000B46FB701346BB700AE07B685A1C7A6032
:101958001978FA78BB78084611461A46FFF742FF0D
:101968007B681B78002BF0D10837BD4680BD00BFCF
:1019780090B585B000AF0446084611461A4623467E
:10198800FB710346BB710B467B7113463B71FA79B9
:101998007B799A4205D97B79FB81FB797B71FB893D
:1019A800FB71BA793B799A4205D93B79FB81BB79BE
:1019B8003B71FB89BB717B799AB2FB799BB2D31AD5
:1019C8009BB2BB813B799AB2BB799BB2D31A9BB2CB
:1019D8007B81B7F90C30002B10D1F979BA7997F8D7
:1019E8002030084611461A46FFF7A6FDBB79013399
:1019F800BB713A79BB799A42EFD293E0B7F90A30D2
:101A0800002B10D1F979BA7997F820300846114699
:101A18001A46FFF791FDFB790133FB717A79FB795F
:101A28009A42EFD27EE0B7F90C20B7F90A309A4211
:101A38003CDD7B895B009AB2BB89D31A9BB2FB81E0
:101A480026E0F979BA7997F82030084611461A46FF
:101A5800FFF772FDFB790133FB71B7F90E30002BEC
:101A68000FDDBB790133BB71B7F90A20B7F90C3028
:101A7800D31A9BB25B009AB2FB8913449BB2FB81D9
:101A880006E07B895B009AB2FB8913449BB2FB8119
:101A9800FA797B799A42D4D1F979BA7997F82030D2
:101AA800084611461A46FFF747FD3BE0BB895B0035
:101AB8009AB27B89D31A9BB2FB8126E0F979BA796D
:101AC80097F82030084611461A46FFF735FDBB79CE
:101AD8000133BB71B7F90E30002B0FDDFB790133F1
:101AE800FB71B7F90A20B7F90C30D31A9BB25B0027
:101AF8009AB2FB8913449BB2FB8106E07B895B00A9
:101B08009AB2FB8913449BB2FB81BA793B799A421A
:101B1800D4D1F979BA7997F82030084611461A468F
:101B2800FFF70AFD1437BD4690BD00BF90B585B0DC
:101B380002AF0446084611461A462346FB7103467F
:101B4800BB710B467B7113463B71F879B9797A7989
:101B5800BC793B7E00932346FFF70AFFF879B979F1
:101B6800FA793C793B7E00932346FFF701FF7879A9
:101B7800B9797A793C793B7E00932346FFF7F8FEE2
:101B8800F87939797A793C793B7E00932346FFF7D7
:101B9800EFFE0C37BD4690BD90B585B002AF044648
:101BA800084611461A462346FB710346BB710B468D
:101BB8007B7113463B710BE0F879B9797A79BC7976
:101BC8003B7E00932346FFF7D3FEBB790133BB71FD
:101BD800BA793B799A42EFD30C37BD4690BD00BF26
:101BE80090B587B000AF0446084611461A4623460A
:101BF800FB710346BB710B467B7113463B717B79C6
:101C08009BB2C3F101039BB2FB820123BB827B79A8
:101C18009BB21A46D203D31A5B009BB27B82002385
:101C28003B827B79FB81BA797B791344DAB2F97903
:101C38003B79084611461A46FFF77EFCBA797B794C
:101C4800D31ADAB2F9793B79084611461A46FFF7F2
:101C580073FCFA797B791344D9B2BA793B7908468F
:101C680011461A46FFF768FCFA797B79D31AD9B27C
:101C7800BA793B79084611461A46FFF75DFC9FE0A2
:101C8800B7F91630002B0DDBFB899BB2013B9BB2E9
:101C9800FB817B8A02339BB27B82FA8A7B8A13445C
:101CA8009BB2FB823B8A9BB201339BB23B82BB8ACD
:101CB80002339BB2BB82FA8ABB8A13449BB2FB8273
:101CC8003B8ADAB2FB791344D9B2FB89DAB2BB7921
:101CD8001344DAB23B79084611461A46FFF72CFC42
:101CE8003B8ADBB2FA79D31AD9B2FB89DAB2BB796B
:101CF8001344DAB23B79084611461A46FFF71CFC32
:101D08003B8ADAB2FB791344D9B2FB89DBB2BA79E0
:101D1800D31ADAB23B79084611461A46FFF70CFC8B
:101D28003B8ADBB2FA79D31AD9B2FB89DBB2BA792A
:101D3800D31ADAB23B79084611461A46FFF7FCFB7C
:101D4800FB89DAB2FB791344D9B23B8ADAB2BB79A0
:101D58001344DAB23B79084611461A46FFF7ECFB02
:101D6800FB89DBB2FA79D31AD9B23B8ADAB2BB79EA
:101D78001344DAB23B79084611461A46FFF7DCFBF2
:101D8800FB89DAB2FB791344D9B23B8ADBB2BA7960
:101D9800D31ADAB23B79084611461A46FFF7CCFB4C
:101DA800FB89DBB2FA79D31AD9B23B8ADBB2BA79AA
:101DB800D31ADAB23B79084611461A46FFF7BCFB3C
:101DC800B7F91020B7F90E309A42FFF659AF1C3711
:101DD800BD4690BDB0B588B002AF0446084611466E
:101DE8001A462346FB710346BB710B467B711346AB
:101DF8003B717B799BB2C3F101039BB2FB82012348
:101E0800BB827B799BB21A46D203D31A5B009BB282
:101E18007B8200233B827B79FB81BA797B791344EF
:101E2800DAB2F9793B79084611461A46FFF784FB7E
:101E3800BA797B79D31ADAB2F9793B79084611462F
:101E48001A46FFF779FBFA797B791344D9B2BA7944
:101E58003B79084611461A46FFF76EFBFA797B79FB
:101E6800D31AD9B2BA793B79084611461A46FFF710
:101E780063FBFA797B79D31AD8B2FA797B79134460
:101E8800DAB2B979BC793B7900932346FFF770FD44
:101E980087E0B7F91630002B0DDBFB899BB2013BBD
:101EA8009BB2FB817B8A02339BB27B82FA8A7B8A54
:101EB80013449BB2FB823B8A9BB201339BB23B82A9
:101EC800BB8A02339BB2BB82FA8ABB8A13449BB299
:101ED800FB823B8ADBB2FA79D31AD8B2FB89DAB231
:101EE800BB791344D9B23B8ADAB2FB791344DDB229
:101EF800FB89DAB2BB791344DCB23B7900932A46FA
:101F08002346FFF735FD3B8ADAB2FB791344D8B292
:101F1800FB89DBB2BA79D31AD9B23B8ADBB2FA7938
:101F2800D31ADDB2FB89DBB2BA79D31ADCB23B79BA
:101F380000932A462346FFF71BFDFB89DAB2FB799B
:101F48001344D8B23B8ADAB2BB791344D9B2FB89BD
:101F5800DBB2FA79D31ADDB23B8ADAB2BB79134421
:101F6800DCB23B7900932A462346FFF701FDFB8943
:101F7800DAB2FB791344D8B23B8ADBB2BA79D31A06
:101F8800D9B2FB89DBB2FA79D31ADDB23B8ADBB26C
:101F9800BA79D31ADCB23B7900932A462346FFF775
:101FA800E7FCB7F91020B7F90E309A42FFF671AF87
:101FB8001837BD46B0BD00BF80B483B000AF03463C
:101FC800FB71FB79642B01D96423FB71054B1B68FA
:101FD800FA79054931F812205A630C37BD465DF885
:101FE800047B7047540F002044000020F0B58FB0E8
:101FF8000AAF78600023FB607B68002B01D10123C6
:10200800F7E07B68032283F881237868FEF78AF972
:102018007B681B68184601F02BFA7B68D3F800E050
:102028007E686D4606F110040FCC0FC50FCC0FC5A6
:1020380094E8030085E80300331D0ECB704601F0D9
:10204800B3F97B681B681846002101F023FA0023C6
:10205800FB604CE07968FA681346DB009B1A9B002A
:102068000B44383301225A70FB68D8B27968FA6891
:102078001346DB009B1A9B000B44383302461A7048
:10208800FB6898B27968FA681346DB009B1A9B00D4
:102098000B4438330246DA807968FA681346DB0065
:1020A8009B1A9B000B4438330022DA707968FA686F
:1020B8001346DB009B1A9B000B44403300221A6036
:1020C8007968FA681346DB009B1A9B000B4440337F
:1020D80000225A607968FA681346DB009B1A9B0055
:1020E8000B44483300225A60FB680133FB60FB68ED
:1020F8000E2BAFD90023FB605AE07968FA681346C3
:10210800DB009B1A9B000B4403F5EC7300225A7109
:10211800FB68D8B27968FA681346DB009B1A9B0003
:102128000B4403F5EC7302461A71FB6898B27968A0
:10213800FA681346DB009B1A9B000B4438330246AF
:10214800DA807968FA681346DB009B1A9B000B4417
:1021580003F5EC730022DA717968FA681346DB003C
:102168009B1A9B000B4403F5F07300225A607968B0
:10217800FA681346DB009B1A9B000B4403F5F073C7
:1021880000229A607968FA681346DB009B1A9B0064
:102198000B4403F5F47300229A607B681A68FB68A5
:1021A80040339B00134400225A60FB680133FB60F4
:1021B800FB680E2BA1D97B68D3F800E07E686D46DA
:1021C80006F110040FCC0FC50FCC0FC594E803001F
:1021D80085E80300331D0ECB704601F083F97B6858
:1021E800012283F881237B681B68184602F0C0FA35
:1021F800002318461437BD46F0BD00BF80B582B035
:1022080000AF78607B68002B01D101230EE07B686A
:10221800032283F88123786800F042F87868FEF793
:10222800BFF87B68002283F881230023184608370B
:10223800BD4680BD80B483B000AF78600C37BD4622
:102248005DF8047B704700BF80B483B000AF78604E
:102258000C37BD465DF8047B704700BF80B582B07F
:1022680000AF78607B6893F88033012B01D102239B
:1022780012E07B68012283F880237B681B6818467C
:1022880002F05EFA7B681B68184601F0DFF87B688D
:10229800002283F88023002318460837BD4680BDF6
:1022A80080B582B000AF78607B6893F88033012BEB
:1022B80001D1022317E07B68012283F880237B6821
:1022C8001B68184601F0D4F87B681B68184602F0B2
:1022D800CDF97B681B68184602F04AFA7B68002231
:1022E80083F88023002318460837BD4680BD00BF09
:1022F80080B58AB000AF78607B681B68BB6100233B
:102308007B6200233B6200237B610023FB61002387
:102318003B610023FB607B681B68184602F0DCFA0F
:102328000346002B40F0B0837B681B68184602F018
:1023380037FA0346002B00D1A6E37B681B681846D2
:1023480002F02EFA034603F00203002B07D07B6845
:102358001B687A681268526902F002025A617B6847
:102368001B68184602F01CFA034603F40023002BEE
:1023780000F0B3800023FB617B681B68184602F0FD
:1023880025FA3862A5E03B6A03F00103002B00F050
:102398009A807B681A68FB69DBB21046194602F01E
:1023A80045FA78617B6903F00103002B6CD0FB6967
:1023B8005A01BB69134403F530631A46012393603D
:1023C8007B681B69012B3CD17968FA691346DB00ED
:1023D8009B1A9B000B4403F5F0735A68FB6959017B
:1023E800BB690B4403F530631B69C3F31203D11AAD
:1023F8007868FA691346DB009B1A9B00034403F5CF
:10240800F87359607968FA691346DB009B1A9B00D8
:102418000B4403F5F07399687868FA691346DB0092
:102428009B1A9B00034403F5F0735B6819447868B2
:10243800FA691346DB009B1A9B00034403F5F0730B
:102448009960FB69DBB278681946FDF7D9FF7B68AC
:102458001B69012B18D1FB69002B15D17968FA6922
:102468001346DB009B1A9B000B4403F5F4739B682F
:10247800002B09D17B681A687B6803F561731046E5
:1024880001211A4602F06CFA7B6903F00803002B5D
:102498000BD07868FDF7A2FFFB695A01BB691344AA
:1024A80003F530631A46082393607B6903F0100331
:1024B800002B08D0FB695A01BB69134403F530634C
:1024C8001A4610239360FB690133FB613B6A5B0882
:1024D8003B623B6A002B7FF456AF7B681B6818464B
:1024E80002F05EF9034603F48023002B00F0C48059
:1024F8007B681B68184602F081F938620023FB618B
:10250800B6E03B6A03F00103002B00F0AB807B6868
:102518001A68FB69DBB21046194602F0A3F9786124
:102528007B6903F00103002B5BD0FB69012202FAEF
:1025380003F33B61BB6903F500631946BB6903F507
:1025480000635A6B3B69DB4313404B63FB695A01D9
:10255800BB69134403F510631A46012393607B6833
:102568001B69012B1BD17968FA691346DB009B1A9A
:102578009B000B44403359687868FA691346DB00BE
:102588009B1A9B00034440331B6819447868FA6916
:102598001346DB009B1A9B00034440335960FB69D8
:1025A800DBB278681946FDF747FF7B681B69012B8A
:1025B80017D1FB69002B14D17968FA691346DB003F
:1025C8009B1A9B000B4448335B68002B09D17B683E
:1025D8001A687B6803F56173104601211A4602F0F8
:1025E800BFF97B6903F00803002B08D0FB695A0187
:1025F800BB69134403F510631A46082393607B698B
:1026080003F01003002B08D0FB695A01BB6913447F
:1026180003F510631A46102393607B6903F04003A7
:10262800002B08D0FB695A01BB69134403F51063FA
:102638001A46402393607B6903F00203002B08D0FD
:10264800FB695A01BB69134403F510631A46022358
:1026580093607B6903F08003002B03D07868F969E5
:1026680000F08AFDFB690133FB613B6A5B083B6252
:102678003B6A002B7FF445AF7B681B68184602F065
:102688008FF80346002B15DABB6903F500631A4679
:10269800BB6903F500635B6823F001035360786846
:1026A800FDF740FF7B681B687A681268526902F080
:1026B80000425A617B681B68184602F071F80346AD
:1026C80003F40063002B12D0BB6903F500639B6819
:1026D80003F00103002B02D07868FDF7FDFE7B684C
:1026E8001B687A681268526902F400625A617B6852
:1026F8001B68184602F054F8034603F48053002B75
:1027080000F09380BB6903F500631A46BB6903F5C3
:1027180000635B6823F0010353607B681B681846FD
:10272800002101F00BF800237B6214E07B6A5A0158
:10273800BB69134403F510631A46FF2393607B6A51
:102748005A01BB69134403F530631A46FF239360AB
:102758007B6A01337B627B685A687B6A9A42E5D858
:10276800BB6903F500631A464FF0FF339361BB69F9
:1027780003F500631A46BB6903F50063DB6943F0A0
:102788000113D3617B681B6B002B18D0BB6903F561
:1027980000631A46BB6903F50063D3F8843043F03D
:1027A8000B03C2F88430BB6903F500631A46BB69A2
:1027B80003F500635B6C43F00B03536415E0BB69DE
:1027C80003F500631A46BB6903F500635B6943F0D0
:1027D8000B035361BB6903F500631A46BB6903F534
:1027E80000631B6943F00B031361BB6903F50063C6
:1027F8001A46BB6903F500631B6823F4FE63136084
:102808007B6819687B681B69DAB27B6803F56173BA
:10281800084611461A4602F0A3F87B681B687A68D6
:102828001268526902F480525A617B681B68184624
:1028380001F0B6FF034603F40053002B3DD07B683C
:102848001B68184602F056F87B681B687A6812689D
:10285800D26822F47052DA607B681B68184600F070
:10286800CDFF0346002B0FD17B680022DA607B681E
:102878004FF400725A617B681B687A681268D268E4
:1028880042F41052DA600DE07B680322DA607B685C
:1028980040225A617B681B687A681268D26842F4E1
:1028A800A052DA607868FDF7EFFD7B681B687A68EC
:1028B8001268526902F400525A617B681B68184614
:1028C80001F06EFF034603F01003002B64D07B6811
:1028D8001B687A681268926922F010029A61BB69D3
:1028E8001B6AFB60FB6803F00F021346DB009B1AB0
:1028F8009B0003F5EC737A6813440433BB60FB68F0
:1029080003F4F0135B0C022B26D1FA6847F6F07338
:102918001340002B38D0BB68D968FA6847F6F073C3
:1029280013401B099BB2B8691A4601F097FDBB68B2
:10293800DA68F96847F6F0730B401B091A44BB685C
:10294800DA60BB689A69F96847F6F0730B401B09AF
:102958001A44BB689A6117E0FB6803F4F0135B0C38
:10296800062B11D17B6803F56173B86919460822F3
:1029780001F074FDBB689A69F96847F6F0730B407B
:102988001B091A44BB689A617B681B687A681268DD
:10299800926942F010029A617B681B68184601F040
:1029A800FFFE034603F00803002B0AD07868FDF702
:1029B8005DFD7B681B687A681268526902F008023C
:1029C8005A617B681B68184601F0EAFE034603F467
:1029D8008013002B0DD0FB69DBB278681946FDF730
:1029E800C1FD7B681B687A681268526902F480121C
:1029F8005A617B681B68184601F0D2FE034603F44F
:102A08000013002B0DD0FB69DBB278681946FDF77F
:102A180097FD7B681B687A681268526902F4001295
:102A28005A617B681B68184601F0BAFE034603F03A
:102A38008043002B0AD07868FDF7A6FD7B681B68E9
:102A48007A681268526902F080425A617B681B6892
:102A5800184601F0A5FE034603F00403002B13D02B
:102A68007B681B685B68FB60FB6803F00403002B52
:102A780002D07868FDF796FD7B681B687A68126853
:102A88005168FA680A435A602837BD4680BD00BFBE
:102A980080B483B000AF78600B46FB700C37BD463E
:102AA8005DF8047B704700BF80B483B000AF7860E6
:102AB8000B46FB700C37BD465DF8047B704700BFC2
:102AC80080B483B000AF78600C37BD465DF8047BF6
:102AD800704700BF80B483B000AF78600C37BD4644
:102AE8005DF8047B704700BF80B483B000AF7860A6
:102AF8000C37BD465DF8047B704700BF80B483B0D7
:102B080000AF78600C37BD465DF8047B704700BFA6
:102B180080B483B000AF78600C37BD465DF8047BA5
:102B2800704700BF80B483B000AF78600B46FB707D
:102B38000C37BD465DF8047B704700BF80B483B096
:102B480000AF78600B46FB700C37BD465DF8047B20
:102B5800704700BF80B483B000AF78600C37BD46C3
:102B68005DF8047B704700BF80B483B000AF786025
:102B78000C37BD465DF8047B704700BF80B582B056
:102B880000AF78607B6893F88033012B01D1022372
:102B98000DE07B68012283F880237B681B68184658
:102BA80001F0CEFD7B68002283F8802300231846BD
:102BB8000837BD4680BD00BF80B582B000AF7860E1
:102BC8007B6893F88033012B01D102230DE07B68E9
:102BD800012283F880237B681B68184601F0C8FD32
:102BE8007B68002283F88023002318460837BD46F7
:102BF80080BD00BF80B582B000AF78600B46FB7027
:102C08007B6893F88033012B01D102230FE07B68A6
:102C1800012283F880237B681A68FB7810461946DE
:102C280001F068FD7B68002283F8802300231846A2
:102C38000837BD4680BD00BF80B584B000AF78605E
:102C4800084611461A460346FB700B463B8013465E
:102C5800BB700023FB72FB785BB2002B0BDAFB78AE
:102C680003F07F021346DB009B1A9B0038337A6817
:102C78001344FB600CE0FB7803F07F021346DB0093
:102C88009B1A9B0003F5EC737A6813440433FB60CA
:102C9800FB7803F07F03DAB2FB681A70FB78DB0974
:102CA800DBB21A46FB685A703A88FB689A60FB6880
:102CB800BA78DA70FB685B78002B04D0FB681B7865
:102CC8009AB2FB68DA80BB78022B02D1FB6800223B
:102CD8001A717B6893F88033012B01D102230EE02F
:102CE8007B68012283F880237B681B681846F96893
:102CF80000F0BAFD7B68002283F88023FB7A18462F
:102D08001037BD4680BD00BF80B584B000AF786085
:102D18000B46FB70FB785BB2002B0BDAFB7803F0F9
:102D28007F021346DB009B1A9B0038337A681344F2
:102D3800FB600CE0FB7803F07F021346DB009B1A74
:102D48009B0003F5EC737A6813440433FB60FB784B
:102D580003F07F03DAB2FB681A70FB78DB09DBB299
:102D68001A46FB685A707B6893F88033012B01D1AF
:102D780002230EE07B68012283F880237B681B68AE
:102D88001846F96800F0BEFE7B68002283F88023AD
:102D9800002318461037BD4680BD00BF80B586B0F9
:102DA80000AFF8607A603B600B46FB72FB7A03F079
:102DB8007F021346DB009B1A9B0003F5EC73FA684D
:102DC800134404337B617B697A68DA607B693A680B
:102DD8005A617B6900229A617B6900225A70FB7AEA
:102DE80003F07F03DAB27B691A70FB681B69012B59
:102DF80002D17A687B691A61FB6893F88033012BEA
:102E080001D1022322E0FB68012283F88023FB7AA8
:102E180003F07F03002B0AD1FB681A68FB681B6963
:102E2800DBB2104679691A4601F084F909E0FB68BB
:102E38001A68FB681B69DBB2104679691A4600F00C
:102E480037FFFB68002283F88023002318461837D1
:102E5800BD4680BD80B483B000AF78600B46FB7080
:102E6800FB7803F07F0279681346DB009B1A9B000E
:102E78000B4403F5F8735B689BB218460C37BD46E4
:102E88005DF8047B704700BF80B586B000AFF8607E
:102E98007A603B600B46FB72FB7A03F07F021346B5
:102EA800DB009B1A9B003833FA6813447B617B690B
:102EB8007A68DA607B693A685A617B6900229A61AC
:102EC8007B6901225A70FB7A03F07F03DAB27B69CF
:102ED8001A70FB681B69012B02D17A687B691A6139
:102EE800FB6893F88033012B01D1022322E0FB68B1
:102EF800012283F88023FB7A03F07F03002B0AD199
:102F0800FB681A68FB681B69DBB2104679691A46C8
:102F180001F010F909E0FB681A68FB681B69DBB26D
:102F2800104679691A4600F0C3FEFB68002283F850
:102F38008023002318461837BD4680BD80B584B06D
:102F480000AF78600B46FB70FB785BB2002B0BDAA6
:102F5800FB7803F07F021346DB009B1A9B00383393
:102F68007A681344FB600AE0FA781346DB009B1A80
:102F78009B0003F5EC737A6813440433FB60FB6829
:102F880001229A70FB7803F07F03DAB2FB681A70AB
:102F9800FB78DB09DBB21A46FB685A707B6893F84A
:102FA8008033012B01D1022320E07B68012283F8C2
:102FB80080237B681B681846F96801F077FAFB786C
:102FC80003F07F03002B0CD17B6819687B681B69B1
:102FD800DAB27B6803F56173084611461A4601F0B8
:102FE800BFFC7B68002283F8802300231846103733
:102FF800BD4680BD80B584B000AF78600B46FB70DD
:10300800FB785BB2002B0BDAFB7803F07F021346E8
:10301800DB009B1A9B0038337A681344FB600AE094
:10302800FA781346DB009B1A9B0003F5EC737A6869
:1030380013440433FB60FB6800229A70FB7803F0AA
:103048007F03DAB2FB681A70FB78DB09DBB21A4639
:10305800FB685A707B6893F88033012B01D10223F7
:103068000EE07B68012283F880237B681B68184682
:10307800F96801F08DFA7B68002283F88023002329
:1030880018461037BD4680BD80B582B000AF786065
:103098000B46FB707B6893F88033012B01D1022328
:1030A8001BE07B68012283F88023FB785BB2002B4E
:1030B80009DA7B681A68FB7803F07F031046194623
:1030C80000F03CFB04E07B681B68184600F05CFBE2
:1030D8007B68002283F88023002318460837BD4602
:1030E80080BD00BF80B485B000AF78607B681B6886
:1030F800FB60FB6803F500639B6803F00103002B8A
:103108000AD0FB6803F500631A46FB6803F5006301
:103118005B6843F001035360002318461437BD462B
:103128005DF8047B704700BF80B485B000AF78605D
:103138007B681B68FB60FB6803F500631A46FB6845
:1031480003F500635B6823F001035360002318460E
:103158001437BD465DF8047B704700BF80B483B068
:1031680000AF78607B6893F88133DBB218460C3780
:10317800BD465DF8047B704790B58BB002AF7860B0
:1031880039607B681B687B610023FB6100233B611E
:103198003A681346DB009B1A9B0038337A6813445D
:1031A800FB60FB685A69FB689B69D31AFB61FA6983
:1031B800FB689B689A4202D9FB689B68FB61FB69C4
:1031C80003339B08BB612BE0FB685A69FB689B696A
:1031D800D31AFB61FA69FB689B689A4202D9FB68BB
:1031E8009B68FB61FB6903339B08BB61FB68D9687B
:1031F8003B68DAB2FB699CB27B681B69DBB200935F
:103208007869234601F0F4F8FB68DA68FB691A4428
:10321800FB68DA60FB689A69FB691A44FB689A6183
:103228003B685A017B69134403F510639B699AB2A2
:10323800BB699A4209D9FB689A69FB685B699A423B
:1032480003D2FB685B69002BBED1FB69002B10D150
:103258003B68012202FA03F33B617B6903F50063D3
:1032680019467B6903F500635A6B3B69DB431340DE
:103278004B63002318462437BD4690BD80B58CB0FB
:1032880000AF78600023BB6200237B623620796838
:10329800002209F019FF362009F032FF0023BB6035
:1032A800244A244B1B6C43F010031364214B1B6C02
:1032B80003F01003BB60BB6807F1100207F10C03B1
:1032C8001046194610F070FEFB69BB62BB6A002B02
:1032D80003D110F06DFDF86204E010F069FD0346BB
:1032E8005B00FB62FB6A144AA2FB03239B0C013BB5
:1032F8007B62124B124A1A60104B40F2E732DA60D6
:103308000E4A7B6A53600D4B00221A610B4B002258
:103318009A600A480CF076F80346002B04D1074857
:103328000CF028F9034600E0012318463037BD4663
:1033380080BD00BF0038024083DE1B430816002012
:103348000010004080B400AF054B1B68044A1268A7
:10335800D26822F00102DA60BD465DF8047B70474E
:103368000816002080B400AF054B1B68044A126899
:10337800D26842F00102DA60BD465DF8047B70470E
:103388000816002080B582B000AF786002F042F9DC
:103398000837BD4680BD00BF80B500AF01480EF0BC
:1033A800CFF880BD0816002084B080B582B000AF89
:1033B800786007F1140080E80E00BB6A012B20D169
:1033C8007B689B6B23F480327B689A637B68DB683D
:1033D80023F4840323F040037A68D3607B68DB68B6
:1033E80023F440127B68DA607B6C012B05D17B6883
:1033F800DB6843F480127B68DA60786801F0F6FADB
:103408000CE07B68DB6843F040027B68DA60786830
:1034180001F0ECFA7B684FF480329A633B6A012B27
:103428000BD17B689B6843F00C027B689A607B68D1
:103438009B6843F020027B689A600023184608378F
:10344800BD46BDE8804004B0704700BF80B483B07B
:1034580000AF78607B689B6843F001027B689A60E4
:10346800002318460C37BD465DF8047B704700BF43
:1034780080B483B000AF78607B689B6823F001025A
:103488007B689A60002318460C37BD465DF8047BBC
:10349800704700BF80B582B000AF78600B46FB7004
:1034A8007B68DB6823F0C0427B68DA60FB78012B1D
:1034B80006D17B68DB6843F000527B68DA6008E07D
:1034C800FB78002B05D17B68DB6843F080427B6882
:1034D800DA60322002F0B8F8002318460837BD46F3
:1034E80080BD00BF84B080B584B000AF786007F1BC
:1034F8001C0080E80E000023FB607B689B6B43F494
:1035080000227B689A637B6C002B05D17B689B6BE0
:1035180043F400127B689A637B6803F560631A467C
:10352800002313607B6803F500631A467B6803F584
:1035380000631B6813603B6B012B0CD17B6A002B6B
:1035480004D17868002100F041F908E07868012189
:1035580000F03CF903E07868032100F037F9786857
:10356800102100F0EBF8786800F00EF97B6803F59D
:1035780000631A46002313617B6803F500631A464B
:10358800002353617B6803F500631A464FF0FF334D
:1035980093617B6803F500631A460023D361002317
:1035A800FB6031E0FB685A017B68134403F5106344
:1035B8001B68002B0ADAFB685A017B68134403F581
:1035C80010631A464FF09043136008E0FB685A01F5
:1035D8007B68134403F510631A4600231360FB68E5
:1035E8005A017B68134403F510631A4600231361DC
:1035F800FB685A017B68134403F510631A46FF23DE
:103608009360FB680133FB60FA69FB689A42C9D88A
:103618000023FB6031E0FB685A017B68134403F523
:1036280030631B68002B0ADAFB685A017B68134475
:1036380003F530631A464FF09043136008E0FB68C7
:103648005A017B68134403F530631A46002313605C
:10365800FB685A017B68134403F530631A4600235C
:103668001361FB685A017B68134403F530631A46FB
:10367800FF239360FB680133FB60FA69FB689A4299
:10368800C9D87B6803F500631A467B6803F50063B5
:103698001B6923F480731361BB6A012B17D17B6804
:1036A80003F500631A46234B13637B6803F5006335
:1036B8001A467B6803F500631B6B43F4803343F0C1
:1036C800030313637B6803F500631B6BFB607B6874
:1036D80000229A617B686FF080425A61BB6A002BB6
:1036E80005D17B689B6943F010027B689A617B680F
:1036F8009A69114B13437A6893617B6B002B05D051
:103708007B689B6943F008027B689A617B6C012B9C
:1037180007D17B689B6943F0804343F004037A68D0
:103728009361002318461037BD46BDE8804004B0B9
:10373800704700BF0001800000383C8080B485B02D
:1037480000AF786039600023FB603B689B0143F061
:1037580020027B681A61FB680133FB60FB68094A39
:10376800934201D9032306E07B681B6903F0200319
:10377800002BF0D1002318461437BD465DF8047BB2
:10378800704700BF400D030080B485B000AF78607B
:103798000023FB607B6810221A61FB680133FB6021
:1037A800FB68094A934201D9032306E07B681B6939
:1037B80003F01003002BF0D1002318461437BD4640
:1037C8005DF8047B704700BF400D030080B483B0F0
:1037D80000AF78600B46FB707B6803F50063194601
:1037E8007B6803F500631A68FB7813430B600023BA
:1037F80018460C37BD465DF8047B704780B485B029
:1038080000AF78600023FB737B6803F500639B6857
:1038180003F00603002B02D10023FB731CE07B6836
:1038280003F500639B6803F00603022B07D07B684F
:1038380003F500639B6803F00603062B02D10323FC
:10384800FB7309E07B6803F500639B6803F00603DC
:10385800042B01D10223FB73FB7B18461437BD46AA
:103868005DF8047B704700BF80B483B000AF786018
:1038780039603B685B78012B3ED17B6803F50063B8
:1038880019467B6803F50063DA693B681B781846BC
:10389800012383409BB21343CB613B681B785A01D9
:1038A8007B68134403F510631B6803F40043002B83
:1038B8005CD13B681B785A017B68134403F510639D
:1038C80018463B681B785A017B68134403F510635C
:1038D8001A683B689B68C3F30A033968C978890486
:1038E8000B433968097889050B43134343F0805328
:1038F80043F40043036039E07B6803F5006319462D
:103908007B6803F50063DA693B681B781846012376
:1039180083401B041343CB613B681B785A017B68C7
:10392800134403F530631B6803F40043002B1DD1D7
:103938003B681B785A017B68134403F530631846CB
:103948003B681B785A017B68134403F530631A6897
:103958003B689B68C3F30A033968C97889040B4339
:10396800134343F0805343F4004303600023184695
:103978000C37BD465DF8047B704700BF80B483B048
:1039880000AF786039603B685B78012B53D13B68A6
:103998001B785A017B68134403F510631B6803F412
:1039A8000043002B21D13B681B785A017B681344E4
:1039B80003F5106318463B681B785A017B6813446B
:1039C80003F510631A683B689B68C3F30A033968F8
:1039D800C97889040B433968097889050B4313436F
:1039E80043F0805343F4004303603B689B68C3F390
:1039F8000A033A68D278920413433A681278920517
:103A08001A433F4B1B68134343F0805343F400436E
:103A18003B4A13607B6803F5006319467B6803F52E
:103A28000063DA6B3B681B781846012383409BB21E
:103A38001343CB635DE03B681B785A017B681344F2
:103A480003F530631B6803F40043002B41D13B6846
:103A58001B785A017B68134403F5306318463B68AA
:103A68001B785A017B68134403F530631A683B6876
:103A78009B68C3F30A033968C97889040B4339681A
:103A8800097889050B43134343F4004303607B68BB
:103A980003F530631A4A13603B681B785A017B6848
:103AA800134403F530631A46154B1A603B689B684C
:103AB800C3F30A033A68D278920413433A68127837
:103AC80092051A430E4B1B68134343F400430C4AF8
:103AD80013607B6803F5006319467B6803F5006390
:103AE800DA6B3B681B781846012383401B04134399
:103AF800CB63002318460C37BD465DF8047B70473E
:103B08009C0A002080B483B000AF786039603B68BD
:103B18005B78012B35D17B6803F5006319467B6818
:103B280003F50063DA6B3B681B7818460123834072
:103B38009BB2DB431340CB637B6803F500631946F4
:103B48007B6803F50063DA693B681B781846012334
:103B580083409BB2DB431340CB613B681B785A011F
:103B68007B68134403F5106319463B681B785A01B8
:103B78007B68134403F510631B6823F400430B6050
:103B880034E07B6803F5006319467B6803F500633E
:103B9800DA6B3B681B781846012383401B04DB4320
:103BA8001340CB637B6803F5006319467B6803F514
:103BB8000063DA693B681B781846012383401B04BD
:103BC800DB431340CB613B681B785A017B68134485
:103BD80003F5306319463B681B785A017B68134428
:103BE80003F530631B6823F400430B600023184679
:103BF8000C37BD465DF8047B704700BF80B483B0C6
:103C080000AF786039603B685B78012B24D13B6852
:103C18001B785A017B68134403F5106319463B6807
:103C28001B785A017B68134403F510631B6823F45F
:103C380000430B607B6803F5006319467B6803F556
:103C48000063DA693B681B781846012383409BB2FE
:103C5800DB431340CB6123E03B681B785A017B6848
:103C6800134403F5306319463B681B785A017B6897
:103C7800134403F530631B6823F400430B607B682F
:103C880003F5006319467B6803F50063DA693B684E
:103C98001B781846012383401B04DB431340CB6188
:103CA800002318460C37BD465DF8047B704700BFFB
:103CB80090B589B002AFF860B9601346FB71002374
:103CC800FB82BB685B78012B40F04681BB685B696F
:103CD800002B3BD1BB681B785A01FB68134403F5E2
:103CE80010631946BB681B785A01FB68134403F537
:103CF80010631B6923F0FF5323F4C0130B61BB68E7
:103D08001B785A01FB68134403F510631946BB6816
:103D18001B785A01FB68134403F510631B6943F4CD
:103D280000230B61BB681B785A01FB68134403F539
:103D380010631946BB681B785A01FB68134403F5E6
:103D480010631B69DB0CDB040B6186E0BB681B7826
:103D58005A01FB68134403F510631946BB681B78C6
:103D68005A01FB68134403F510631B69DB0CDB0481
:103D78000B61BB681B785A01FB68134403F5106399
:103D88001946BB681B785A01FB68134403F5106396
:103D98001B6923F0FF5323F4C0130B61BB681B7826
:103DA8005A01FB68134403F510631846BB681B7877
:103DB8005A01FB68134403F510631A69BB68596913
:103DC800BB689B680B44591EBB689B68B1FBF3F347
:103DD800D9048C4B0B4013430361BB681B785A0111
:103DE800FB68134403F510631946BB681B785A0136
:103DF800FB68134403F510631A69BB685B69C3F376
:103E0800120313430B61BB68DB78012B25D1BB6818
:103E18001B785A01FB68134403F510631946BB6805
:103E28001B785A01FB68134403F510631B6923F0E0
:103E3800C0430B61BB681B785A01FB68134403F548
:103E480010631946BB681B785A01FB68134403F5D5
:103E580010631B6943F000530B61FB79012B0BD1F5
:103E6800BB681B785A01FB68134403F510631A46B4
:103E7800BB681B69536116E0BB68DB78012B12D065
:103E8800BB685B69002B0ED0FB6803F5006319461D
:103E9800FB6803F500635A6BBB681B78184601235F
:103EA800834013434B63BB68DB78012B2ED1FB683F
:103EB80003F500639B6803F48073002B13D1BB6880
:103EC8001B785A01FB68134403F510631946BB6855
:103ED8001B785A01FB68134403F510631B6843F011
:103EE80000530B6012E0BB681B785A01FB6813444F
:103EF80003F510631946BB681B785A01FB68134425
:103F080003F510631B6843F080530B60BB681B7894
:103F18005A01FB68134403F510631946BB681B7804
:103F28005A01FB68134403F510631B6843F004430C
:103F38000B60BB68DB78012B40F0F580BB68D96863
:103F4800BB681A78BB685B699CB2FB790093F86818
:103F5800234600F04DFAE6E0BB681B785A01FB687F
:103F6800134403F530631946BB681B785A01FB6894
:103F7800134403F530631B69DB0CDB040B61BB687E
:103F88001B785A01FB68134403F530631946BB6874
:103F98001B785A01FB68134403F530631B6923F04F
:103FA800FF5323F4C0130B61BB685B69002B2BD153
:103FB800BB681B785A01FB68134403F53063194644
:103FC800BB681B785A01FB68134403F530631A6910
:103FD800BB689B68C3F3120313430B61BB681B7870
:103FE8005A01FB68134403F530631946BB681B7814
:103FF8005A01FB68134403F530631B6943F400233B
:104008000B613CE00000F81FBB685A69BB689B68FD
:1040180013445A1EBB689B68B2FBF3F3FB82BB6870
:104028001B785A01FB68134403F530631946BB68D3
:104038001B785A01FB68134403F530631A69FB8A3D
:10404800DB0418463A4B034013430B61BB681B78EB
:104058005A01FB68134403F530631846BB681B78A4
:104068005A01FB68134403F530631A69BB689B68FF
:10407800F98A01FB03F3C3F3120313430361FB79CA
:10408800012B0AD1BB681B785A01FB68134403F55E
:1040980030631A46BB68DB685361BB68DB78012B69
:1040A8002ED1FB6803F500639B6803F48073002B33
:1040B80013D1BB681B785A01FB68134403F53063BE
:1040C8001946BB681B785A01FB68134403F5306333
:1040D8001B6843F000530B6012E0BB681B785A0161
:1040E800FB68134403F530631946BB681B785A0113
:1040F800FB68134403F530631B6843F080530B607F
:10410800BB681B785A01FB68134403F530631946F2
:10411800BB681B785A01FB68134403F530631B68BE
:1041280043F004430B60002318461C37BD4690BD7E
:104138000000F81F80B485B000AFF860B96013467E
:10414800FB71BB685B78012B40F0D180BB685B6971
:10415800002B3BD1BB681B785A01FB68134403F55D
:1041680010631946BB681B785A01FB68134403F5B2
:1041780010631B6923F0FF5323F4C0130B61BB6862
:104188001B785A01FB68134403F510631946BB6892
:104198001B785A01FB68134403F510631B6943F449
:1041A80000230B61BB681B785A01FB68134403F5B5
:1041B80010631946BB681B785A01FB68134403F562
:1041C80010631B69DB0CDB040B615AE0BB681B78CE
:1041D8005A01FB68134403F510631946BB681B7842
:1041E8005A01FB68134403F510631B69DB0CDB04FD
:1041F8000B61BB681B785A01FB68134403F5106315
:104208001946BB681B785A01FB68134403F5106311
:104218001B6923F0FF5323F4C0130B61BB685A6971
:10422800BB689B689A4203D9BB689A68BB685A61A5
:10423800BB681B785A01FB68134403F510631946E1
:10424800BB681B785A01FB68134403F510631B69AC
:1042580043F400230B61BB681B785A01FB681344C5
:1042680003F510631946BB681B785A01FB681344B1
:1042780003F510631A69BB685B69C3F31203134340
:104288000B61FB79012B0BD1BB681B785A01FB68CA
:10429800134403F510631A46BB681B69536112E0A7
:1042A800BB685B69002B0ED0FB6803F500631946F9
:1042B800FB6803F500635A6BBB681B78184601233B
:1042C800834013434B63BB681B785A01FB68134454
:1042D80003F510631946BB681B785A01FB68134441
:1042E80003F510631B6843F004430B6079E0BB6877
:1042F8001B785A01FB68134403F530631946BB6801
:104308001B785A01FB68134403F530631B69DB0C07
:10431800DB040B61BB681B785A01FB68134403F587
:1043280030631946BB681B785A01FB68134403F5D0
:1043380030631B6923F0FF5323F4C0130B61BB6880
:104348005B69002B03D0BB689A68BB685A61BB687D
:104358001B785A01FB68134403F530631946BB68A0
:104368001B785A01FB68134403F530631B6943F457
:1043780000230B61BB681B785A01FB68134403F5E3
:1043880030631946BB681B785A01FB68134403F570
:1043980030631A69BB689B68C3F3120313430B614C
:1043A800FB79012B0AD1BB681B785A01FB681344BF
:1043B80003F530631A46BB68DB685361BB681B783A
:1043C8005A01FB68134403F530631946BB681B7830
:1043D8005A01FB68134403F530631B6843F0044338
:1043E8000B60002318461437BD465DF8047B704700
:1043F80080B487B000AFF860B96011461A460B4622
:10440800FB711346BB8000233B6100237B6197F857
:104418002030002B1AD1BB8803339B083B61002353
:104428007B610FE0FB791A03FB68134403F58053A3
:104438001A46BB681B6813607B6901337B61BB68E4
:104448000433BB607A693B699A42EBD30023184670
:104458001C37BD465DF8047B704700BF80B487B049
:1044680000AFF860B9601346FB8000237B61FB88CE
:1044780003339B083B6100237B610BE0FB6803F57A
:1044880080531A68BB681A607B6901337B61BB681B
:104498000433BB607A693B699A42EFD3BB6818461C
:1044A8001C37BD465DF8047B704700BF80B483B0FD
:1044B80000AF786039603B685B78012B30D13B688E
:1044C8001B785A017B68134403F510631B68002BA3
:1044D80012DB3B681B785A017B68134403F51063B1
:1044E80019463B681B785A017B68134403F510632F
:1044F8001B6823F080430B603B681B785A017B687C
:10450800134403F5106319463B681B785A017B680E
:10451800134403F510631B6843F400130B602FE08A
:104528003B681B785A017B68134403F530631B68AA
:10453800002B12DB3B681B785A017B68134403F598
:10454800306319463B681B785A017B68134403F5AE
:1045580030631B6823F080430B603B681B785A016B
:104568007B68134403F5306319463B681B785A018E
:104578007B68134403F530631B6843F400130B6036
:10458800002318460C37BD465DF8047B704700BF12
:1045980080B483B000AF786039603B685B78012BEA
:1045A8002ED13B681B785A017B68134403F51063CE
:1045B80019463B681B785A017B68134403F510635E
:1045C8001B6823F400130B603B68DB78032B03D0D4
:1045D8003B68DB78022B41D13B681B785A017B682A
:1045E800134403F5106319463B681B785A017B682E
:1045F800134403F510631B6843F080530B602DE0F0
:104608003B681B785A017B68134403F530631946ED
:104618003B681B785A017B68134403F530631B68B9
:1046280023F400130B603B68DB78032B03D03B6853
:10463800DB78022B12D13B681B785A017B68134444
:1046480003F5306319463B681B785A017B681344AD
:1046580003F530631B6843F080530B600023184652
:104668000C37BD465DF8047B704700BF80B584B049
:1046780000AF78600023FB6014E0FB685A017B6898
:10468800134403F510631A46FF239360FB685A012D
:104698007B68134403F530631A46FF239360FB6875
:1046A8000133FB60FB680E2BE7D97B6803F50063D9
:1046B8001A464FF0FF3393617B6803F500631A468F
:1046C800002313617B6803F500631A4600235361D6
:1046D8007B6803F500631A460023D3617868FFF707
:1046E80053F878681021FFF729F800231846103787
:1046F800BD4680BD80B483B000AF78600B46FB70C8
:104708007B6803F500631A467B6803F500631B6842
:1047180023F4FE6313607B6803F5006319467B6826
:1047280003F500631A68FB781B0103F4FE63134367
:104738000B60002318460C37BD465DF8047B7047B4
:1047480080B582B000AF78607B6803F500631A46D5
:104758007B6803F500635B6823F002035360032062
:1047680000F072FF002318460837BD4680BD00BF21
:1047780080B582B000AF78607B6803F500631A46A5
:104788007B6803F500635B6843F002035360032012
:1047980000F05AFF002318460837BD4680BD00BF09
:1047A80080B485B000AF78600023FB607B685B69EC
:1047B800FB607B689B69FA681340FB60FB681846DE
:1047C8001437BD465DF8047B704700BF80B485B0E0
:1047D80000AF78607B6803F500639B69FB607B68CA
:1047E80003F50063DB69FA681340FB60FB681B0C88
:1047F80018461437BD465DF8047B704780B485B011
:1048080000AF78607B6803F500639B69FB607B6899
:1048180003F50063DB69FA681340FB60FB689BB231
:1048280018461437BD465DF8047B704780B485B0E0
:1048380000AF78600B46FB70FB785A017B68134425
:1048480003F530639B68FB607B6803F500635B6975
:10485800FA681340FB60FB6818461437BD465DF8DC
:10486800047B704780B487B000AF78600B46FB705C
:104878007B6803F500631B697B617B6803F5006354
:104888005B6B3B61FB783A6922FA03F3DB01DBB22D
:104898007A6913437B61FB785A017B68134403F5FB
:1048A80010639A687B691340FB60FB6818461C37E5
:1048B800BD465DF8047B704780B483B000AF786074
:1048C80039607B685A693B681A437B685A610C37C0
:1048D800BD465DF8047B704780B483B000AF786054
:1048E8007B685B6903F0010318460C37BD465DF829
:1048F800047B704780B483B000AF78607B6803F5B1
:1049080010631A467B6803F510631B6823F4FF6382
:1049180023F0070313607B6803F500639B6803F0CB
:104928000603042B0AD17B6803F510631A467B68DB
:1049380003F510631B6843F0030313607B6803F5FA
:1049480000631A467B6803F500635B6843F4807371
:104958005360002318460C37BD465DF8047B70474A
:1049680080B485B000AFF8600B467A60FB72FB68D4
:1049780003F530631A4600231361FB6803F53063BF
:104988001A46FB6803F530631B6943F4002313617F
:10499800FB6803F530631A46FB6803F530631B694F
:1049A80043F018031361FB6803F530631A46FB688C
:1049B80003F530631B6943F0C0431361FB7A012B95
:1049C8000CD1FB6803F530631A467B685361FB68BA
:1049D80003F530631A464FF080231360002318460E
:1049E8001437BD465DF8047B704700BF80B485B0BE
:1049F80000AF78600023FB60FB680133FB60FB6855
:104A0800134A934201D903231BE07B681B69002BDF
:104A1800F2DA0023FB607B681B6943F001027B68C4
:104A28001A61FB680133FB60FB68094A934201D9AC
:104A3800032306E07B681B6903F00103002BF0D118
:104A4800002318461437BD465DF8047B704700BF45
:104A5800400D030084B080B584B000AF786007F1E2
:104A68001C0080E80E007B6803F560631A4600238B
:104A780013607B689B6B23F480227B689A637B6856
:104A88009B6B23F400227B689A637B689B6B43F4DF
:104A980000127B689A637B6A032B0FD17B68B3F1A2
:104AA800A04F0BD07B6803F580631A467B6803F53B
:104AB80080631B6843F0040313600AE07B6803F516
:104AC80080631A467B6803F580631B6823F0040340
:104AD800136078681021FEF731FE7868FEF754FEFF
:104AE8000023FB6015E0FB685A017B68134403F55B
:104AF800A0631A464FF0FF339360FB685A017B6846
:104B0800134403F5A0631A460023D360FB680133FE
:104B1800FB603A6AFB689A42E5D87868012100F0A0
:104B2800A5F8C82000F090FD7B6800229A617B6898
:104B38004FF0FF325A617B68B3F1A04F0AD17B680E
:104B480080225A627B68144A9A627B68134AC3F8C7
:104B580000210AE07B684FF400725A627B68104AB1
:104B68009A627B680F4AC3F80021BB6A002B05D103
:104B78007B689B6943F010027B689A617B689A693D
:104B8800094B13437A689361002318461037BD46D2
:104B9800BDE8804004B0704780006000E00040003D
:104BA800000200010003E000080020A380B483B0E5
:104BB80000AF78600B46FB707B6803F580631A468C
:104BC8007B6803F580631B6823F0030313607B682D
:104BD80003F5806319467B6803F580631A68FB78E0
:104BE80003F0030313430B60FB78012B07D17B68A9
:104BF80003F580631A464BF68033536009E0FB786F
:104C0800022B06D17B6803F580631A4641F2707364
:104C18005360002318460C37BD465DF8047B704787
:104C280080B584B000AF78607B6803F588631B6843
:104C3800FB60FB6823F02E03FB607B6803F5886349
:104C48001A46FB6843F4807313600A2000F0FCFCEA
:104C58007B6803F588631A46FB6823F48073136046
:104C6800002318461037BD4680BD00BF80B485B00C
:104C780000AF78600B46FB707B6803F588631B68A0
:104C8800FB60FB6823F02E03FB60FB6803F4805392
:104C9800002B0AD1FB78012B07D17B6803F58863C9
:104CA8001A46FB6843F480531360FB6803F480538F
:104CB800002B0AD0FB78002B07D17B6803F58863AB
:104CC8001A46FB6823F480531360002318461437F0
:104CD800BD465DF8047B704780B485B000AF78604E
:104CE8007B6803F588631B68FB60FB6803F4C023DB
:104CF8005B0C18461437BD465DF8047B704700BF4F
:104D080080B483B000AF78607B6803F580639B68EC
:104D18009BB218460C37BD465DF8047B704700BF50
:104D280080B483B000AF7860084611461A4603463F
:104D3800FB700B46BB7013467B70FB785A017B688F
:104D4800134403F5A0631A464FF0FF3393603B7D8D
:104D5800032B00F2848001A252F823F0754D00085D
:104D6800254E0008754D0008E34D0008FB785A01F0
:104D78007B68134403F5A0631A4640F29D43D36051
:104D8800BB785BB2002B11DAFB785A017B681344BD
:104D980003F5A0631946FB785A017B68134403F5B1
:104DA800A063DB6843F48073CB6015E07B68B3F1E4
:104DB800A04F11D0FB785A017B68134403F5A06318
:104DC8001946FB785A017B68134403F5A063DB6836
:104DD80043F06003CB6042E041E0FB785A017B6816
:104DE800134403F5A0631A4640F29D63D360BB7871
:104DF8005BB2002B11DAFB785A017B68134403F588
:104E0800A0631946FB785A017B68134403F5A06335
:104E1800DB6843F48073CB6021E020E0FB785A0123
:104E28007B68134403F5A0631A4640F22523D36038
:104E3800BB785BB2002B11DAFB785A017B6813440C
:104E480003F5A0631946FB785A017B68134403F500
:104E5800A063DB6843F4C073CB60FFE700BF7B68E7
:104E680003F5806318467B6803F580639B69FA78CD
:104E7800012101FA02F2134383617B689B6943F0C5
:104E880000727B689A61FB785A017B68134403F5CA
:104E9800A06319467B789B0503F0FE52BB7803F0AC
:104EA8007F03DB0203F4F0431A43BB785BB2002BA9
:104EB80002DA4FF4004300E000231A433B7C022B44
:104EC80002D14FF4003300E000231A433B7D9B04DA
:104ED80003F440231A433B8BC3F30A0313430B60C9
:104EE8003B7D032B10D1FB785A017B68134403F5F3
:104EF800A0631946FB785A017B68134403F5A06345
:104F08001B6843F000530B60002318460C37BD465E
:104F18005DF8047B704700BF90B58BB002AFF860B6
:104F2800B9601346FB7100237B7700237B83002342
:104F3800FB834FF480733B8300237B61FB68B3F1F1
:104F4800A04F2BD0BB681B79002B27D1FB79002BF6
:104F58000BD1BB685B79012B07D1BB685B78F8681C
:104F6800194600F025FA00230BE1FB79012B15D136
:104F7800BB685B785A01FB68134403F5A0631946C4
:104F8800BB685B785A01FB68134403F5A063DB68D0
:104F980023F06003CB60BB6800225A71BB681B69B1
:104FA800002B19D0BB681B69BA6812891344013BEE
:104FB800BA681289B3FBF2F3FB83FA8B3B8B9A42F4
:104FC8000CD93B8BFB83FB8BBA68128902FB03F37A
:104FD8001A46BB681A6101E00123FB83BB68DB78D2
:104FE800002B07D0FB8BBA68128902FB03F31A4621
:104FF800BB681A61BB685B785A01FB68134403F508
:10500800A0631946BB681B69C3F31202FB8BDB0460
:1050180018465E4B03401A43BB689B7A5B0703F054
:10502800C04313430B61FB79002B0AD0BB685B7844
:105038005A01FB68134403F5A0631A46BB68DB6892
:105048005361FB6803F580639B6803F00103002B41
:105058000CBF01230023DBB27B77BB685B785A0166
:10506800FB68134403F5A0631946BB685B785A01D3
:10507800FB68134403F5A0631B6823F000530B601F
:10508800BB685B785A01FB68134403F5A0631946B3
:10509800BB685B785A01FB68134403F5A0631B687F
:1050A8007A7F520713430B60BB685B785A01FB6831
:1050B800134403F5A0631B687B617B6923F080437D
:1050C8007B617B6943F000437B61BB685B785A0175
:1050D800FB68134403F5A0631A467B691360FB79E8
:1050E800002B4DD1BB68DB78002B49D1BB681B690D
:1050F800002B45D0BB68DB79032B33D801A252F8CB
:1051080023F000BF1D510008435100081D5100083D
:1051180043510008BB681B6903339B087B837A8B68
:10512800FB68DB6A9BB29A4206D9FB689B6943F02D
:105138002002FB689A6116E015E0BB681B6903331F
:105148009B087B837A8BFB6803F580631B699BB2A2
:105158009A4206D9FB689B6943F08062FB689A61B2
:1051680001E000E000BFBB68D968BB685A78BB683B
:105178001B699CB200230093F8682346FFF738F9AF
:10518800002318462437BD4690BD00BF0000F81F15
:1051980080B483B000AF78607B6803F580635B6997
:1051A8009BB218460C37BD465DF8047B704700BFBC
:1051B80080B485B000AF78600B46FB700023FB60BD
:1051C800FB785A017B68134403F5A0631B68FB78DE
:1051D8005A017B68134403F5A0631B6803F400239A
:1051E800002B6ED0FB785A017B68134403F5A0634B
:1051F8001946FB785A017B68134403F5A0631B68C2
:1052080043F080430B607B68DB6A9BB2002B45D17F
:10521800FB785A017B68134403F5A0631946FB78B1
:105228005A017B68134403F5A0631B6823F000430D
:105238000B60FB785A017B68134403F5A063194699
:10524800FB785A017B68134403F5A0631B6843F09D
:1052580000430B60FB785A017B68134403F5A06395
:105268001946FB785A017B68134403F5A0631B6851
:1052780023F400430B60FB680133FB60FB68B3F564
:105288007A7F01D900BF1BE0FB785A017B68134481
:1052980003F5A0631B68002BEDDB11E0FB785A01D6
:1052A8007B68134403F5A0631946FB785A017B68B1
:1052B800134403F5A0631B6843F000430B606FE0E1
:1052C8006EE0FB785A017B68134403F5A063194626
:1052D800FB785A017B68134403F5A0631B6843F00D
:1052E80080430B607B6803F580631B699BB2002BCE
:1052F80045D1FB785A017B68134403F5A06319462E
:10530800FB785A017B68134403F5A0631B6823F0FC
:1053180000430B60FB785A017B68134403F5A063D4
:105328001946FB785A017B68134403F5A0631B6890
:1053380043F000430B60FB785A017B68134403F584
:10534800A0631946FB785A017B68134403F5A063F0
:105358001B6823F400430B60FB680133FB60FB68A8
:10536800B3F57A7F01D900BF1AE0FB785A017B6850
:10537800134403F5A0631B68002BEDDB10E0FB78FA
:105388005A017B68134403F5A0631946FB785A0158
:105398007B68134403F5A0631B6843F000430B606C
:1053A800002318461437BD465DF8047B704700BFDC
:1053B80080B485B000AF78600B46FB700123FB73A7
:1053C8000023BB60FB785A017B68134403F5A06394
:1053D8001A46FB7BDB041946124B0B4043F0004393
:1053E8001361FB785A017B68134403F5A0631B68BB
:1053F800BB60BB6823F08043BB60BB6843F00043DD
:10540800BB60FB785A017B68134403F5A0631A4616
:10541800BB681360002318461437BD465DF8047B4B
:10542800704700BF0000F81F80B586B000AF7860F5
:1054380000233B617868FEF71BF878681021FEF7B7
:105448007DF97868FEF7A0F90023FB751FE0FB7D66
:105458005A017B68134403F5A0631B68FB60FB6873
:1054680043F08043FB60FB6823F00043FB60FB686C
:1054780023F40043FB60FB7D5A017B68134403F56A
:10548800A0631A46FB681360FB7D0133FB75FB7D47
:105498000F2BDCD90023FB7530E0FB7D5A017B68BC
:1054A800134403F5A0631B68FB60FB6843F080436B
:1054B800FB60FB6843F00043FB60FB6823F4004398
:1054C800FB60FB7D5A017B68134403F5A0631A4611
:1054D800FB6813603B6901333B613B69B3F57A7F35
:1054E80000D908E0FB7D5A017B68134403F5A063EB
:1054F8001B68002BEEDBFB7D0133FB75FB7D0F2B5F
:10550800CBD97B6803F580631A464FF0FF335361AC
:105518007B684FF0FF325A617868FDF797FF0023E8
:1055280018461837BD4680BD80B500AF0E4A0E4BF1
:105538001B6843F4007313600B4A0B4B1B6843F45E
:1055480080631360084A084B1B6843F48073136038
:10555800032007F0AFFD0020FDF790FEFBF702FBEC
:105568000023184680BD00BF003C024080B500AF54
:10557800134B4FF0FF321A62114B00221A62104B84
:105588004FF0FF325A620E4B00225A620C4B4FF01A
:10559800FF321A610A4B00221A61094B4FF0FF32A1
:1055A8005A61074B00225A61054B4FF0FF329A614E
:1055B800034B00229A6100F00BF80023184680BDC7
:1055C8000038024080B400AFBD465DF8047B7047E8
:1055D80080B400AFBD465DF8047B704780B582B0EB
:1055E80000AF78600EF0BCFB0246094BA3FB022318
:1055F8009B09184607F0A6FD4FF0FF307968002296
:1056080007F062FD002318460837BD4680BD00BF7D
:10561800D34D621080B400AF044B1B680133034ABA
:105628001360BD465DF8047B704700BF4416002038
:1056380080B400AF034B1B681846BD465DF8047B79
:10564800704700BF4416002080B584B000AF786072
:105658000023FB60FFF7ECFFF86000BFFFF7E8FFEF
:105668000246FB68D21A7B689A42F7D31037BD46C8
:1056780080BD00BF80B400AF044A044B1B6823F010
:1056880002031360BD465DF8047B704710E000E03C
:1056980080B400AF044A044B1B6843F00203136054
:1056A800BD465DF8047B704710E000E080B400AFB1
:1056B800024B1846BD465DF8047B704700040401A0
:1056C80080B400AF034B1B681B0C1846BD465DF841
:1056D800047B7047002004E080B400AF044B1B68D3
:1056E800C3F30B031846BD465DF8047B704700BF43
:1056F800002004E080B400AF044A044B5B6843F028
:1057080001035360BD465DF8047B7047002004E048
:1057180080B400AF044A044B5B6823F00103536074
:10572800BD465DF8047B7047002004E080B400AFFC
:10573800044A044B5B6843F002035360BD465DF8BE
:10574800047B7047002004E080B400AF044A044B97
:105758005B6823F002035360BD465DF8047B704725
:10576800002004E080B400AF044A044B5B6843F0B7
:1057780004035360BD465DF8047B7047002004E0D5
:1057880080B400AF044A044B5B6823F00403536001
:10579800BD465DF8047B7047002004E080B483B008
:1057A80000AF01237B607B6893FAA3F33B603B68FF
:1057B800B3FA83F31A46054B13449B001A46012398
:1057C80013600C37BD465DF8047B704700C1891033
:1057D80080B483B000AF01237B607B6893FAA3F3A6
:1057E8003B603B68B3FA83F31A46054B13449B00AE
:1057F8001A46002313600C37BD465DF8047B7047DA
:1058080000C1891080B584B000AF78603960012389
:10581800FB730023BB60314B1B7E012B01D102239C
:1058280058E02E4B01221A764CF250300EF0BCFE96
:105838000346FB73FB7B002B48D13B684FF0FF32DC
:105848001A607B681B68012B15D17B681B69DAB26B
:105858007B685B681046194600F02CF94CF2503012
:105868000EF0A2FE0346FB731D4A1D4B1B6923F075
:105878000403136128E07B689B68BB601CE07B68BD
:105888001B69DBB2B868194600F036F94CF25030A3
:105898000EF08AFE0346FB73114A114B1B6923F075
:1058A800FA031361FB7B002B03D03B68BA681A60CC
:1058B8000AE0BB680133BB607B68DA687B689B6879
:1058C8001A44BB689A42DAD800F05EFA034B002209
:1058D8001A76FB7B18461037BD4680BD4816002057
:1058E800003C024080B584B000AF78600023FB73B1
:1058F800254B1B7E012B01D1022340E0224B0122C4
:105908001A76224A214B1B6943F0807313611F4AA0
:105918001E4B1B6943F0007313611C4BF322DA60C2
:105928007B681B68012B10D1174B02221A707B6809
:105938005B68154A13617B681B69DAB27B685B6830
:105948001046194600F0B6F818E00F4B01221A70FD
:105958007B68DB680C4A53607B689B680A4AD360A3
:105968007B681B69DAB2084B1A727B689A687B6895
:105978001B69DBB21046194600F0BEF8FB7B1846DF
:105988001037BD4680BD00BF48160020003C0240CD
:1059980080B584B000AF78600123FB73334B1B7E66
:1059A800012B01D102235DE0304B01221A767B687E
:1059B8001B6803F00103002B18D07B685B68012B80
:1059C8000AD17B689A687B68DB681046194600F044
:1059D800E5F80346FB7309E07B689A687B68DB6837
:1059E8001046194600F0FCF80346FB737B681B68F9
:1059F80003F00203002B07D07B681B69DBB2184653
:105A080000F00EF90346FB737B681B6803F0040380
:105A1800002B15D07B681B7E03F02003D9B27B686E
:105A28001B7E03F04003DAB27B681B7E23F07F0302
:105A3800DBB2084611461A4600F00CF90346FB7320
:105A48007B681B6803F00803002B07D07B685B6941
:105A5800DBB2184600F02EF90346FB73034B002215
:105A68001A76FB7B18461037BD4680BD48160020C5
:105A780080B582B000AF78607B680F221A6000F0B2
:105A880047F903461A467B689A6000F04DF90346C9
:105A98001A467B681A6100F02BF903461A467B68A0
:105AA8001A7600F061F903461A467B685A6108378E
:105AB800BD4680BD80B483B000AF03463960FB713A
:105AC8000C4A0C4B1B6923F440731361094A094BB8
