:020000040800F2
:10000000FFFF0120217201086D7201086D72010865
:100010006D7201086D7201086D7201080000000028
:100020000000000000000000000000006D720108E8
:100030006D720108000000006D720108891400084B
:100040006D7201086D7201086D7201086D72010810
:100050006D7201086D7201086D7201086D72010800
:100060006D7201086D7201086D7201086D720108F0
:100070006D7201086D7201086D7201086D720108E0
:100080006D7201086D7201086D7201086D720108D0
:100090006D7201086D7201086D7201086D720108C0
:1000A0006D7201086D7201086D7201086D720108B0
:1000B0006D7201086D7201086D7201086D720108A0
:1000C0006D7201086D7201086D7201086D72010890
:1000D0006D7201086D7201086D7201086D72010880
:1000E0006D7201086D7201086D7201086D72010870
:1000F0006D7201086D7201086D7201086D72010860
:100100006D7201086D7201086D7201086D7201084F
:100110006D7201086D720108C93B00086D7201081B
:100120006D7201086D7201086D7201086D7201082F
:100130006D7201086D7201086D7201086D7201081F
:100140006D7201086D7201086D7201089914000842
:100150006D7201086D7201086D7201086D720108FF
:100160006D7201086D7201086D7201086D720108EF
:100170006D7201086D7201086D72010800000000C7
:080180006D7201086D720108A7
:1001A00080B500AF094B0A4A1A60084B1B68184615
:1001B0000849002216F028FE044B1B681846064921
:1001C00016F03CFE00235BB2184680BDAC0B00204D
:1001D00020140020B40B0020B00B002080B400AF2E
:1001E00000235BB21846BD465DF8047B704700BF34
:1001F00080B483B000AF03463960FB711346BB8007
:10020000FB79232B4AD801A252F823F09D02000863
:100210009D0200089D0200089D0200089D02000842
:100220009D0200089D0200089D0200089D02000832
:100230009D0200089D0200089D0200089D02000822
:100240009D0200089D0200089D0200089D02000812
:100250009D0200089D0200089D0200089D02000802
:100260009D0200089D0200089D0200089D020008F2
:100270009D0200089D0200089D0200089D020008E2
:100280009D0200089D0200089D0200089D020008D2
:100290009D0200089D0200089D02000800BF002387
:1002A0005BB218460C37BD465DF8047B704700BF53
:1002B00080B582B000AF786039600A4B1B68184681
:1002C000796816F0BBFD074B1B68184616F0F4FD65
:1002D0007868396802F0E0F900235BB21846083705
:1002E000BD4680BDAC0B002080B584B000AF786007
:1002F0000B467B800023FB730F4B1B68D3F818322F
:10030000BB60BB68D3F81432002B01D001230FE08F
:10031000094B1A687B88104679681A4616F074FDF6
:10032000054B1B68184616F09DFD0346FB73FB7BCF
:1003300018461037BD4680BDAC0B002080B588B094
:1003400000AF78607B681B68B3F1A04F2CD14FF4ED
:10035000C053FB6002233B6100237B610323BB612D
:100360000A23FB6107F10C031148194606F068F9EE
:10037000104A104B5B6B43F0800353630023BB6058
:100380000C4A0C4B5B6C43F480435364094B5B6C2D
:1003900003F48043BB60BB684320002100220DF0C2
:1003A000ABFA43200DF0C4FA2037BD4680BD00BF34
:1003B000000002400038024080B582B000AF786093
:1003C0007B681B68B3F1A04F0DD1084A074B5B6BEC
:1003D00023F08003536306484FF4C05106F0CEFA71
:1003E00043200DF0B3FA0837BD4680BD0038024007
:1003F0000000024080B582B000AF78607B68D3F81F
:10040000B4237B6803F561731046194615F072FB3F
:100410000837BD4680BD00BF80B582B000AF7860B0
:100420000B46FB707B68D3F8B403FA7879681346FF
:10043000DB009B1A9B000B4403F5F0739B68FA7872
:1004400011461A4615F0A0FB0837BD4680BD00BF17
:1004500080B582B000AF78600B46FB707B68D3F844
:10046000B403FA7879681346DB009B1A9B000B44AF
:1004700040335B68FA7811461A4615F0E1FB0837FD
:10048000BD4680BD80B582B000AF78607B68D3F890
:10049000B433184615F0CCFC0837BD4680BD00BF0C
:1004A00080B584B000AF78600123FB737B68DB68A4
:1004B000002B02D0022B03D005E00023FB7305E0E4
:1004C0000123FB7302E00123FB7300BF7B68D3F8B9
:1004D000B423FB7B1046194615F072FC7B68D3F8F9
:1004E000B433184615F03CFC1037BD4680BD00BF44
:1004F00080B582B000AF78607B68D3F8B43318461B
:1005000015F06EFC7B681B6803F560631A467B6818
:100510001B6803F560631B6843F0010313607B688D
:100520001B6A002B05D0044A034B1B6943F00603EA
:1005300013610837BD4680BD00ED00E080B582B094
:1005400000AF78607B68D3F8B433184615F05EFCD2
:100550000837BD4680BD00BF80B582B000AF78606F
:100560000B46FB707B68D3F8B423FB781046194622
:1005700015F086FC0837BD4680BD00BF80B582B04F
:1005800000AF78600B46FB707B68D3F8B423FB7830
:100590001046194615F066FC0837BD4680BD00BF01
:1005A00080B582B000AF78607B68D3F8B43318466A
:1005B00015F074FC0837BD4680BD00BF80B582B021
:1005C00000AF78607B68D3F8B433184615F072FC3E
:1005D0000837BD4680BD00BF80B582B000AF7860EF
:1005E0007B681B78002B3AD11F4A7B68C2F8B43372
:1005F0007B681D4AC3F820221B4B4FF0A0421A60B3
:10060000194B07225A60184B0222DA60164B00225F
:100610001A61154B00225A61134B02229A61124B48
:100620000022DA61104B00221A620F4B00225A623C
:100630000D4B0122DA620C4B00221A630A4802F0C9
:10064000EDF80948802106F073FB0748002140229D
:1006500006F022FB04480121802206F01DFB002346
:1006600018460837BD4680BDB80B002080B582B063
:1006700000AF78607B68D3F82032184602F0D6F9D4
:10068000002318460837BD4680BD00BF80B582B044
:1006900000AF78607B68D3F82032184602F0F6F994
:1006A000002318460837BD4680BD00BF80B582B024
:1006B00000AF78607B68D3F82032184602F008FA61
:1006C000002318460837BD4680BD00BF80B582B004
:1006D00000AF7860084611461A460346FB700B4689
:1006E000BB7013463B807B68D3F82002F9783A88C8
:1006F000BB7802F0B9FE002318460837BD4680BD1E
:1007000080B582B000AF78600B46FB707B68D3F891
:100710002022FB781046194602F00EFF00231846EF
:100720000837BD4680BD00BF80B582B000AF78609D
:100730000B46FB707B68D3F82022FB7810461946E5
:1007400003F0BAF8002318460837BD4680BD00BF45
:1007500080B582B000AF78600B46FB707B68D3F841
:100760002022FB781046194603F000F800231846B3
:100770000837BD4680BD00BF80B582B000AF78604D
:100780000B46FB707B68D3F82022FB781046194695
:1007900003F048F8002318460837BD4680BD00BF67
:1007A00080B485B000AF78600B46FB707B68D3F8EF
:1007B0002032FB60FB785BB2002B0BDAFB7803F096
:1007C0007F02F9681346DB009B1A9B000B44383309
:1007D0009B780BE0FB7803F07F02F9681346DB009F
:1007E0009B1A9B000B4403F5EC739B791846143756
:1007F000BD465DF8047B704780B582B000AF78607D
:100800000B46FB707B68D3F82022FB781046194614
:1008100002F008FE002318460837BD4680BD00BF21
:1008200080B584B000AFF8607A601A460B46FB7260
:1008300013463B81FB68D3F820123B89FA7A0846BD
:1008400011467A6802F038FF002318461037BD467B
:1008500080BD00BF80B584B000AFF8607A601A46F2
:100860000B46FB7213463B81FB68D3F820123B8991
:10087000FA7A084611467A6802F0A8FE0023184664
:100880001037BD4680BD00BF80B582B000AF786034
:100890000B46FB707B68D3F82022FB781046194684
:1008A00002F0F0FE034618460837BD4680BD00BF83
:1008B00080B582B000AF7860786805F0DDFA08375F
:1008C000BD4680BD80B584B000AF7860154B1B6815
:1008D000002B02D1134B144A1A60124B1B68FB60A9
:1008E000124B1B681B68BB60BB68A3F50073BB6041
:1008F0000C4B1A687B681A44BB689A4207D916F0F9
:10090000BFFC02460C2313604FF0FF3306E0054B9B
:100910001A687B681344034A1360FB681846103753
:10092000BD4680BDC80A0020501B002008ED00E035
:1009300080B483B000AF786039603B68002B05D08D
:100940003B6800221A603B6800225A600023184668
:100950000C37BD465DF8047B704700BF80B400AF24
:10096000BD465DF8047B704780B400AF0123184694
:10097000BD465DF8047B704780B582B000AF7860FB
:10098000396016F07DFC0246162313604FF0FF33EA
:1009900018460837BD4680BD80B582B000AF78608C
:1009A00078684FF0FF31FFF7E7FFFEE780B586B0CC
:1009B00000AFF860B9607A6000237B6109E0BB6832
:1009C0005A1CBA601B781846AFF300807B6901336C
:1009D0007B617A697B689A42F1DB7B68184618373D
:1009E000BD4680BD80B483B000AF78604FF0FF3368
:1009F00018460C37BD465DF8047B704780B483B061
:100A000000AF786039603B684FF400525A600023B1
:100A100018460C37BD465DF8047B704780B483B040
:100A200000AF7860012318460C37BD465DF8047BA3
:100A3000704700BF80B485B000AFF860B9607A60DD
:100A4000002318461437BD465DF8047B704700BF8D
:100A500090B587B000AFF860B9607A6000237B6121
:100A60000AE0BC68631CBB60AFF300800346DBB2E6
:100A700023707B6901337B617A697B689A42F0DB82
:100A80007B6818461C37BD4690BD00BF0EB480B4CD
:100A900082B000AF78604FF0FF3318460837BD468C
:100AA0005DF8047B03B0704780B582B000AF78601A
:100AB00016F0E6FB02460A2313604FF0FF33184698
:100AC0000837BD4680BD00BF80B582B000AF7860FA
:100AD00016F0D6FB0246022313604FF0FF33184690
:100AE0000837BD4680BD00BF80B483B000AF7860DA
:100AF0004FF0FF3318460C37BD465DF8047B704756
:100B000080B483B000AF786039603B684FF4005226
:100B10005A60002318460C37BD465DF8047B7047C9
:100B200080B582B000AF7860396016F0A9FB02464C
:100B30001F2313604FF0FF3318460837BD4680BDB2
:100B400080B500AF16F09CFB02460B2313604FF0FC
:100B5000FF33184680BD00BF80B584B000AFF86099
:100B6000B9607A6016F08CFB02460C2313604FF0DC
:100B7000FF3318461037BD4680BD00BF80B582B038
:100B800000AF78600B46FB707B68002B09D07B6858
:100B90001B68FA781A707B681B685A1C7B681A609D
:100BA00004E0FB1C18460121FFF79EFB0837BD46F9
:100BB00080BD00BF2DE9F04184B000AFF860B9609E
:100BC0007A603B6000244FF020087B68002B17DD23
:100BD0000025BE6801E0013501363378002BFAD1DB
:100BE0007B689D4202DB00237B6002E07B685B1B2D
:100BF0007B603B6803F00203002B01D04FF030080C
:100C00003B6803F00103002B0DD109E05FFA88F384
:100C1000F8681946FFF7B2FF01347B68013B7B603F
:100C20007B68002BF2DC09E0BB681B78F86819468A
:100C3000FFF7A4FF0134BB680133BB60BB681B78BE
:100C4000002BF1D109E05FFA88F3F8681946FFF745
:100C500095FF01347B68013B7B607B68002BF2DCF5
:100C6000234618461037BD46BDE8F0812DE9F04314
:100C700089B000AFF860B9607A603B604FF000095E
:100C80000026BD68BB68002B0DD130233B750023C7
:100C90007B7507F11403F86819463A6C7B6CFFF713
:100CA00089FF034646E03B68002B0AD07B680A2B8D
:100CB00007D1BB68002B04DA4FF00109BB685B4227
:100CC0001D4607F114040B340023237015E07B68E4
:100CD000B5FBF3F203FB02F3EB1A9846B8F1090FE8
:100CE00002DDBB6C3A3B9844013C5FFA88F3303339
:100CF000DBB223707B68B5FBF3F5002DE7D1B9F1CA
:100D0000000F0FD03B6C002B09D07B6C03F002036B
:100D1000002B04D001363B6C013B3B6402E0013CFC
:100D20002D232370F86821463A6C7B6CFFF742FF55
:100D30000346334418462437BD46BDE8F08300BF60
:100D40002DE9F0418AB004AFF860B9607A60002400
:100D5000C7E0BB681B78252B40F0B980BB68013326
:100D6000BB6000263546BB681B78002B00D1BDE078
:100D7000BB681B78252B00D1A9E0BB681B782D2B05
:100D800003D1BB680133BB60012604E0BB680133BB
:100D9000BB6046F00206BB681B78302BF6D00BE038
:100DA0002B469B002B445B001D46BB681B78303BE9
:100DB0001D44BB680133BB60BB681B782F2B03D974
:100DC000BB681B78392BEBD9BB681B78732B13D10D
:100DD0007B681A1D7A601B689846B8F1000F01D035
:100DE000434600E0484BF86819462A463346FFF769
:100DF000E1FE03461C4471E0BB681B78642B10D1F4
:100E00007B681A1D7A601A68009501966123029327
:100E1000F86811460A220123FFF728FF03461C4405
:100E20005CE0BB681B78782B10D17B681A1D7A6058
:100E30001A680095019661230293F8681146102202
:100E40000023FFF713FF03461C4447E0BB681B78F1
:100E5000582B10D17B681A1D7A601A68009501968C
:100E600041230293F868114610220023FFF7FEFE8B
:100E700003461C4432E0BB681B78752B10D17B689D
:100E80001A1D7A601A680095019661230293F8682A
:100E900011460A220023FFF7E9FE03461C441DE029
:100EA000BB681B78632B19D17B681A1D7A601B689D
:100EB000DBB23B7500237B7507F11403F868194614
:100EC0002A463346FFF776FE03461C4406E0BB681D
:100ED0001B78F8681946FFF751FE0134BB680133EF
:100EE000BB60BB681B78002B7FF433AFFB68002B23
:100EF00003D0FB681B6800221A7023461846183777
:100F0000BD46BDE8F08100BF0C7D01080FB480B57F
:100F100082B000AF07F114037B60002039697A6862
:100F2000FFF70EFF034618460837BD46BDE8804070
:100F300004B070470FB480B582B000AF07F114035E
:100F40003B60094839693A68FFF7FAFE786006485D
:100F50000421FFF7C9F97B6818460837BD46BDE88C
:100F6000804004B0704700BF700F002080B500AF14
:100F700007200CF0B7FC6FF00B00002100220CF0F2
:100F8000BBFC6FF00A00002100220CF0B5FC6FF0F2
:100F90000900002100220CF0AFFC6FF003000021DB
:100FA00000220CF0A9FC4FF0FF30002100220CF0D1
:100FB000A3FC80BD80B483B000AF00237B600F4AE8
:100FC0000E4B1B6B43F0800313630C4B1B6B03F046
:100FD00080037B607B6800233B60084A074B1B6BE8
:100FE00043F001031363054B1B6B03F001033B60EC
:100FF0003B680C37BD465DF8047B70470038024003
:1010000080B588B000AF0023BB601F4A1E4B1B6B2E
:1010100043F0010313631C4B1B6B03F00103BB6024
:10102000BB6802233B6100237B610123BB61022378
:10103000FB610223FB6007F10C031448194605F01D
:10104000FFFA00237B60104A0F4B1B6C43F0080330
:1010500013640D4B1B6C03F008037B607B680C4B27
:101060004FF4D0429A610A4B06229A62084B4EF620
:101070006022DA62064B00229A63054B80221A60D6
:101080002037BD4680BD00BF00380240000002404E
:10109000000C004080B400AF064A064B1B6A43F0C8
:1010A00010031362034B01221A60BD465DF8047BF6
:1010B000704700BF000C004080B400AF074A074BE8
:1010C0001B6A23F010031362044A044B1B6823F0CD
:1010D00001031360BD465DF8047B7047000C0040BF
:1010E00080B483B000AF0346FB80044AFB8893635F
:1010F0000C37BD465DF8047B704700BF000C004014
:1011000080B58AB000AF0123BB610023FB610323DC
:101110003B6208237B6107F114034948194605F037
:101120008FFA47480821012205F042FD08237B6120
:1011300007F114034348194605F082FA4148082193
:10114000012205F035FD00233B613F4A3E4B1B6BFE
:1011500043F0010313633C4B1B6B03F001033B6142
:101160003B690023FB60384A374B1B6B43F001039C
:101170001363354B1B6B03F00103FB60FB6800231B
:10118000BB60314A304B1B6B43F0010313632E4BA2
:101190001B6B03F00103BB60BB680223BB61002330
:1011A000FB6103233B6205237B6280237B6107F1A4
:1011B00014032448194605F043FA20237B6107F104
:1011C00014032048194605F03BFA00237B601E4AB1
:1011D0001D4B5B6C43F4805353641B4B5B6C03F4FB
:1011E00080537B607B68194B194A1A60174B4FF488
:1011F00082725A60154B00229A60144B0022DA600A
:10120000124B00221A61114B00225A610F4B4FF40E
:1012100000729A610D4B2022DA610C4B00221A6297
:101220000A4B00225A62094B00229A62074B07229E
:10123000DA62064805F08EFD2837BD4680BD00BF46
:10124000001002400000024000380240C813002095
:101250000030014080B586B000AFF860B9607A60B8
:1012600016480821002205F0A3FC07F110031448DA
:10127000194604224FF0FF3305F02EFF0F480821D6
:10128000012205F095FC00237B617B699AB2FB6823
:101290001A8000237B617B699AB2BB681A803B6924
:1012A000002B14BF01230023DBB27B617B69DAB220
:1012B0007B681A701837BD4680BD00BF0000024031
:1012C000C813002080B582B000AF04F045FD00F0E7
:1012D00079F8FFF76FFE00F0E7F8012013F0B6FE93
:1012E000012013F02BFF002013F0B0FE002013F0BC
:1012F0003FFF022013F0AAFE022013F039FF38202E
:1013000000F034FB0020002100F0E8FC2948012116
:10131000002200F0A5FD00200A2100F0DFFC264895
:101320000121002200F09CFD0020142100F0D6FCD9
:1013300022480121002200F093FD00F035FCFFF768
:101340005FFE47F23050FFF7CBFEFFF7A3FE01230D
:10135000FB8001237B71642001F070F9184B93F836
:10136000FC31032B03D1002013F0E8FE02E0002043
:1013700013F0FEFE022013F015FFFB881846FFF75E
:10138000AFFE7B79002B03D0FB885B00FB8002E083
:10139000FB885B08FB80FB88B3F5004F01D100237D
:1013A0007B71FB88012B01D101237B71642004F048
:1013B00063FDD0E7147D0108247D0108347D010818
:1013C0002014002080B594B000AF0023BB602B4AEE
:1013D0002A4B1B6C43F080531364284B1B6C03F0A7
:1013E0008053BB60BB6800237B60254A244B1B688D
:1013F00043F480431360224B1B6803F480437B60FB
:101400007B6801233B6201237B620223BB634FF4B1
:101410008003FB6304233B6448237B640223BB6497
:101420000323FB6407F12003184612F0AFFC0F23DF
:10143000FB6002233B6100237B614FF48053BB615F
:101440000023FB6107F10C031846022112F0B0FEE5
:1014500013F09EF802460B4BA3FB02239B09184690
:101460000CF088FA04200CF02FFB4FF0FF30002125
:1014700000220CF041FA5037BD4680BD00380240D2
:1014800000700040D34D621080B500AF04F0DAFC6C
:101490000CF036FB80BD00BF80B500AF014801F005
:1014A0003FFB80BDB80B002080B500AF084809495C
:1014B000002214F059FA0648074914F09FFA04482C
:1014C000064915F089FC024814F0B2FA80BD00BF4D
:1014D00020140020100000208401002000000020C3
:1014E00080B483B000AF03463960FB713B681222C1
:1014F0001A80034B18460C37BD465DF8047B7047D5
:101500002C00002080B483B000AF03463960FB712B
:101510003B6804221A80034B18460C37BD465DF821
:10152000047B70474000002080B582B000AF0346C6
:101530003960FB71FB79002B05D1084808493A68EE
:1015400015F0DAF804E0054805493A6815F0D4F8D2
:10155000034B18460837BD4680BD00BF447D0108D7
:101560004416002080B582B000AF03463960FB719D
:10157000044805493A6815F0BFF8034B1846083788
:10158000BD4680BD5C7D01084416002080B582B058
:1015900000AF03463960FB71FB79002B05D1084889
:1015A00008493A6815F0A8F804E0054805493A6882
:1015B00015F0A2F8034B18460837BD4680BD00BFA2
:1015C000707D01084416002080B582B000AF03464C
:1015D0003960FB71FB79002B05D1084808493A684E
:1015E00015F08AF804E0054805493A6815F084F8D2
:1015F000034B18460837BD4680BD00BF807D0108FB
:101600004416002080B582B000AF03463960FB71FC
:10161000FB79002B05D1084808493A6815F06CF8A9
:1016200004E0054805493A6815F066F8034B18468A
:101630000837BD4680BD00BF8C7D010844160020E0
:1016400080B594B000AF0023FB618C4A8B4B1B6BC1
:1016500043F002031363894B1B6B03F00203FB612E
:10166000FB690023BB61854A844B1B6B43F002037B
:101670001363824B1B6B03F00203BB61BB69002346
:101680007B617E4A7D4B1B6B43F0020313637B4BF4
:101690001B6B03F002037B617B6900233B61774A8C
:1016A000764B1B6B43F002031363744B1B6B03F00D
:1016B00002033B613B690023FB60704A6F4B1B6B6D
:1016C00043F0020313636D4B1B6B03F00203FB60DB
:1016D000FB680023BB60694A684B1B6B43F008033F
:1016E0001363664B1B6B03F00803BB60BB680123ED
:1016F0003B6400237B640323BB640223FB644FF43D
:101700000063FB6307F13C035D48194604F098FF52
:101710004FF48043FB6307F13C035948194604F03A
:101720008FFF4FF48053FB6307F13C035448194685
:1017300004F086FF52484FF48051012205F038FA38
:1017400002233B6401237B640223BB640523FB6407
:101750004FF40053FB6307F13C034948194604F07A
:101760006FFF4FF40043FB6307F13C034448194605
:1017700004F066FF02233B6400237B640323BB6405
:101780000223FB644FF48053FB6307F13C033D48A5
:10179000194604F055FF00237B60384A374B1B6C19
:1017A00043F004031364354B1B6C03F004037B60AC
:1017B0007B68354B354A1A60334B02225A60324BF4
:1017C00000229A60304B4FF6FF72DA602E4B0022F7
:1017D0001A612D4B00225A612B480EF043FF602303
:1017E0003B6200237B620023BB6200233B63002338
:1017F0007B6307F1200324481946002210F0BCFC4B
:10180000214800210EF09EFF00233B601B4A1B4B2A
:101810001B6C43F480431364184B1B6C03F480432C
:101820003B603B681A4B1B4A1A60194B4FF482729B
:101830005A60174B00229A60154B0022DA60144B55
:1018400000221A61124B00225A61114B4FF40072B0
:101850009A610F4B2022DA610D4B00221A620C4B69
:1018600000225A620A4B00229A62094B0722DA626E
:10187000074805F06FFA5037BD4680BD003802407A
:1018800000040240000C02408C13002000080040BD
:10189000C81300200038004080B582B000AF034676
:1018A000FB710B484FF48051002205F081F9FB1DBC
:1018B0000848194601224FF47A7305F0F1FA0448FA
:1018C0004FF48051012205F073F90837BD4680BD01
:1018D00000040240C813002080B582B000AF034668
:1018E0000A46FB711346BB71FB79012B02D0022B18
:1018F00011D021E0BB79002B06D011484FF4804174
:10190000012205F055F917E00D484FF480410022FF
:1019100005F04EF910E0BB79002B06D008484FF4D3
:101920000061012205F044F905E005484FF400612B
:10193000002205F03DF900BF0837BD4680BD00BF5D
:101940000004024080B485B000AF78600023FB60E3
:1019500002E0FB680133FB60FA687B689A42F8D3C7
:101960001437BD465DF8047B704700BF80B582B078
:1019700000AF0346FB71FFF763FE02200021FFF773
:10198000ABFF42F21070FFF7DDFF02200121FFF7ED
:10199000A3FF0020212100F025F80020142100F0F1
:1019A00021F8FB795BB2002B01DA7F23FB71FB7915
:1019B00063F07F03DBB20020194600F013F800202B
:1019C000202100F00FF800200C2100F00BF800F0AF
:1019D000DFF800200C2100F005F800F0B3F808371C
:1019E000BD4680BD80B582B000AF03460A46FB719C
:1019F0001346BB71FB79002B07D0012B00D009E007
:101A000001200121FFF768FF04E001200021FFF71A
:101A100063FF00BFBB791846FFF73EFF0837BD469E
:101A200080BD00BF80B582B000AF0346FB710020CF
:101A30002121FFF7D7FFFB795BB2002B01DA7F236F
:101A4000FB71FB7963F07F03DBB200201946FFF7DF
:101A5000C9FF00202021FFF7C5FF0837BD4680BD24
:101A600080B582B000AF0346FB710B46BB711346D5
:101A70007B71FB79532B00D94BE0BB792F2B00D91D
:101A800047E07B79002B1ED0FA79BB79DB08D8B20E
:101A90000146542303FB01F31344F979542202FB5A
:101AA00000F20A441C498A5CD0B2BA7902F00702FB
:101AB000012101FA02F2D2B201460A43D2B2D1B2F6
:101AC000154AD1541FE0FA79BB79DB08D8B2014638
:101AD000542303FB01F31344F979542202FB00F26F
:101AE0000A440D498A5CD0B2BA7902F0070201219A
:101AF00001FA02F2D2B2D243D2B201460A40D2B2C5
:101B0000D1B2054AD154F879B979FA79BB7900F0A4
:101B1000A9F80837BD4680BD4818002080B582B0BE
:101B200000AF0346FB71FB79012B04D000200D218F
:101B3000FFF758FF03E000200C21FFF753FF0837A1
:101B4000BD4680BD80B582B000AF00F021F8002313
:101B50007B6007E00D4A7B68134400221A707B68A3
:101B600001337B607B68B3F5FC7FF3D30020002159
:101B700000F0B4F80020002153222F2300F072F867
:101B800000F012F80837BD4680BD00BF481800209D
:101B900080B500AF00208021FFF724FF0020402106
:101BA000FFF720FF80BD00BF80B582B000AF0023EB
:101BB000FB713BE0264B1B781A46FB790133DB00B7
:101BC0009A4200DD2FE0FB79DB00224A1278934233
:101BD00000DD2EE0FB7943F04003DBB20020194624
:101BE000FFF700FF1C4B1B7863F07F03DBB2002084
:101BF0001946FFF7F7FE184B1B78BB710EE0FB7917
:101C0000542202FB03F2BB791344144AD35C012033
:101C10001946FFF7E7FEBB790133BB71104B1B7808
:101C2000BA799A42EBD9FB790133FB71FB79052B29
:101C3000C0D9094B53221A70094B00221A70044B69
:101C40002F221A70034B00221A700837BD4680BD40
:101C5000CE0A0020CF0A0020CC0A0020481800201D
:101C6000CD0A002090B482B000AF04460846114669
:101C70001A462346FB710346BB710B467B71134624
:101C80003B71124B1B78FA799A4202D20F4AFB79C8
:101C900013700F4B1B787A799A4202D90C4A7B79E0
:101CA00013700C4B1B78BA799A4202D2094ABB795D
:101CB0001370094B1B783A799A4202D9064A3B794C
:101CC00013700837BD4690BC704700BFCC0A002097
:101CD000CD0A0020CE0A0020CF0A002080B483B0B5
:101CE00000AF03460A46FB711346BB71054AFB79F8
:101CF0001370054ABB7913700C37BD465DF8047B41
:101D0000704700BF451800204418002080B584B0FB
:101D100000AF0346FB710B46BB7113467B717B79A9
:101D2000012B04D10423BB730623FB7303E00623BA
:101D3000BB730823FB73464B1B781A46BB7B1344CB
:101D4000542B09DD434B1A78FB7B1344DAB2414B29
:101D50001A703F4B00221A7000237B736AE0FB79F4
:101D60001F2B1CD97B79012B0CD1FB79A3F120020D
:101D7000797B394813465B0013440B4403441B78BA
:101D80003B730CE0FB79A3F12002797B33481346C7
:101D90005B0013445B000B4403441B783B733B7BA9
:101DA000002B06D1FB79002B03D0FB79202B00D030
:101DB0003DE00023FB7230E0BB79012B15D1244BB1
:101DC0001878244B1A78FB7A1344D9B23A7BFB7A01
:101DD00042FA03F303F00103002B14BF0123002395
:101DE000DBB21A46FFF73CFE14E0194B1878194B8A
:101DF0001A78FB7A1344D9B23A7BFB7A42FA03F39E
:101E000003F00103002B0CBF01230023DBB21A46B1
:101E1000FFF726FEFB7A0133FB72FA7AFB7B9A42CC
:101E2000CAD30B4B1B780133DAB2094B1A707B7B98
:101E300001337B737A7BBB7B013B9A428FDB044B84
:101E40001B780133DAB2024B1A701037BD4680BDE1
:101E50004518002044180020E47F01089C7D0108FB
:101E600080B582B000AF78600B46FB701346BB7044
:101E70000AE07B685A1C7A601978FA78BB780846C1
:101E800011461A46FFF742FF7B681B78002BF0D102
:101E90000837BD4680BD00BF90B585B000AF044691
:101EA000084611461A462346FB710346BB710B4692
:101EB0007B7113463B71FA797B799A4205D97B791C
:101EC000FB81FB797B71FB89FB71BA793B799A4283
:101ED00005D93B79FB81BB793B71FB89BB717B7970
:101EE0009AB2FB799BB2D31A9BB2BB813B799AB26F
:101EF000BB799BB2D31A9BB27B81B7F90C30002B14
:101F000010D1F979BA7997F82030084611461A4667
:101F1000FFF7A6FDBB790133BB713A79BB799A42D1
:101F2000EFD293E0B7F90A30002B10D1F979BA79E2
:101F300097F82030084611461A46FFF791FDFB79C5
:101F40000133FB717A79FB799A42EFD27EE0B7F9DF
:101F50000C20B7F90A309A423CDD7B895B009AB2CB
:101F6000BB89D31A9BB2FB8126E0F979BA7997F83D
:101F70002030084611461A46FFF772FDFB790133FF
:101F8000FB71B7F90E30002B0FDDBB790133BB714C
:101F9000B7F90A20B7F90C30D31A9BB25B009AB29A
:101FA000FB8913449BB2FB8106E07B895B009AB2FC
:101FB000FB8913449BB2FB81FA797B799A42D4D195
:101FC000F979BA7997F82030084611461A46FFF792
:101FD00047FD3BE0BB895B009AB27B89D31A9BB279
:101FE000FB8126E0F979BA7997F820300846114646
:101FF0001A46FFF735FDBB790133BB71B7F90E30D7
:10200000002B0FDDFB790133FB71B7F90A20B7F91B
:102010000C30D31A9BB25B009AB2FB8913449BB27B
:10202000FB8106E07B895B009AB2FB8913449BB27B
:10203000FB81BA793B799A42D4D1F979BA7997F888
:102040002030084611461A46FFF70AFD1437BD46F0
:1020500090BD00BF90B585B002AF0446084611465A
:102060001A462346FB710346BB710B467B71134630
:102070003B71F879B9797A79BC793B7E0093234634
:10208000FFF70AFFF879B979FA793C793B7E00933A
:102090002346FFF701FF7879B9797A793C793B7E5D
:1020A00000932346FFF7F8FEF87939797A793C797D
:1020B0003B7E00932346FFF7EFFE0C37BD4690BDF5
:1020C00090B585B002AF0446084611461A4623462D
:1020D000FB710346BB710B467B7113463B710BE0F2
:1020E000F879B9797A79BC793B7E00932346FFF77A
:1020F000D3FEBB790133BB71BA793B799A42EFD3F6
:102100000C37BD4690BD00BF90B587B000AF044608
:10211000084611461A462346FB710346BB710B461F
:102120007B7113463B717B799BB2C3F101039BB278
:10213000FB820123BB827B799BB21A46D203D31A5E
:102140005B009BB27B8200233B827B79FB81BA7967
:102150007B791344DAB2F9793B79084611461A467D
:10216000FFF77EFCBA797B79D31ADAB2F9793B7939
:10217000084611461A46FFF773FCFA797B79134437
:10218000D9B2BA793B79084611461A46FFF768FC7E
:10219000FA797B79D31AD9B2BA793B7908461146D4
:1021A0001A46FFF75DFC9FE0B7F91630002B0DDBF8
:1021B000FB899BB2013B9BB2FB817B8A02339BB2C2
:1021C0007B82FA8A7B8A13449BB2FB823B8A9BB256
:1021D00001339BB23B82BB8A02339BB2BB82FA8A39
:1021E000BB8A13449BB2FB823B8ADAB2FB7913446D
:1021F000D9B2FB89DAB2BB791344DAB23B7908462B
:1022000011461A46FFF72CFC3B8ADBB2FA79D31A47
:10221000D9B2FB89DAB2BB791344DAB23B7908460A
:1022200011461A46FFF71CFC3B8ADAB2FB791344CD
:10223000D9B2FB89DBB2BA79D31ADAB23B79084654
:1022400011461A46FFF70CFC3B8ADBB2FA79D31A27
:10225000D9B2FB89DBB2BA79D31ADAB23B79084634
:1022600011461A46FFF7FCFBFB89DAB2FB791344EF
:10227000D9B23B8ADAB2BB791344DAB23B79084669
:1022800011461A46FFF7ECFBFB89DBB2FA79D31A49
:10229000D9B23B8ADAB2BB791344DAB23B79084649
:1022A00011461A46FFF7DCFBFB89DAB2FB791344CF
:1022B000D9B23B8ADBB2BA79D31ADAB23B79084693
:1022C00011461A46FFF7CCFBFB89DBB2FA79D31A29
:1022D000D9B23B8ADBB2BA79D31ADAB23B79084673
:1022E00011461A46FFF7BCFBB7F91020B7F90E30BC
:1022F0009A42FFF659AF1C37BD4690BDB0B588B0C5
:1023000002AF0446084611461A462346FB710346AF
:10231000BB710B467B7113463B717B799BB2C3F15A
:1023200001039BB2FB820123BB827B799BB21A46DD
:10233000D203D31A5B009BB27B8200233B827B7962
:10234000FB81BA797B791344DAB2F9793B79084693
:1023500011461A46FFF784FBBA797B79D31ADAB2B1
:10236000F9793B79084611461A46FFF779FBFA7965
:102370007B791344D9B2BA793B79084611461A469B
:10238000FFF76EFBFA797B79D31AD9B2BA793B7928
:10239000084611461A46FFF763FBFA797B79D31A90
:1023A000D8B2FA797B791344DAB2B979BC793B793E
:1023B00000932346FFF770FD87E0B7F91630002B36
:1023C0000DDBFB899BB2013B9BB2FB817B8A023315
:1023D0009BB27B82FA8A7B8A13449BB2FB823B8A44
:1023E0009BB201339BB23B82BB8A02339BB2BB825E
:1023F000FA8ABB8A13449BB2FB823B8ADBB2FA792E
:10240000D31AD8B2FB89DAB2BB791344D9B23B8A6A
:10241000DAB2FB791344DDB2FB89DAB2BB7913443B
:10242000DCB23B7900932A462346FFF735FD3B8A11
:10243000DAB2FB791344D8B2FB89DBB2BA79D31A8A
:10244000D9B23B8ADBB2FA79D31ADDB2FB89DBB2AF
:10245000BA79D31ADCB23B7900932A462346FFF7B8
:102460001BFDFB89DAB2FB791344D8B23B8ADAB29E
:10247000BB791344D9B2FB89DBB2FA79D31ADDB246
:102480003B8ADAB2BB791344DCB23B7900932A462B
:102490002346FFF701FDFB89DAB2FB791344D8B27A
:1024A0003B8ADBB2BA79D31AD9B2FB89DBB2FA79AB
:1024B000D31ADDB23B8ADBB2BA79D31ADCB23B79EC
:1024C00000932A462346FFF7E7FCB7F91020B7F937
:1024D0000E309A42FFF671AF1837BD46B0BD00BF4F
:1024E00080B483B000AF0346FB71FB79642B01D944
:1024F0006423FB71054B1B68FA79054931F81220FA
:102500005A630C37BD465DF8047B70478C1300207E
:102510004400002090B583B000AF786039601A4B5A
:102520001B88092B27D8184B1B881C463B681B6847
:10253000184614F09DFE03469AB2144B23F824204B
:10254000114B1B881C463B6804331B68184614F06B
:102550008FFE034699B20D4AA30013440A465A80DF
:10256000094B1B8801339AB2074B1A800848FEF7C3
:10257000CDFC002304E00748FEF7C8FC4FF0FF3312
:1025800018460C37BD4690BDD00A0020441A0020E2
:10259000248101082881010890B585B000AF7860DA
:1025A00039600023FB8111E0F989FB890C4A32F87C
:1025B00023301C46FB890A4A9B0013445B88094868
:1025C0002246FEF7A3FCFB890133FB81064B1B88E7
:1025D000FA899A42E8D3002318461437BD4690BDC5
:1025E000441A002030810108D00A002080B582B052
:1025F00000AF78603960054B00221A800448FEF76E
:1026000085FC002318460837BD4680BDD00A00204F
:102610002481010880B582B000AF786039603B68E2
:102620001B68184614F024FE0346DAB2024B1A70F7
:1026300018460837BD4680BDD20A002080B582B05A
:1026400000AF7860084B1B78002B00D108E0074BE7
:102650001A687B681344054A1360002000F008F8EC
:102660000837BD4680BD00BFD20A0020401A0020B6
:1026700080B582B000AF0346FB80054B1A68FB882B
:10268000044811461A46FEF741FC0837BD4680BD96
:10269000401A00204C81010880B584B000AF7860FA
:1026A00039600023FB7336E0FB7B7A6813441B78A8
:1026B0000A2B06D00D2B04D0002B12D14FF0FF3384
:1026C0002FE01A4B1B781A46194B0021995400F041
:1026D00033F80346002B03D01648FEF717FC17E02B
:1026E00016E0124B1B787E2B0FD8104B1B78194627
:1026F000FB7B7A6813441A780D4B5A540B4B1B78AA
:102700000133DAB2094B1A7002E06FF0010308E0FE
:10271000FB7B0133FB73FA7B3B681B689A42C3D394
:10272000002318461037BD4680BD00BFD30A0020E5
:102730006C1A0020BC81010880B58AB000AF00236C
:10274000FB612023BB803B1D2A48194615F056F833
:1027500038621DE0FB69042B02D14FF0FF3344E0E7
:10276000FB69002B02D13B6A7B620BE0FB69013BFA
:102770009B0007F1280213443A6A43F8202CFB69B6
:102780000133FB613B1D0020194615F037F8386214
:102790003B6A002BDED1184B00221A700023FB7617
:1027A0001BE0FB7E154A52F833301846796A14F064
:1027B000CBFB0346BB76BB7E002B0BD1FB7E0F4AC7
:1027C000DB0013445B6807F10802F869114698477B
:1027D00000230AE0FB7E0133FB76FB7E074A52F8BA
:1027E0003330002BDDD16FF0010318462837BD468A
:1027F00080BD00BF6C1A0020D30A00201001002009
:1028000080B582B000AF786039600348FEF77EFB88
:1028100018460837BD4680BDC4810108F0B58FB0A9
:102820000AAF78600023FB607B68002B01D1012395
:10283000F7E07B68032283F881237868FDF77EFD4B
:102840007B681B68184601F02BFA7B68D3F800E020
:102850007E686D4606F110040FCC0FC50FCC0FC576
:1028600094E8030085E80300331D0ECB704601F0A9
:10287000B3F97B681B681846002101F023FA002396
:10288000FB604CE07968FA681346DB009B1A9B00FA
:102890000B44383301225A70FB68D8B27968FA6861
:1028A0001346DB009B1A9B000B44383302461A7018
:1028B000FB6898B27968FA681346DB009B1A9B00A4
:1028C0000B4438330246DA807968FA681346DB0035
:1028D0009B1A9B000B4438330022DA707968FA683F
:1028E0001346DB009B1A9B000B44403300221A6006
:1028F0007968FA681346DB009B1A9B000B4440334F
:1029000000225A607968FA681346DB009B1A9B0024
:102910000B44483300225A60FB680133FB60FB68BC
:102920000E2BAFD90023FB605AE07968FA68134692
:10293000DB009B1A9B000B4403F5EC7300225A71D9
:10294000FB68D8B27968FA681346DB009B1A9B00D3
:102950000B4403F5EC7302461A71FB6898B2796870
:10296000FA681346DB009B1A9B000B44383302467F
:10297000DA807968FA681346DB009B1A9B000B44E7
:1029800003F5EC730022DA717968FA681346DB000C
:102990009B1A9B000B4403F5F07300225A60796880
:1029A000FA681346DB009B1A9B000B4403F5F07397
:1029B00000229A607968FA681346DB009B1A9B0034
:1029C0000B4403F5F47300229A607B681A68FB6875
:1029D00040339B00134400225A60FB680133FB60C4
:1029E000FB680E2BA1D97B68D3F800E07E686D46AA
:1029F00006F110040FCC0FC50FCC0FC594E80300EF
:102A000085E80300331D0ECB704601F083F97B6827
:102A1000012283F881237B681B68184602F0C0FA04
:102A2000002318461437BD46F0BD00BF80B582B004
:102A300000AF78607B68002B01D101230EE07B683A
:102A4000032283F88123786800F042F87868FDF764
:102A5000B3FC7B68002283F88123002318460837E3
:102A6000BD4680BD80B483B000AF78600C37BD46F2
:102A70005DF8047B704700BF80B483B000AF78601E
:102A80000C37BD465DF8047B704700BF80B582B04F
:102A900000AF78607B6893F88033012B01D102236B
:102AA00012E07B68012283F880237B681B6818464C
:102AB00002F05EFA7B681B68184601F0DFF87B685D
:102AC000002283F88023002318460837BD4680BDC6
:102AD00080B582B000AF78607B6893F88033012BBB
:102AE00001D1022317E07B68012283F880237B68F1
:102AF0001B68184601F0D4F87B681B68184602F082
:102B0000CDF97B681B68184602F04AFA7B68002200
:102B100083F88023002318460837BD4680BD00BFD8
:102B200080B58AB000AF78607B681B68BB6100230A
:102B30007B6200233B6200237B610023FB61002357
:102B40003B610023FB607B681B68184602F0DCFADF
:102B50000346002B40F0B0837B681B68184602F0E8
:102B600037FA0346002B00D1A6E37B681B681846A2
:102B700002F02EFA034603F00203002B07D07B6815
:102B80001B687A681268526902F002025A617B6817
:102B90001B68184602F01CFA034603F40023002BBE
:102BA00000F0B3800023FB617B681B68184602F0CD
:102BB00025FA3862A5E03B6A03F00103002B00F020
:102BC0009A807B681A68FB69DBB21046194602F0EE
:102BD00045FA78617B6903F00103002B6CD0FB6937
:102BE0005A01BB69134403F530631A46012393600D
:102BF0007B681B69012B3CD17968FA691346DB00BD
:102C00009B1A9B000B4403F5F0735A68FB6959014A
:102C1000BB690B4403F530631B69C3F31203D11A7C
:102C20007868FA691346DB009B1A9B00034403F59E
:102C3000F87359607968FA691346DB009B1A9B00A8
:102C40000B4403F5F07399687868FA691346DB0062
:102C50009B1A9B00034403F5F0735B681944786882
:102C6000FA691346DB009B1A9B00034403F5F073DB
:102C70009960FB69DBB278681946FDF7CDFB7B688C
:102C80001B69012B18D1FB69002B15D17968FA69F2
:102C90001346DB009B1A9B000B4403F5F4739B68FF
:102CA000002B09D17B681A687B6803F561731046B5
:102CB00001211A4602F06CFA7B6903F00803002B2D
:102CC0000BD07868FDF796FBFB695A01BB6913448A
:102CD00003F530631A46082393607B6903F0100301
:102CE000002B08D0FB695A01BB69134403F530631C
:102CF0001A4610239360FB690133FB613B6A5B0852
:102D00003B623B6A002B7FF456AF7B681B6818461A
:102D100002F05EF9034603F48023002B00F0C48028
:102D20007B681B68184602F081F938620023FB615A
:102D3000B6E03B6A03F00103002B00F0AB807B6838
:102D40001A68FB69DBB21046194602F0A3F97861F4
:102D50007B6903F00103002B5BD0FB69012202FABF
:102D600003F33B61BB6903F500631946BB6903F5D7
:102D700000635A6B3B69DB4313404B63FB695A01A9
:102D8000BB69134403F510631A46012393607B6803
:102D90001B69012B1BD17968FA691346DB009B1A6A
:102DA0009B000B44403359687868FA691346DB008E
:102DB0009B1A9B00034440331B6819447868FA69E6
:102DC0001346DB009B1A9B00034440335960FB69A8
:102DD000DBB278681946FDF73BFB7B681B69012B6A
:102DE00017D1FB69002B14D17968FA691346DB000F
:102DF0009B1A9B000B4448335B68002B09D17B680E
:102E00001A687B6803F56173104601211A4602F0C7
:102E1000BFF97B6903F00803002B08D0FB695A0156
:102E2000BB69134403F510631A46082393607B695A
:102E300003F01003002B08D0FB695A01BB6913444F
:102E400003F510631A46102393607B6903F0400377
:102E5000002B08D0FB695A01BB69134403F51063CA
:102E60001A46402393607B6903F00203002B08D0CD
:102E7000FB695A01BB69134403F510631A46022328
:102E800093607B6903F08003002B03D07868F969B5
:102E900000F08AFDFB690133FB613B6A5B083B6222
:102EA0003B6A002B7FF445AF7B681B68184602F035
:102EB0008FF80346002B15DABB6903F500631A4649
:102EC000BB6903F500635B6823F001035360786816
:102ED000FDF734FB7B681B687A681268526902F060
:102EE00000425A617B681B68184602F071F803467D
:102EF00003F40063002B12D0BB6903F500639B68E9
:102F000003F00103002B02D07868FDF7F1FA7B682B
:102F10001B687A681268526902F400625A617B6821
:102F20001B68184602F054F8034603F48053002B44
:102F300000F09380BB6903F500631A46BB6903F593
:102F400000635B6823F0010353607B681B681846CD
:102F5000002101F00BF800237B6214E07B6A5A0128
:102F6000BB69134403F510631A46FF2393607B6A21
:102F70005A01BB69134403F530631A46FF2393607B
:102F80007B6A01337B627B685A687B6A9A42E5D828
:102F9000BB6903F500631A464FF0FF339361BB69C9
:102FA00003F500631A46BB6903F50063DB6943F070
:102FB0000113D3617B681B6B002B18D0BB6903F531
:102FC00000631A46BB6903F50063D3F8843043F00D
:102FD0000B03C2F88430BB6903F500631A46BB6972
:102FE00003F500635B6C43F00B03536415E0BB69AE
:102FF00003F500631A46BB6903F500635B6943F0A0
:103000000B035361BB6903F500631A46BB6903F503
:1030100000631B6943F00B031361BB6903F5006395
:103020001A46BB6903F500631B6823F4FE63136053
:103030007B6819687B681B69DAB27B6803F561738A
:10304000084611461A4602F0A3F87B681B687A68A6
:103050001268526902F480525A617B681B681846F4
:1030600001F0B6FF034603F40053002B3DD07B680C
:103070001B68184602F056F87B681B687A6812686D
:10308000D26822F47052DA607B681B68184600F040
:10309000CDFF0346002B0FD17B680022DA607B68EE
:1030A0004FF400725A617B681B687A681268D268B4
:1030B00042F41052DA600DE07B680322DA607B682C
:1030C00040225A617B681B687A681268D26842F4B1
:1030D000A052DA607868FDF7E3F97B681B687A68CC
:1030E0001268526902F400525A617B681B681846E4
:1030F00001F06EFF034603F01003002B64D07B68E1
:103100001B687A681268926922F010029A61BB69A2
:103110001B6AFB60FB6803F00F021346DB009B1A7F
:103120009B0003F5EC737A6813440433BB60FB68BF
:1031300003F4F0135B0C022B26D1FA6847F6F07308
:103140001340002B38D0BB68D968FA6847F6F07393
:1031500013401B099BB2B8691A4601F097FDBB6882
:10316000DA68F96847F6F0730B401B091A44BB682C
:10317000DA60BB689A69F96847F6F0730B401B097F
:103180001A44BB689A6117E0FB6803F4F0135B0C08
:10319000062B11D17B6803F56173B86919460822C3
:1031A00001F074FDBB689A69F96847F6F0730B404B
:1031B0001B091A44BB689A617B681B687A681268AD
:1031C000926942F010029A617B681B68184601F010
:1031D000FFFE034603F00803002B0AD07868FDF7D2
:1031E00051F97B681B687A681268526902F008021C
:1031F0005A617B681B68184601F0EAFE034603F437
:103200008013002B0DD0FB69DBB278681946FDF7FF
:10321000B5F97B681B687A681268526902F48012FB
:103220005A617B681B68184601F0D2FE034603F41E
:103230000013002B0DD0FB69DBB278681946FDF74F
:103240008BF97B681B687A681268526902F4001275
:103250005A617B681B68184601F0BAFE034603F00A
:103260008043002B0AD07868FDF79AF97B681B68C9
:103270007A681268526902F080425A617B681B6862
:10328000184601F0A5FE034603F00403002B13D0FB
:103290007B681B685B68FB60FB6803F00403002B22
:1032A00002D07868FDF78AF97B681B687A68126833
:1032B0005168FA680A435A602837BD4680BD00BF8E
:1032C00080B483B000AF78600B46FB700C37BD460E
:1032D0005DF8047B704700BF80B483B000AF7860B6
:1032E0000B46FB700C37BD465DF8047B704700BF92
:1032F00080B483B000AF78600C37BD465DF8047BC6
:10330000704700BF80B483B000AF78600C37BD4613
:103310005DF8047B704700BF80B483B000AF786075
:103320000C37BD465DF8047B704700BF80B483B0A6
:1033300000AF78600C37BD465DF8047B704700BF76
:1033400080B483B000AF78600C37BD465DF8047B75
:10335000704700BF80B483B000AF78600B46FB704D
:103360000C37BD465DF8047B704700BF80B483B066
:1033700000AF78600B46FB700C37BD465DF8047BF0
:10338000704700BF80B483B000AF78600C37BD4693
:103390005DF8047B704700BF80B483B000AF7860F5
:1033A0000C37BD465DF8047B704700BF80B582B026
:1033B00000AF78607B6893F88033012B01D1022342
:1033C0000DE07B68012283F880237B681B68184628
:1033D00001F0CEFD7B68002283F88023002318468D
:1033E0000837BD4680BD00BF80B582B000AF7860B1
:1033F0007B6893F88033012B01D102230DE07B68B9
:10340000012283F880237B681B68184601F0C8FD01
:103410007B68002283F88023002318460837BD46C6
:1034200080BD00BF80B582B000AF78600B46FB70F6
:103430007B6893F88033012B01D102230FE07B6876
:10344000012283F880237B681A68FB7810461946AE
:1034500001F068FD7B68002283F880230023184672
:103460000837BD4680BD00BF80B584B000AF78602E
:10347000084611461A460346FB700B463B8013462E
:10348000BB700023FB72FB785BB2002B0BDAFB787E
:1034900003F07F021346DB009B1A9B0038337A68E7
:1034A0001344FB600CE0FB7803F07F021346DB0063
:1034B0009B1A9B0003F5EC737A6813440433FB609A
:1034C000FB7803F07F03DAB2FB681A70FB78DB0944
:1034D000DBB21A46FB685A703A88FB689A60FB6850
:1034E000BA78DA70FB685B78002B04D0FB681B7835
:1034F0009AB2FB68DA80BB78022B02D1FB6800220B
:103500001A717B6893F88033012B01D102230EE0FE
:103510007B68012283F880237B681B681846F96862
:1035200000F0BAFD7B68002283F88023FB7A1846FE
:103530001037BD4680BD00BF80B584B000AF786055
:103540000B46FB70FB785BB2002B0BDAFB7803F0C9
:103550007F021346DB009B1A9B0038337A681344C2
:10356000FB600CE0FB7803F07F021346DB009B1A44
:103570009B0003F5EC737A6813440433FB60FB781B
:1035800003F07F03DAB2FB681A70FB78DB09DBB269
:103590001A46FB685A707B6893F88033012B01D17F
:1035A00002230EE07B68012283F880237B681B687E
:1035B0001846F96800F0BEFE7B68002283F880237D
:1035C000002318461037BD4680BD00BF80B586B0C9
:1035D00000AFF8607A603B600B46FB72FB7A03F049
:1035E0007F021346DB009B1A9B0003F5EC73FA681D
:1035F000134404337B617B697A68DA607B693A68DB
:103600005A617B6900229A617B6900225A70FB7AB9
:1036100003F07F03DAB27B691A70FB681B69012B28
:1036200002D17A687B691A61FB6893F88033012BB9
:1036300001D1022322E0FB68012283F88023FB7A78
:1036400003F07F03002B0AD1FB681A68FB681B6933
:10365000DBB2104679691A4601F084F909E0FB688B
:103660001A68FB681B69DBB2104679691A4600F0DC
:1036700037FFFB68002283F88023002318461837A1
:10368000BD4680BD80B483B000AF78600B46FB7050
:10369000FB7803F07F0279681346DB009B1A9B00DE
:1036A0000B4403F5F8735B689BB218460C37BD46B4
:1036B0005DF8047B704700BF80B586B000AFF8604E
:1036C0007A603B600B46FB72FB7A03F07F02134685
:1036D000DB009B1A9B003833FA6813447B617B69DB
:1036E0007A68DA607B693A685A617B6900229A617C
:1036F0007B6901225A70FB7A03F07F03DAB27B699F
:103700001A70FB681B69012B02D17A687B691A6108
:10371000FB6893F88033012B01D1022322E0FB6880
:10372000012283F88023FB7A03F07F03002B0AD168
:10373000FB681A68FB681B69DBB2104679691A4698
:1037400001F010F909E0FB681A68FB681B69DBB23D
:10375000104679691A4600F0C3FEFB68002283F820
:103760008023002318461837BD4680BD80B584B03D
:1037700000AF78600B46FB70FB785BB2002B0BDA76
:10378000FB7803F07F021346DB009B1A9B00383363
:103790007A681344FB600AE0FA781346DB009B1A50
:1037A0009B0003F5EC737A6813440433FB60FB68F9
:1037B00001229A70FB7803F07F03DAB2FB681A707B
:1037C000FB78DB09DBB21A46FB685A707B6893F81A
:1037D0008033012B01D1022320E07B68012283F892
:1037E00080237B681B681846F96801F077FAFB783C
:1037F00003F07F03002B0CD17B6819687B681B6981
:10380000DAB27B6803F56173084611461A4601F087
:10381000BFFC7B68002283F8802300231846103702
:10382000BD4680BD80B584B000AF78600B46FB70AC
:10383000FB785BB2002B0BDAFB7803F07F021346B8
:10384000DB009B1A9B0038337A681344FB600AE064
:10385000FA781346DB009B1A9B0003F5EC737A6839
:1038600013440433FB60FB6800229A70FB7803F07A
:103870007F03DAB2FB681A70FB78DB09DBB21A4609
:10388000FB685A707B6893F88033012B01D10223C7
:103890000EE07B68012283F880237B681B68184652
:1038A000F96801F08DFA7B68002283F880230023F9
:1038B00018461037BD4680BD80B582B000AF786035
:1038C0000B46FB707B6893F88033012B01D10223F8
:1038D0001BE07B68012283F88023FB785BB2002B1E
:1038E00009DA7B681A68FB7803F07F0310461946F3
:1038F00000F03CFB04E07B681B68184600F05CFBB2
:103900007B68002283F88023002318460837BD46D1
:1039100080BD00BF80B485B000AF78607B681B6855
:10392000FB60FB6803F500639B6803F00103002B59
:103930000AD0FB6803F500631A46FB6803F50063D1
:103940005B6843F001035360002318461437BD46FB
:103950005DF8047B704700BF80B485B000AF78602D
:103960007B681B68FB60FB6803F500631A46FB6815
:1039700003F500635B6823F00103536000231846DE
:103980001437BD465DF8047B704700BF80B483B038
:1039900000AF78607B6893F88133DBB218460C3750
:1039A000BD465DF8047B704790B58BB002AF786080
:1039B00039607B681B687B610023FB6100233B61EE
:1039C0003A681346DB009B1A9B0038337A6813442D
:1039D000FB60FB685A69FB689B69D31AFB61FA6953
:1039E000FB689B689A4202D9FB689B68FB61FB6994
:1039F00003339B08BB612BE0FB685A69FB689B693A
:103A0000D31AFB61FA69FB689B689A4202D9FB688A
:103A10009B68FB61FB6903339B08BB61FB68D9684A
:103A20003B68DAB2FB699CB27B681B69DBB200932E
:103A30007869234601F0F4F8FB68DA68FB691A44F8
:103A4000FB68DA60FB689A69FB691A44FB689A6153
:103A50003B685A017B69134403F510639B699AB272
:103A6000BB699A4209D9FB689A69FB685B699A420B
:103A700003D2FB685B69002BBED1FB69002B10D120
:103A80003B68012202FA03F33B617B6903F50063A3
:103A900019467B6903F500635A6B3B69DB431340AE
:103AA0004B63002318462437BD4690BD80B58CB0CB
:103AB00000AF78600023BB6200237B623620796808
:103AC000002209F019FF362009F032FF0023BB6005
:103AD000244A244B1B6C43F010031364214B1B6CD2
:103AE00003F01003BB60BB6807F1100207F10C0381
:103AF0001046194610F070FEFB69BB62BB6A002BD2
:103B000003D110F06DFDF86204E010F069FD03468A
:103B10005B00FB62FB6A144AA2FB03239B0C013B84
:103B20007B62124B124A1A60104B40F2E732DA60A5
:103B30000E4A7B6A53600D4B00221A610B4B002228
:103B40009A600A480CF076F80346002B04D1074827
:103B50000CF028F9034600E0012318463037BD4633
:103B600080BD00BF0038024083DE1B43EC1A0020FA
:103B70000010004080B400AF054B1B68044A126877
:103B8000D26822F00102DA60BD465DF8047B70471E
:103B9000EC1A002080B400AF054B1B68044A126881
:103BA000D26842F00102DA60BD465DF8047B7047DE
:103BB000EC1A002080B582B000AF786002F042F9C4
:103BC0000837BD4680BD00BF80B500AF01480EF08C
:103BD000CFF880BDEC1A002084B080B582B000AF71
:103BE000786007F1140080E80E00BB6A012B20D139
:103BF0007B689B6B23F480327B689A637B68DB680D
:103C000023F4840323F040037A68D3607B68DB6885
:103C100023F440127B68DA607B6C012B05D17B6852
:103C2000DB6843F480127B68DA60786801F0F6FAAA
:103C30000CE07B68DB6843F040027B68DA60786800
:103C400001F0ECFA7B684FF480329A633B6A012BF7
:103C50000BD17B689B6843F00C027B689A607B68A1
:103C60009B6843F020027B689A600023184608375F
:103C7000BD46BDE8804004B0704700BF80B483B04B
:103C800000AF78607B689B6843F001027B689A60B4
:103C9000002318460C37BD465DF8047B704700BF13
:103CA00080B483B000AF78607B689B6823F001022A
:103CB0007B689A60002318460C37BD465DF8047B8C
:103CC000704700BF80B582B000AF78600B46FB70D4
:103CD0007B68DB6823F0C0427B68DA60FB78012BED
:103CE00006D17B68DB6843F000527B68DA6008E04D
:103CF000FB78002B05D17B68DB6843F080427B6852
:103D0000DA60322002F0B8F8002318460837BD46C2
:103D100080BD00BF84B080B584B000AF786007F18B
:103D20001C0080E80E000023FB607B689B6B43F463
:103D300000227B689A637B6C002B05D17B689B6BB0
:103D400043F400127B689A637B6803F560631A464C
:103D5000002313607B6803F500631A467B6803F554
:103D600000631B6813603B6B012B0CD17B6A002B3B
:103D700004D17868002100F041F908E07868012159
:103D800000F03CF903E07868032100F037F9786827
:103D9000102100F0EBF8786800F00EF97B6803F56D
:103DA00000631A46002313617B6803F500631A461B
:103DB000002353617B6803F500631A464FF0FF331D
:103DC00093617B6803F500631A460023D3610023E7
:103DD000FB6031E0FB685A017B68134403F5106314
:103DE0001B68002B0ADAFB685A017B68134403F551
:103DF00010631A464FF09043136008E0FB685A01C5
:103E00007B68134403F510631A4600231360FB68B4
:103E10005A017B68134403F510631A4600231361AB
:103E2000FB685A017B68134403F510631A46FF23AD
:103E30009360FB680133FB60FA69FB689A42C9D85A
:103E40000023FB6031E0FB685A017B68134403F5F3
:103E500030631B68002B0ADAFB685A017B68134445
:103E600003F530631A464FF09043136008E0FB6897
:103E70005A017B68134403F530631A46002313602C
:103E8000FB685A017B68134403F530631A4600232C
:103E90001361FB685A017B68134403F530631A46CB
:103EA000FF239360FB680133FB60FA69FB689A4269
:103EB000C9D87B6803F500631A467B6803F5006385
:103EC0001B6923F480731361BB6A012B17D17B68D4
:103ED00003F500631A46234B13637B6803F5006305
:103EE0001A467B6803F500631B6B43F4803343F091
:103EF000030313637B6803F500631B6BFB607B6844
:103F000000229A617B686FF080425A61BB6A002B85
:103F100005D17B689B6943F010027B689A617B68DE
:103F20009A69114B13437A6893617B6B002B05D020
:103F30007B689B6943F008027B689A617B6C012B6C
:103F400007D17B689B6943F0804343F004037A68A0
:103F50009361002318461037BD46BDE8804004B089
:103F6000704700BF0001800000383C8080B485B0FD
:103F700000AF786039600023FB603B689B0143F031
:103F800020027B681A61FB680133FB60FB68094A09
:103F9000934201D9032306E07B681B6903F02003E9
:103FA000002BF0D1002318461437BD465DF8047B82
:103FB000704700BF400D030080B485B000AF78604B
:103FC0000023FB607B6810221A61FB680133FB60F1
:103FD000FB68094A934201D9032306E07B681B6909
:103FE00003F01003002BF0D1002318461437BD4610
:103FF0005DF8047B704700BF400D030080B483B0C0
:1040000000AF78600B46FB707B6803F500631946D0
:104010007B6803F500631A68FB7813430B60002389
:1040200018460C37BD465DF8047B704780B485B0F8
:1040300000AF78600023FB737B6803F500639B6827
:1040400003F00603002B02D10023FB731CE07B6806
:1040500003F500639B6803F00603022B07D07B681F
:1040600003F500639B6803F00603062B02D10323CC
:10407000FB7309E07B6803F500639B6803F00603AC
:10408000042B01D10223FB73FB7B18461437BD467A
:104090005DF8047B704700BF80B483B000AF7860E8
:1040A00039603B685B78012B3ED17B6803F5006388
:1040B00019467B6803F50063DA693B681B7818468C
:1040C000012383409BB21343CB613B681B785A01A9
:1040D0007B68134403F510631B6803F40043002B53
:1040E0005CD13B681B785A017B68134403F510636D
:1040F00018463B681B785A017B68134403F510632C
:104100001A683B689B68C3F30A033968C978890455
:104110000B433968097889050B43134343F08053F7
:1041200043F40043036039E07B6803F500631946FC
:104130007B6803F50063DA693B681B781846012346
:1041400083401B041343CB613B681B785A017B6897
:10415000134403F530631B6803F40043002B1DD1A7
:104160003B681B785A017B68134403F5306318469B
:104170003B681B785A017B68134403F530631A6867
:104180003B689B68C3F30A033968C97889040B4309
:10419000134343F0805343F4004303600023184665
:1041A0000C37BD465DF8047B704700BF80B483B018
:1041B00000AF786039603B685B78012B53D13B6876
:1041C0001B785A017B68134403F510631B6803F4E2
:1041D0000043002B21D13B681B785A017B681344B4
:1041E00003F5106318463B681B785A017B6813443B
:1041F00003F510631A683B689B68C3F30A033968C8
:10420000C97889040B433968097889050B4313433E
:1042100043F0805343F4004303603B689B68C3F35F
:104220000A033A68D278920413433A6812789205E6
:104230001A433F4B1B68134343F0805343F400433E
:104240003B4A13607B6803F5006319467B6803F5FE
:104250000063DA6B3B681B781846012383409BB2EE
:104260001343CB635DE03B681B785A017B681344C2
:1042700003F530631B6803F40043002B41D13B6816
:104280001B785A017B68134403F5306318463B687A
:104290001B785A017B68134403F530631A683B6846
:1042A0009B68C3F30A033968C97889040B433968EA
:1042B000097889050B43134343F4004303607B688B
:1042C00003F530631A4A13603B681B785A017B6818
:1042D000134403F530631A46154B1A603B689B681C
:1042E000C3F30A033A68D278920413433A68127807
:1042F00092051A430E4B1B68134343F400430C4AC8
:1043000013607B6803F5006319467B6803F500635F
:10431000DA6B3B681B781846012383401B04134368
:10432000CB63002318460C37BD465DF8047B70470D
:10433000D40A002080B483B000AF786039603B6855
:104340005B78012B35D17B6803F5006319467B68E8
:1043500003F50063DA6B3B681B7818460123834042
:104360009BB2DB431340CB637B6803F500631946C4
:104370007B6803F50063DA693B681B781846012304
:1043800083409BB2DB431340CB613B681B785A01EF
:104390007B68134403F5106319463B681B785A0188
:1043A0007B68134403F510631B6823F400430B6020
:1043B00034E07B6803F5006319467B6803F500630E
:1043C000DA6B3B681B781846012383401B04DB43F0
:1043D0001340CB637B6803F5006319467B6803F5E4
:1043E0000063DA693B681B781846012383401B048D
:1043F000DB431340CB613B681B785A017B68134455
:1044000003F5306319463B681B785A017B681344F7
:1044100003F530631B6823F400430B600023184648
:104420000C37BD465DF8047B704700BF80B483B095
:1044300000AF786039603B685B78012B24D13B6822
:104440001B785A017B68134403F5106319463B68D7
:104450001B785A017B68134403F510631B6823F42F
:1044600000430B607B6803F5006319467B6803F526
:104470000063DA693B681B781846012383409BB2CE
:10448000DB431340CB6123E03B681B785A017B6818
:10449000134403F5306319463B681B785A017B6867
:1044A000134403F530631B6823F400430B607B68FF
:1044B00003F5006319467B6803F50063DA693B681E
:1044C0001B781846012383401B04DB431340CB6158
:1044D000002318460C37BD465DF8047B704700BFCB
:1044E00090B589B002AFF860B9601346FB71002344
:1044F000FB82BB685B78012B40F04681BB685B693F
:10450000002B3BD1BB681B785A01FB68134403F5B1
:1045100010631946BB681B785A01FB68134403F506
:1045200010631B6923F0FF5323F4C0130B61BB68B6
:104530001B785A01FB68134403F510631946BB68E6
:104540001B785A01FB68134403F510631B6943F49D
:1045500000230B61BB681B785A01FB68134403F509
:1045600010631946BB681B785A01FB68134403F5B6
:1045700010631B69DB0CDB040B6186E0BB681B78F6
:104580005A01FB68134403F510631946BB681B7896
:104590005A01FB68134403F510631B69DB0CDB0451
:1045A0000B61BB681B785A01FB68134403F5106369
:1045B0001946BB681B785A01FB68134403F5106366
:1045C0001B6923F0FF5323F4C0130B61BB681B78F6
:1045D0005A01FB68134403F510631846BB681B7847
:1045E0005A01FB68134403F510631A69BB685969E3
:1045F000BB689B680B44591EBB689B68B1FBF3F317
:10460000D9048C4B0B4013430361BB681B785A01E0
:10461000FB68134403F510631946BB681B785A0105
:10462000FB68134403F510631A69BB685B69C3F345
:10463000120313430B61BB68DB78012B25D1BB68E8
:104640001B785A01FB68134403F510631946BB68D5
:104650001B785A01FB68134403F510631B6923F0B0
:10466000C0430B61BB681B785A01FB68134403F518
:1046700010631946BB681B785A01FB68134403F5A5
:1046800010631B6943F000530B61FB79012B0BD1C5
:10469000BB681B785A01FB68134403F510631A4684
:1046A000BB681B69536116E0BB68DB78012B12D035
:1046B000BB685B69002B0ED0FB6803F500631946ED
:1046C000FB6803F500635A6BBB681B78184601232F
:1046D000834013434B63BB68DB78012B2ED1FB680F
:1046E00003F500639B6803F48073002B13D1BB6850
:1046F0001B785A01FB68134403F510631946BB6825
:104700001B785A01FB68134403F510631B6843F0E0
:1047100000530B6012E0BB681B785A01FB6813441E
:1047200003F510631946BB681B785A01FB681344F4
:1047300003F510631B6843F080530B60BB681B7864
:104740005A01FB68134403F510631946BB681B78D4
:104750005A01FB68134403F510631B6843F00443DC
:104760000B60BB68DB78012B40F0F580BB68D96833
:10477000BB681A78BB685B699CB2FB790093F868E8
:10478000234600F04DFAE6E0BB681B785A01FB684F
:10479000134403F530631946BB681B785A01FB6864
:1047A000134403F530631B69DB0CDB040B61BB684E
:1047B0001B785A01FB68134403F530631946BB6844
:1047C0001B785A01FB68134403F530631B6923F01F
:1047D000FF5323F4C0130B61BB685B69002B2BD123
:1047E000BB681B785A01FB68134403F53063194614
:1047F000BB681B785A01FB68134403F530631A69E0
:10480000BB689B68C3F3120313430B61BB681B783F
:104810005A01FB68134403F530631946BB681B78E3
:104820005A01FB68134403F530631B6943F400230A
:104830000B613CE00000F81FBB685A69BB689B68CD
:1048400013445A1EBB689B68B2FBF3F3FB82BB6840
:104850001B785A01FB68134403F530631946BB68A3
:104860001B785A01FB68134403F530631A69FB8A0D
:10487000DB0418463A4B034013430B61BB681B78BB
:104880005A01FB68134403F530631846BB681B7874
:104890005A01FB68134403F530631A69BB689B68CF
:1048A000F98A01FB03F3C3F3120313430361FB799A
:1048B000012B0AD1BB681B785A01FB68134403F52E
:1048C00030631A46BB68DB685361BB68DB78012B39
:1048D0002ED1FB6803F500639B6803F48073002B03
:1048E00013D1BB681B785A01FB68134403F530638E
:1048F0001946BB681B785A01FB68134403F5306303
:104900001B6843F000530B6012E0BB681B785A0130
:10491000FB68134403F530631946BB681B785A01E2
:10492000FB68134403F530631B6843F080530B604E
:10493000BB681B785A01FB68134403F530631946C2
:10494000BB681B785A01FB68134403F530631B688E
:1049500043F004430B60002318461C37BD4690BD4E
:104960000000F81F80B485B000AFF860B96013464E
:10497000FB71BB685B78012B40F0D180BB685B6941
:10498000002B3BD1BB681B785A01FB68134403F52D
:1049900010631946BB681B785A01FB68134403F582
:1049A00010631B6923F0FF5323F4C0130B61BB6832
:1049B0001B785A01FB68134403F510631946BB6862
:1049C0001B785A01FB68134403F510631B6943F419
:1049D00000230B61BB681B785A01FB68134403F585
:1049E00010631946BB681B785A01FB68134403F532
:1049F00010631B69DB0CDB040B615AE0BB681B789E
:104A00005A01FB68134403F510631946BB681B7811
:104A10005A01FB68134403F510631B69DB0CDB04CC
:104A20000B61BB681B785A01FB68134403F51063E4
:104A30001946BB681B785A01FB68134403F51063E1
:104A40001B6923F0FF5323F4C0130B61BB685A6941
:104A5000BB689B689A4203D9BB689A68BB685A6175
:104A6000BB681B785A01FB68134403F510631946B1
:104A7000BB681B785A01FB68134403F510631B697C
:104A800043F400230B61BB681B785A01FB68134495
:104A900003F510631946BB681B785A01FB68134481
:104AA00003F510631A69BB685B69C3F31203134310
:104AB0000B61FB79012B0BD1BB681B785A01FB689A
:104AC000134403F510631A46BB681B69536112E077
:104AD000BB685B69002B0ED0FB6803F500631946C9
:104AE000FB6803F500635A6BBB681B78184601230B
:104AF000834013434B63BB681B785A01FB68134424
:104B000003F510631946BB681B785A01FB68134410
:104B100003F510631B6843F004430B6079E0BB6846
:104B20001B785A01FB68134403F530631946BB68D0
:104B30001B785A01FB68134403F530631B69DB0CD7
:104B4000DB040B61BB681B785A01FB68134403F557
:104B500030631946BB681B785A01FB68134403F5A0
:104B600030631B6923F0FF5323F4C0130B61BB6850
:104B70005B69002B03D0BB689A68BB685A61BB684D
:104B80001B785A01FB68134403F530631946BB6870
:104B90001B785A01FB68134403F530631B6943F427
:104BA00000230B61BB681B785A01FB68134403F5B3
:104BB00030631946BB681B785A01FB68134403F540
:104BC00030631A69BB689B68C3F3120313430B611C
:104BD000FB79012B0AD1BB681B785A01FB6813448F
:104BE00003F530631A46BB68DB685361BB681B780A
:104BF0005A01FB68134403F530631946BB681B7800
:104C00005A01FB68134403F530631B6843F0044307
:104C10000B60002318461437BD465DF8047B7047CF
:104C200080B487B000AFF860B96011461A460B46F1
:104C3000FB711346BB8000233B6100237B6197F827
:104C40002030002B1AD1BB8803339B083B61002323
:104C50007B610FE0FB791A03FB68134403F5805373
:104C60001A46BB681B6813607B6901337B61BB68B4
:104C70000433BB607A693B699A42EBD30023184640
:104C80001C37BD465DF8047B704700BF80B487B019
:104C900000AFF860B9601346FB8000237B61FB889E
:104CA00003339B083B6100237B610BE0FB6803F54A
:104CB00080531A68BB681A607B6901337B61BB68EB
:104CC0000433BB607A693B699A42EFD3BB681846EC
:104CD0001C37BD465DF8047B704700BF80B483B0CD
:104CE00000AF786039603B685B78012B30D13B685E
:104CF0001B785A017B68134403F510631B68002B73
:104D000012DB3B681B785A017B68134403F5106380
:104D100019463B681B785A017B68134403F51063FE
:104D20001B6823F080430B603B681B785A017B684B
:104D3000134403F5106319463B681B785A017B68DE
:104D4000134403F510631B6843F400130B602FE05A
:104D50003B681B785A017B68134403F530631B687A
:104D6000002B12DB3B681B785A017B68134403F568
:104D7000306319463B681B785A017B68134403F57E
:104D800030631B6823F080430B603B681B785A013B
:104D90007B68134403F5306319463B681B785A015E
:104DA0007B68134403F530631B6843F400130B6006
:104DB000002318460C37BD465DF8047B704700BFE2
:104DC00080B483B000AF786039603B685B78012BBA
:104DD0002ED13B681B785A017B68134403F510639E
:104DE00019463B681B785A017B68134403F510632E
:104DF0001B6823F400130B603B68DB78032B03D0A4
:104E00003B68DB78022B41D13B681B785A017B68F9
:104E1000134403F5106319463B681B785A017B68FD
:104E2000134403F510631B6843F080530B602DE0BF
:104E30003B681B785A017B68134403F530631946BD
:104E40003B681B785A017B68134403F530631B6889
:104E500023F400130B603B68DB78032B03D03B6823
:104E6000DB78022B12D13B681B785A017B68134414
:104E700003F5306319463B681B785A017B6813447D
:104E800003F530631B6843F080530B600023184622
:104E90000C37BD465DF8047B704700BF80B584B019
:104EA00000AF78600023FB6014E0FB685A017B6868
:104EB000134403F510631A46FF239360FB685A01FD
:104EC0007B68134403F530631A46FF239360FB6845
:104ED0000133FB60FB680E2BE7D97B6803F50063A9
:104EE0001A464FF0FF3393617B6803F500631A465F
:104EF000002313617B6803F500631A4600235361A6
:104F00007B6803F500631A460023D3617868FFF7D6
:104F100053F878681021FFF729F800231846103756
:104F2000BD4680BD80B483B000AF78600B46FB7097
:104F30007B6803F500631A467B6803F500631B6812
:104F400023F4FE6313607B6803F5006319467B68F6
:104F500003F500631A68FB781B0103F4FE63134337
:104F60000B60002318460C37BD465DF8047B704784
:104F700080B582B000AF78607B6803F500631A46A5
:104F80007B6803F500635B6823F002035360032032
:104F900000F072FF002318460837BD4680BD00BFF1
:104FA00080B582B000AF78607B6803F500631A4675
:104FB0007B6803F500635B6843F0020353600320E2
:104FC00000F05AFF002318460837BD4680BD00BFD9
:104FD00080B485B000AF78600023FB607B685B69BC
:104FE000FB607B689B69FA681340FB60FB681846AE
:104FF0001437BD465DF8047B704700BF80B485B0B0
:1050000000AF78607B6803F500639B69FB607B6899
:1050100003F50063DB69FA681340FB60FB681B0C57
:1050200018461437BD465DF8047B704780B485B0E0
:1050300000AF78607B6803F500639B69FB607B6869
:1050400003F50063DB69FA681340FB60FB689BB201
:1050500018461437BD465DF8047B704780B485B0B0
:1050600000AF78600B46FB70FB785A017B681344F5
:1050700003F530639B68FB607B6803F500635B6945
:10508000FA681340FB60FB6818461437BD465DF8AC
:10509000047B704780B487B000AF78600B46FB702C
:1050A0007B6803F500631B697B617B6803F5006324
:1050B0005B6B3B61FB783A6922FA03F3DB01DBB2FD
:1050C0007A6913437B61FB785A017B68134403F5CB
:1050D00010639A687B691340FB60FB6818461C37B5
:1050E000BD465DF8047B704780B483B000AF786044
:1050F00039607B685A693B681A437B685A610C3790
:10510000BD465DF8047B704780B483B000AF786023
:105110007B685B6903F0010318460C37BD465DF8F8
:10512000047B704780B483B000AF78607B6803F580
:1051300010631A467B6803F510631B6823F4FF6352
:1051400023F0070313607B6803F500639B6803F09B
:105150000603042B0AD17B6803F510631A467B68AB
:1051600003F510631B6843F0030313607B6803F5CA
:1051700000631A467B6803F500635B6843F4807341
:105180005360002318460C37BD465DF8047B70471A
:1051900080B485B000AFF8600B467A60FB72FB68A4
:1051A00003F530631A4600231361FB6803F530638F
:1051B0001A46FB6803F530631B6943F4002313614F
:1051C000FB6803F530631A46FB6803F530631B691F
:1051D00043F018031361FB6803F530631A46FB685C
:1051E00003F530631B6943F0C0431361FB7A012B65
:1051F0000CD1FB6803F530631A467B685361FB688A
:1052000003F530631A464FF08023136000231846DD
:105210001437BD465DF8047B704700BF80B485B08D
:1052200000AF78600023FB60FB680133FB60FB6824
:10523000134A934201D903231BE07B681B69002BAF
:10524000F2DA0023FB607B681B6943F001027B6894
:105250001A61FB680133FB60FB68094A934201D97C
:10526000032306E07B681B6903F00103002BF0D1E8
:10527000002318461437BD465DF8047B704700BF15
:10528000400D030084B080B584B000AF786007F1B2
:105290001C0080E80E007B6803F560631A4600235B
:1052A00013607B689B6B23F480227B689A637B6826
:1052B0009B6B23F400227B689A637B689B6B43F4AF
:1052C00000127B689A637B6A032B0FD17B68B3F172
:1052D000A04F0BD07B6803F580631A467B6803F50B
:1052E00080631B6843F0040313600AE07B6803F5E6
:1052F00080631A467B6803F580631B6823F0040310
:10530000136078681021FEF731FE7868FEF754FECE
:105310000023FB6015E0FB685A017B68134403F52A
:10532000A0631A464FF0FF339360FB685A017B6815
:10533000134403F5A0631A460023D360FB680133CE
:10534000FB603A6AFB689A42E5D87868012100F070
:10535000A5F8C82000F090FD7B6800229A617B6868
:105360004FF0FF325A617B68B3F1A04F0AD17B68DE
:1053700080225A627B68144A9A627B68134AC3F897
:1053800000210AE07B684FF400725A627B68104A81
:105390009A627B680F4AC3F80021BB6A002B05D1D3
:1053A0007B689B6943F010027B689A617B689A690D
:1053B000094B13437A689361002318461037BD46A2
:1053C000BDE8804004B0704780006000E00040000D
:1053D000000200010003E000080020A380B483B0B5
:1053E00000AF78600B46FB707B6803F580631A465C
:1053F0007B6803F580631B6823F0030313607B68FD
:1054000003F5806319467B6803F580631A68FB78AF
:1054100003F0030313430B60FB78012B07D17B6878
:1054200003F580631A464BF68033536009E0FB783E
:10543000022B06D17B6803F580631A4641F2707334
:105440005360002318460C37BD465DF8047B704757
:1054500080B584B000AF78607B6803F588631B6813
:10546000FB60FB6823F02E03FB607B6803F5886319
:105470001A46FB6843F4807313600A2000F0FCFCBA
:105480007B6803F588631A46FB6823F48073136016
:10549000002318461037BD4680BD00BF80B485B0DC
:1054A00000AF78600B46FB707B6803F588631B6870
:1054B000FB60FB6823F02E03FB60FB6803F4805362
:1054C000002B0AD1FB78012B07D17B6803F5886399
:1054D0001A46FB6843F480531360FB6803F480535F
:1054E000002B0AD0FB78002B07D17B6803F588637B
:1054F0001A46FB6823F480531360002318461437C0
:10550000BD465DF8047B704780B485B000AF78601D
:105510007B6803F588631B68FB60FB6803F4C023AA
:105520005B0C18461437BD465DF8047B704700BF1E
:1055300080B483B000AF78607B6803F580639B68BC
:105540009BB218460C37BD465DF8047B704700BF20
:1055500080B483B000AF7860084611461A4603460F
:10556000FB700B46BB7013467B70FB785A017B685F
:10557000134403F5A0631A464FF0FF3393603B7D5D
:10558000032B00F2848001A252F823F09D550008FD
:105590004D5600089D5500080B560008FB785A012F
:1055A0007B68134403F5A0631A4640F29D43D36021
:1055B000BB785BB2002B11DAFB785A017B6813448D
:1055C00003F5A0631946FB785A017B68134403F581
:1055D000A063DB6843F48073CB6015E07B68B3F1B4
:1055E000A04F11D0FB785A017B68134403F5A063E8
:1055F0001946FB785A017B68134403F5A063DB6806
:1056000043F06003CB6042E041E0FB785A017B68E5
:10561000134403F5A0631A4640F29D63D360BB7840
:105620005BB2002B11DAFB785A017B68134403F557
:10563000A0631946FB785A017B68134403F5A06305
:10564000DB6843F48073CB6021E020E0FB785A01F3
:105650007B68134403F5A0631A4640F22523D36008
:10566000BB785BB2002B11DAFB785A017B681344DC
:1056700003F5A0631946FB785A017B68134403F5D0
:10568000A063DB6843F4C073CB60FFE700BF7B68B7
:1056900003F5806318467B6803F580639B69FA789D
:1056A000012101FA02F2134383617B689B6943F095
:1056B00000727B689A61FB785A017B68134403F59A
:1056C000A06319467B789B0503F0FE52BB7803F07C
:1056D0007F03DB0203F4F0431A43BB785BB2002B79
:1056E00002DA4FF4004300E000231A433B7C022B14
:1056F00002D14FF4003300E000231A433B7D9B04AA
:1057000003F440231A433B8BC3F30A0313430B6098
:105710003B7D032B10D1FB785A017B68134403F5C2
:10572000A0631946FB785A017B68134403F5A06314
:105730001B6843F000530B60002318460C37BD462E
:105740005DF8047B704700BF90B58BB002AFF86086
:10575000B9601346FB7100237B7700237B83002312
:10576000FB834FF480733B8300237B61FB68B3F1C1
:10577000A04F2BD0BB681B79002B27D1FB79002BC6
:105780000BD1BB685B79012B07D1BB685B78F868EC
:10579000194600F025FA00230BE1FB79012B15D106
:1057A000BB685B785A01FB68134403F5A063194694
:1057B000BB685B785A01FB68134403F5A063DB68A0
:1057C00023F06003CB60BB6800225A71BB681B6981
:1057D000002B19D0BB681B69BA6812891344013BBE
:1057E000BA681289B3FBF2F3FB83FA8B3B8B9A42C4
:1057F0000CD93B8BFB83FB8BBA68128902FB03F34A
:105800001A46BB681A6101E00123FB83BB68DB78A1
:10581000002B07D0FB8BBA68128902FB03F31A46F0
:10582000BB681A61BB685B785A01FB68134403F5D7
:10583000A0631946BB681B69C3F31202FB8BDB0430
:1058400018465E4B03401A43BB689B7A5B0703F024
:10585000C04313430B61FB79002B0AD0BB685B7814
:105860005A01FB68134403F5A0631A46BB68DB6862
:105870005361FB6803F580639B6803F00103002B11
:105880000CBF01230023DBB27B77BB685B785A0136
:10589000FB68134403F5A0631946BB685B785A01A3
:1058A000FB68134403F5A0631B6823F000530B60EF
:1058B000BB685B785A01FB68134403F5A063194683
:1058C000BB685B785A01FB68134403F5A0631B684F
:1058D0007A7F520713430B60BB685B785A01FB6801
:1058E000134403F5A0631B687B617B6923F080434D
:1058F0007B617B6943F000437B61BB685B785A0145
:10590000FB68134403F5A0631A467B691360FB79B7
:10591000002B4DD1BB68DB78002B49D1BB681B69DC
:10592000002B45D0BB68DB79032B33D801A252F89A
:1059300023F000BF455900086B590008455900087D
:105940006B590008BB681B6903339B087B837A8B08
:10595000FB68DB6A9BB29A4206D9FB689B6943F0FD
:105960002002FB689A6116E015E0BB681B690333EF
:105970009B087B837A8BFB6803F580631B699BB272
:105980009A4206D9FB689B6943F08062FB689A6182
:1059900001E000E000BFBB68D968BB685A78BB680B
:1059A0001B699CB200230093F8682346FFF738F97F
:1059B000002318462437BD4690BD00BF0000F81FE5
:1059C00080B483B000AF78607B6803F580635B6967
:1059D0009BB218460C37BD465DF8047B704700BF8C
:1059E00080B485B000AF78600B46FB700023FB608D
:1059F000FB785A017B68134403F5A0631B68FB78AE
:105A00005A017B68134403F5A0631B6803F4002369
:105A1000002B6ED0FB785A017B68134403F5A0631A
:105A20001946FB785A017B68134403F5A0631B6891
:105A300043F080430B607B68DB6A9BB2002B45D14F
:105A4000FB785A017B68134403F5A0631946FB7881
:105A50005A017B68134403F5A0631B6823F00043DD
:105A60000B60FB785A017B68134403F5A063194669
:105A7000FB785A017B68134403F5A0631B6843F06D
:105A800000430B60FB785A017B68134403F5A06365
:105A90001946FB785A017B68134403F5A0631B6821
:105AA00023F400430B60FB680133FB60FB68B3F534
:105AB0007A7F01D900BF1BE0FB785A017B68134451
:105AC00003F5A0631B68002BEDDB11E0FB785A01A6
:105AD0007B68134403F5A0631946FB785A017B6881
:105AE000134403F5A0631B6843F000430B606FE0B1
