:020000040800F2
:10000000FFFF0120358401088184010881840108F3
:1000100081840108818401088184010800000000B6
:1000200000000000000000000000000081840108C2
:10003000818401080000000081840108B1160008D5
:100040008184010881840108818401088184010878
:100050008184010881840108818401088184010868
:100060008184010881840108818401088184010858
:100070008184010881840108818401088184010848
:100080008184010881840108818401088184010838
:100090008184010881840108818401088184010828
:1000A0008184010881840108818401088184010818
:1000B0008184010881840108818401088184010808
:1000C00081840108818401088184010881840108F8
:1000D00081840108818401088184010881840108E8
:1000E00081840108818401088184010881840108D8
:1000F00081840108818401088184010881840108C8
:1001000081840108818401088184010881840108B7
:100110008184010881840108ED420008818401087E
:100120008184010881840108818401088184010897
:100130008184010881840108818401088184010887
:10014000818401088184010881840108C1160008A6
:100150008184010881840108818401088184010867
:100160008184010881840108818401088184010857
:100170008184010881840108818401080000000055
:0801800081840108818401085B
:1001A00080B500AF07200DF02FFF6FF00B0000218E
:1001B00000220DF033FF6FF00A00002100220DF045
:1001C0002DFF6FF00900002100220DF027FF6FF0D6
:1001D0000300002100220DF021FF4FF0FF3000212D
:1001E00000220DF01BFF80BD80B500AF094B0A4A0D
:1001F0001A60084B1B6818460849002217F096F948
:10020000044B1B681846064917F0AAF900235BB295
:10021000184680BD100D002024190020140F002066
:10022000140D002080B400AF00235BB21846BD4619
:100230005DF8047B704700BF80B483B000AF034615
:100240003960FB711346BB80FB79232B4AD801A28E
:1002500052F823F0E5020008E5020008E502000874
:10026000E5020008E5020008E5020008E5020008D2
:10027000E5020008E5020008E5020008E5020008C2
:10028000E5020008E5020008E5020008E5020008B2
:10029000E5020008E5020008E5020008E5020008A2
:1002A000E5020008E5020008E5020008E502000892
:1002B000E5020008E5020008E5020008E502000882
:1002C000E5020008E5020008E5020008E502000872
:1002D000E5020008E5020008E5020008E502000862
:1002E000E502000800BF00235BB218460C37BD468C
:1002F0005DF8047B704700BF80B582B000AF7860C6
:1003000039600A4B1B681846796817F029F9074BC2
:100310001B68184617F062F97868396802F046FDE4
:1003200000235BB218460837BD4680BD100D002083
:1003300080B584B000AF78600B467B800023FB73F0
:100340000F4B1B68D3F81832BB60BB68D3F814326C
:10035000002B01D001230FE0094B1A687B8810465F
:1003600079681A4617F0E2F8054B1B68184617F033
:100370000BF90346FB73FB7B18461037BD4680BD67
:10038000100D002080B588B000AF78607B681B68D6
:10039000B3F1A04F2CD14FF4C053FB6002233B615B
:1003A00000237B610323BB610A23FB6107F10C037C
:1003B0001148194606F0D6FC104A104B5B6B43F00F
:1003C000800353630023BB600C4A0C4B5B6C43F40B
:1003D00080435364094B5B6C03F48043BB60BB6890
:1003E0004320002100220DF019FE43200DF032FEC3
:1003F0002037BD4680BD00BF0000024000380240EB
:1004000080B582B000AF78607B681B68B3F1A04F05
:100410000DD1084A074B5B6B23F0800353630648FA
:100420004FF4C05106F03CFE43200DF021FE08378A
:10043000BD4680BD003802400000024080B582B059
:1004400000AF78607B68D3F8B4237B6803F56173F1
:100450001046194615F0E0FE0837BD4680BD00BFC6
:1004600080B582B000AF78600B46FB707B68D3F834
:10047000B403FA7879681346DB009B1A9B000B449F
:1004800003F5F0739B68FA7811461A4615F00EFFD3
:100490000837BD4680BD00BF80B582B000AF786030
:1004A0000B46FB707B68D3F8B403FA78796813467F
:1004B000DB009B1A9B000B4440335B68FA781146C3
:1004C0001A4615F04FFF0837BD4680BD80B582B093
:1004D00000AF78607B68D3F8B433184616F03AF86A
:1004E0000837BD4680BD00BF80B584B000AF7860DE
:1004F0000123FB737B68DB68002B02D0022B03D047
:1005000005E00023FB7305E00123FB7302E00123F8
:10051000FB7300BF7B68D3F8B423FB7B10461946FE
:1005200015F0E0FF7B68D3F8B433184615F0AAFF46
:100530001037BD4680BD00BF80B582B000AF786087
:100540007B68D3F8B433184615F0DCFF7B681B6872
:1005500003F560631A467B681B6803F560631B68DC
:1005600043F0010313607B681B6A002B05D0044A2B
:10057000034B1B6943F0060313610837BD4680BD7A
:1005800000ED00E080B582B000AF78607B68D3F802
:10059000B433184615F0CCFF0837BD4680BD00BF08
:1005A00080B582B000AF78600B46FB707B68D3F8F3
:1005B000B423FB781046194615F0F4FF0837BD4602
:1005C00080BD00BF80B582B000AF78600B46FB7085
:1005D0007B68D3F8B423FB781046194615F0D4FF96
:1005E0000837BD4680BD00BF80B582B000AF7860DF
:1005F0007B68D3F8B433184615F0E2FF0837BD46E0
:1006000080BD00BF80B582B000AF78607B68D3F852
:10061000B433184615F0E0FF0837BD4680BD00BF73
:1006200080B582B000AF78607B681B78002B3AD130
:100630001F4A7B68C2F8B4337B681D4AC3F8202286
:100640001B4B4FF0A0421A60194B07225A60184BFF
:100650000222DA60164B00221A61154B00225A6101
:10066000134B02229A61124B0022DA61104B0022D6
:100670001A620F4B00225A620D4B0122DA620C4BB8
:1006800000221A630A4802F05BFC0948802106F048
:10069000E1FE07480021402206F090FE04480121B7
:1006A000802206F08BFE002318460837BD4680BD29
:1006B0001411002080B582B000AF78607B68D3F859
:1006C0002032184602F044FD002318460837BD4684
:1006D00080BD00BF80B582B000AF78607B68D3F882
:1006E0002032184602F064FD002318460837BD4644
:1006F00080BD00BF80B582B000AF78607B68D3F862
:100700002032184602F076FD002318460837BD4611
:1007100080BD00BF80B582B000AF7860084611464A
:100720001A460346FB700B46BB7013463B807B6842
:10073000D3F82002F9783A88BB7803F027FA00232F
:1007400018460837BD4680BD80B582B000AF7860DE
:100750000B46FB707B68D3F82022FB7810461946C5
:1007600003F07CFA002318460837BD4680BD00BF61
:1007700080B582B000AF78600B46FB707B68D3F821
:100780002022FB781046194603F028FC0023184667
:100790000837BD4680BD00BF80B582B000AF78602D
:1007A0000B46FB707B68D3F82022FB781046194675
:1007B00003F06EFB002318460837BD4680BD00BF1E
:1007C00080B582B000AF78600B46FB707B68D3F8D1
:1007D0002022FB781046194603F0B6FB002318468A
:1007E0000837BD4680BD00BF80B485B000AF7860DB
:1007F0000B46FB707B68D3F82032FB60FB785BB262
:10080000002B0BDAFB7803F07F02F9681346DB005C
:100810009B1A9B000B4438339B780BE0FB7803F06A
:100820007F02F9681346DB009B1A9B000B4403F51B
:10083000EC739B7918461437BD465DF8047B70470E
:1008400080B582B000AF78600B46FB707B68D3F850
:100850002022FB781046194603F076F9002318464B
:100860000837BD4680BD00BF80B584B000AFF860DA
:100870007A601A460B46FB7213463B81FB68D3F83D
:1008800020123B89FA7A084611467A6803F0A6FAE4
:10089000002318461037BD4680BD00BF80B584B028
:1008A00000AFF8607A601A460B46FB7213463B8134
:1008B000FB68D3F820123B89FA7A084611467A6819
:1008C00003F016FA002318461037BD4680BD00BF5E
:1008D00080B582B000AF78600B46FB707B68D3F8C0
:1008E0002022FB781046194603F05EFA03461846AC
:1008F0000837BD4680BD00BF80B582B000AF7860CC
:10090000786805F04BFE0837BD4680BD80B584B0E1
:1009100000AF7860154B1B68002B02D1134B144AB3
:100920001A60124B1B68FB60124B1B681B68BB6094
:10093000BB68A3F50073BB600C4B1A687B681A4454
:10094000BB689A4207D917F0A9FD02460C23136031
:100950004FF0FF3306E0054B1A687B681344034AE7
:100960001360FB6818461037BD4680BD640B00203D
:100970009420002008ED00E080B483B000AF7860E0
:1009800039603B68002B05D03B6800221A603B6849
:1009900000225A60002318460C37BD465DF8047BE0
:1009A000704700BF80B400AFBD465DF8047B704760
:1009B00080B400AF01231846BD465DF8047B704744
:1009C00080B582B000AF7860396017F067FD0246ED
:1009D000162313604FF0FF3318460837BD4680BD1D
:1009E00080B582B000AF786078684FF0FF31FFF7D4
:1009F000E7FFFEE780B586B000AFF860B9607A60C7
:100A000000237B6109E0BB685A1CBA601B7818465A
:100A1000AFF300807B6901337B617A697B689A421E
:100A2000F1DB7B6818461837BD4680BD80B483B0C3
:100A300000AF78604FF0FF3318460C37BD465DF8C5
:100A4000047B704780B483B000AF786039603B6846
:100A50004FF400525A60002318460C37BD465DF82B
:100A6000047B704780B483B000AF786001231846E0
:100A70000C37BD465DF8047B704700BF80B485B07D
:100A800000AFF860B9607A60002318461437BD469D
:100A90005DF8047B704700BF90B587B000AFF86089
:100AA000B9607A6000237B610AE0BC68631CBB60AC
:100AB000AFF300800346DBB223707B6901337B61B7
:100AC0007A697B689A42F0DB7B6818461C37BD4622
:100AD00090BD00BF0EB480B482B000AF78604FF01C
:100AE000FF3318460837BD465DF8047B03B07047F6
:100AF00080B582B000AF786017F0D0FC02460A23C0
:100B000013604FF0FF3318460837BD4680BD00BF65
:100B100080B582B000AF786017F0C0FC02460223B7
:100B200013604FF0FF3318460837BD4680BD00BF45
:100B300080B483B000AF78604FF0FF3318460C37B5
:100B4000BD465DF8047B704780B483B000AF786029
:100B500039603B684FF400525A60002318460C3746
:100B6000BD465DF8047B704780B582B000AF786009
:100B7000396017F093FC02461F2313604FF0FF33D8
:100B800018460837BD4680BD80B500AF17F086FC1B
:100B900002460B2313604FF0FF33184680BD00BFA1
:100BA00080B584B000AFF860B9607A6017F076FC69
:100BB00002460C2313604FF0FF3318461037BD4632
:100BC00080BD00BF80B582B000AF78600B46FB707F
:100BD0007B68002B09D07B681B68FA781A707B68E9
:100BE0001B685A1C7B681A6008E000BFFB1C184693
:100BF0000121FFF79DFB0346002BF7D10837BD46C7
:100C000080BD00BF2DE9F04184B000AFF860B9604D
:100C10007A603B6000244FF020087B68002B17DDD2
:100C20000025BE6801E0013501363378002BFAD18A
:100C30007B689D4202DB00237B6002E07B685B1BDC
:100C40007B603B6803F00203002B01D04FF03008BB
:100C50003B6803F00103002B0DD109E05FFA88F334
:100C6000F8681946FFF7AEFF01347B68013B7B60F3
:100C70007B68002BF2DC09E0BB681B78F86819463A
:100C8000FFF7A0FF0134BB680133BB60BB681B7872
:100C9000002BF1D109E05FFA88F3F8681946FFF7F5
:100CA00091FF01347B68013B7B607B68002BF2DCA9
:100CB000234618461037BD46BDE8F0812DE9F043C4
:100CC00089B000AFF860B9607A603B604FF000090E
:100CD0000026BD68BB68002B0DD130233B75002377
:100CE0007B7507F11403F86819463A6C7B6CFFF7C3
:100CF00089FF034646E03B68002B0AD07B680A2B3D
:100D000007D1BB68002B04DA4FF00109BB685B42D6
:100D10001D4607F114040B340023237015E07B6893
:100D2000B5FBF3F203FB02F3EB1A9846B8F1090F97
:100D300002DDBB6C3A3B9844013C5FFA88F33033E8
:100D4000DBB223707B68B5FBF3F5002DE7D1B9F179
:100D5000000F0FD03B6C002B09D07B6C03F002031B
:100D6000002B04D001363B6C013B3B6402E0013CAC
:100D70002D232370F86821463A6C7B6CFFF742FF05
:100D80000346334418462437BD46BDE8F08300BF10
:100D90002DE9F0418AB004AFF860B9607A600024B0
:100DA000C7E0BB681B78252B40F0B980BB680133D6
:100DB000BB6000263546BB681B78002B00D1BDE028
:100DC000BB681B78252B00D1A9E0BB681B782D2BB5
:100DD00003D1BB680133BB60012604E0BB6801336B
:100DE000BB6046F00206BB681B78302BF6D00BE0E8
:100DF0002B469B002B445B001D46BB681B78303B99
:100E00001D44BB680133BB60BB681B782F2B03D923
:100E1000BB681B78392BEBD9BB681B78732B13D1BC
:100E20007B681A1D7A601B689846B8F1000F01D0E4
:100E3000434600E0484BF86819462A463346FFF718
:100E4000E1FE03461C4471E0BB681B78642B10D1A3
:100E50007B681A1D7A601A680095019661230293D7
:100E6000F86811460A220123FFF728FF03461C44B5
:100E70005CE0BB681B78782B10D17B681A1D7A6008
:100E80001A680095019661230293F86811461022B2
:100E90000023FFF713FF03461C4447E0BB681B78A1
:100EA000582B10D17B681A1D7A601A68009501963C
:100EB00041230293F868114610220023FFF7FEFE3B
:100EC00003461C4432E0BB681B78752B10D17B684D
:100ED0001A1D7A601A680095019661230293F868DA
:100EE00011460A220023FFF7E9FE03461C441DE0D9
:100EF000BB681B78632B19D17B681A1D7A601B684D
:100F0000DBB23B7500237B7507F11403F8681946C3
:100F10002A463346FFF776FE03461C4406E0BB68CC
:100F20001B78F8681946FFF74DFE0134BB680133A2
:100F3000BB60BB681B78002B7FF433AFFB68002BD2
:100F400003D0FB681B6800221A7023461846183726
:100F5000BD46BDE8F08100BFF8B101080FB480B50F
:100F600082B000AF07F114037B60002039697A6812
:100F7000FFF70EFF034618460837BD46BDE8804020
:100F800004B070470FB480B584B000AF124BBB60A3
:100F9000032014F065FC07F11C037B6007F10803D4
:100FA0001846B9697A68FFF7F3FEF86000BFFB687E
:100FB0009BB209481946FFF7BBF90346012BF6D04F
:100FC000032014F067FCFB6818461037BD46BDE8E7
:100FD000804004B0704700BFCC1400200FB480B52F
:100FE00084B000AF0C4BBB6007F11C037B6007F1C2
:100FF00008031846B9697A68FFF7CAFEF860064820
:101000000121002201F020F8FB6818461037BD4688
:10101000BDE8804004B07047CC14002080B483B099
:1010200000AF00237B600F4A0E4B1B6B43F0800325
:1010300013630C4B1B6B03F080037B607B68002306
:101040003B60084A074B1B6B43F001031363054BDE
:101050001B6B03F001033B603B680C37BD465DF83A
:10106000047B70470038024080B588B000AF002391
:10107000BB60264A254B1B6B43F001031363234BD4
:101080001B6B03F00103BB60BB6802233B610023C1
:101090007B610123BB610223FB610223FB6007F13B
:1010A0000C031B48194605F05DFE0423FB6007F1A5
:1010B0000C031748194605F055FE00237B60134AC0
:1010C000124B1B6C43F008031364104B1B6C03F0B2
:1010D00008037B607B680F4B4FF4D0429A610D4B45
:1010E0006822DA610B4B07229A620A4B4EF66022A5
:1010F000DA62084B00229A63064B0022DA63054B42
:1011000080221A602037BD4680BD00BF00380240F3
:1011100000000240000C004080B400AF064A064BBD
:101120001B6A43F488731362034B01221A60BD46A5
:101130005DF8047B704700BF000C004080B400AF36
:10114000074A074B1B6A23F488731362044A044B53
:101150001B6823F001031360BD465DF8047B7047F4
:10116000000C004080B483B000AF03460A46FB7118
:101170001346BB80FB79002B02D0012B04D007E083
:10118000064ABB88936303E0044ABB88D36300BF6D
:101190000C37BD465DF8047B704700BF000C004073
:1011A00080B58AB000AF0123BB610023FB6103233C
:1011B0003B6208237B6107F114034A48194605F096
:1011C000D1FD48480821012206F084F84FF48073CD
:1011D0007B6107F114034348194605F0C3FD4148FC
:1011E0004FF48071012206F075F800233B613E4AFE
:1011F0003D4B1B6B43F0010313633B4B1B6B03F035
:1012000001033B613B690023FB60374A364B1B6B94
:1012100043F001031363344B1B6B03F00103FB60CA
:10122000FB680023BB60304A2F4B1B6B43F001036C
:1012300013632D4B1B6B03F00103BB60BB680223E0
:10124000BB610023FB6103233B6205237B62102308
:101250007B6107F114032548194605F083FD082337
:101260007B6107F114032148194605F07BFD00233B
:101270007B601D4A1C4B5B6C43F4805353641A4BD8
:101280005B6C03F480537B607B68194B194A1A60CE
:10129000174B4FF482725A60154B00229A60144B20
:1012A0000022DA60124B00221A61114B00225A61AF
:1012B0000F4B4FF400729A610D4B2022DA610C4BF8
:1012C00000221A620A4B00225A62094B00229A62DB
:1012D000074B0722DA62064806F0CEF82837BD46EB
:1012E00080BD00BF00000240003802400004024000
:1012F000680B0020003001402DE9B04388B000AFFA
:101300000346B9607A60FB73FB7B002B05D1644810
:101310000821002205F0DEFF05E061484FF48071EE
:10132000002205F0D7FF07F114035E481946042296
:101330004FF0FF3306F062FAFB7B002B05D15848D3
:101340000821012205F0C6FF05E055484FF48071E1
:10135000012205F0BFFF3B7D1A067B7D1B041A436B
:10136000BB7D1B021343FA7D1343FB61FA694E4BAD
:101370001340002B01D0FF238DE0FB699B0CBB6168
:10138000BB6903F40053002B21D0BB6983F47F5366
:1013900083F03F03BB61BB690133BB61B86916F0E1
:1013A00095FA02460B46904683F00049404649466E
:1013B0004FF000023D4B16F0FFFA02460B46104676
:1013C000194616F00BFD0246BB681A6014E0B869B6
:1013D00016F07CFA02460B46104619464FF0000202
:1013E000324B16F0E9FA02460B461046194616F043
:1013F000F5FC0246BB681A60FA694FF6F0731340B9
:101400001B09BB61BB6903F40063002B21D0BB69DE
:1014100083F47F6383F00F03BB61BB690133BB615E
:10142000B86916F053FA02460B46144683F000459D
:10143000204629464FF000021D4B16F0BDFA024629
:101440000B461046194616F0C9FC02467B681A6026
:1014500014E0B86916F03AFA02460B4610461946EF
:101460004FF00002124B16F0A7FA02460B46104648
:10147000194616F0B3FC02467B681A60FB6903F05C
:101480000703BB61FB6903F480335B0ABA6913434A
:10149000BB61BB69DBB218462037BD46BDE8B083EF
:1014A00000000240680B0020080002000000D03F4E
:1014B0000000B03F80B582B000AF04F0DFFF00F065
:1014C0007BF8FFF7ABFD00F003F9012014F050F9B1
:1014D000012014F0DFF9002014F04AF9002014F084
:1014E000D9F9022014F044F9022014F0D3F90320B2
:1014F00014F03EF9032014F0CDF9382000F02AFB57
:10150000FFF7B2FD00200021FFF72CFE0120002193
:10151000FFF728FEFFF712FEFFF742FE05F032F854
:10152000786005F02FF878601F4B93F8FC31032B9F
:1015300008D1002014F094F91C4B1B68184601F0E8
:101540003FFA22E0002014F0A5F901F0B3F900F011
:10155000EDFB0020002100F0B5FC15480121002220
:1015600000F072FD00200A2100F0ACFC11480121BE
:10157000002200F069FD00F00BFC00200021FFF7C5
:10158000F1FD01200021FFF7EDFD012014F09CF991
:1015900000BF04F0F7FF02467B68D21A034B1B68BA
:1015A0009A42F6D3BDE700BF2419002010000020A6
:1015B00000B2010810B2010880B594B000AF00235A
:1015C000BB602B4A2A4B1B6C43F080531364284B9F
:1015D0001B6C03F08053BB60BB6800237B60254A13
:1015E000244B1B6843F480431360224B1B6803F4B5
:1015F00080437B607B6801233B6201237B62022383
:10160000BB634FF48003FB6304233B6448237B6488
:101610000223BB640323FB6407F12003184612F086
:1016200047FF0F23FB6002233B6100237B614FF4E4
:101630008053BB610023FB6107F10C0318460221B4
:1016400013F048F913F036FB02460B4BA3FB0223C1
:101650009B0918460CF020FD04200CF0C7FD4FF04C
:10166000FF30002100220CF0D9FC5037BD4680BD70
:101670000038024000700040D34D621080B582B047
:1016800000AF786039603B681B68184616F0FEFEB4
:1016900003461A46044B1A600448FFF773FC1846C9
:1016A0000837BD4680BD00BF1000002020B20108F1
:1016B00080B500AF04F058FF0CF0B4FD80BD00BF52
:1016C00080B500AF014801F0BDFD80BD14110020C0
:1016D00080B500AF08480949002214F0D7FC06483D
:1016E000074914F01DFD0448064915F007FF02489C
:1016F00014F030FD80BD00BF24190020140000202C
:10170000A00100200000002080B483B000AF034699
:101710003960FB713B6812221A80034B18460C3764
:10172000BD465DF8047B70473000002080B483B074
:1017300000AF03463960FB713B6804221A80034BFB
:1017400018460C37BD465DF8047B70474400002006
:1017500080B582B000AF03463960FB71FB79002B86
:1017600005D1084808493A6815F058FB04E00548D7
:1017700005493A6815F052FB034B18460837BD4639
:1017800080BD00BF24B20108481B002080B582B094
:1017900000AF03463960FB71044805493A6815F00B
:1017A0003DFB034B18460837BD4680BD3CB20108DF
:1017B000481B002080B582B000AF03463960FB7142
:1017C000FB79002B05D1084808493A6815F026FB3B
:1017D00004E0054805493A6815F020FB034B18461C
:1017E0000837BD4680BD00BF50B20108481B00202D
:1017F00080B582B000AF03463960FB71FB79002BE6
:1018000005D1084808493A6815F008FB04E0054886
:1018100005493A6815F002FB034B18460837BD46E8
:1018200080BD00BF60B20108481B002080B582B0B7
:1018300000AF03463960FB71FB79002B05D10848E6
:1018400008493A6815F0EAFA04E0054805493A689B
:1018500015F0E4FA034B18460837BD4680BD00BFBB
:101860006CB20108481B002080B594B000AF002383
:10187000FB617D4A7C4B1B6B43F0020313637A4B85
:101880001B6B03F00203FB61FB690023BB61764A1B
:10189000754B1B6B43F002031363734B1B6B03F01D
:1018A0000203BB61BB6900237B616F4A6E4B1B6BFC
:1018B00043F0020313636C4B1B6B03F002037B6169
:1018C0007B6900233B61684A674B1B6B43F0020353
:1018D0001363654B1B6B03F002033B613B69002301
:1018E000FB60614A604B1B6B43F0020313635E4B6A
:1018F0001B6B03F00203FB60FB6801233B640023C6
:101900007B640323BB640223FB644FF40063FB632B
:1019100007F13C035548194605F024FA4FF480437B
:10192000FB6307F13C035148194605F01BFA4FF4DD
:101930008053FB6307F13C034C48194605F012FA4B
:101940004A484FF48051012205F0C4FC02233B6455
:1019500001237B640223BB640523FB644FF4005323
:10196000FB6307F13C034148194605F0FBF94FF4CE
:101970000043FB6307F13C033C48194605F0F2F9CC
:101980000023BB60384A384B1B6C43F004031364DC
:10199000354B1B6C03F00403BB60BB68344B354A0A
:1019A0001A60334B02225A60314B00229A60304B4E
:1019B0004FF6FF72DA602E4B00221A612C4B002288
:1019C0005A612B480FF0E0F960233B6200237B62F1
:1019D0000023BB6200233B6300237B6307F12003EA
:1019E00023481946002210F059FF214800210FF02A
:1019F0003BFA00237B601C4A1B4B1B6C43F4804367
:101A00001364194B1B6C03F480437B607B681A4B97
:101A10001A4A1A60184B4FF482725A60164B002211
:101A20009A60154B0022DA60134B00221A61124BA8
:101A300000225A61104B4FF400729A610E4B202223
:101A4000DA610D4B00221A620B4B00225A620A4BDC
:101A500000229A62084B0722DA62074805F00CFD63
:101A60005037BD4680BD00BF003802400004024030
:101A7000E818002000080040C40B00200038004097
:101A800080B582B000AF0346FB710B484FF4805124
:101A9000002205F01FFCFB1D0848194601224FF4E7
:101AA0007A7305F08FFD04484FF48051012205F050
:101AB00011FC0837BD4680BD00040240C40B002065
:101AC00080B582B000AF03460A46FB711346BB7176
:101AD000FB79012B02D0022B11D021E0BB79002B26
:101AE00006D011484FF48041012205F0F3FB17E0C6
:101AF0000D484FF48041002205F0ECFB10E0BB796B
:101B0000002B06D008484FF40061012205F0E2FBEB
:101B100005E005484FF40061002205F0DBFB00BF43
:101B20000837BD4680BD00BF0004024080B485B0C8
:101B300000AF78600023FB6002E0FB680133FB60CC
:101B4000FA687B689A42F8D31437BD465DF8047B87
:101B5000704700BF80B582B000AF0346FB71FFF74E
:101B600083FE02200021FFF7ABFF42F21070FFF767
:101B7000DDFF02200121FFF7A3FF0020212100F05B
:101B800025F80020142100F021F8FB795BB2002B2E
:101B900001DA7F23FB71FB7963F07F03DBB2002066
:101BA000194600F013F80020202100F00FF8002063
:101BB0000C2100F00BF800F0DFF800200C2100F001
:101BC00005F800F0B3F80837BD4680BD80B582B097
:101BD00000AF03460A46FB711346BB71FB79002B2D
:101BE00007D0012B00D009E001200121FFF768FF99
:101BF00004E001200021FFF763FF00BFBB79184616
:101C0000FFF73EFF0837BD4680BD00BF80B582B0FC
:101C100000AF0346FB7100202121FFF7D7FFFB79BE
:101C20005BB2002B01DA7F23FB71FB7963F07F034A
:101C3000DBB200201946FFF7C9FF00202021FFF783
:101C4000C5FF0837BD4680BD80B582B000AF0346F2
:101C5000FB710B46BB7113467B71FB79532B00D98B
:101C60004BE0BB792F2B00D947E07B79002B1ED0AE
:101C7000FA79BB79DB08D8B20146542303FB01F3A0
:101C80001344F979542202FB00F20A441C498A5C8D
:101C9000D0B2BA7902F00702012101FA02F2D2B2FF
:101CA00001460A43D2B2D1B2154AD1541FE0FA79A3
:101CB000BB79DB08D8B20146542303FB01F313447C
:101CC000F979542202FB00F20A440D498A5CD0B231
:101CD000BA7902F00702012101FA02F2D2B2D2432C
:101CE000D2B201460A40D2B2D1B2054AD154F879F3
:101CF000B979FA79BB7900F0A9F80837BD4680BDFB
:101D00004C1D002080B582B000AF0346FB71FB790B
:101D1000012B04D000200D21FFF758FF03E0002025
:101D20000C21FFF753FF0837BD4680BD80B582B058
:101D300000AF00F021F800237B6007E00D4A7B68CC
:101D4000134400221A707B6801337B607B68B3F513
:101D5000FC7FF3D30020002100F0B4F80020002124
:101D600053222F2300F072F800F012F80837BD4616
:101D700080BD00BF4C1D002080B500AF0020802139
:101D8000FFF724FF00204021FFF720FF80BD00BFA8
:101D900080B582B000AF0023FB713BE0264B1B787F
:101DA0001A46FB790133DB009A4200DD2FE0FB7914
:101DB000DB00224A1278934200DD2EE0FB7943F0EB
:101DC0004003DBB200201946FFF700FF1C4B1B78D5
:101DD00063F07F03DBB200201946FFF7F7FE184BD4
:101DE0001B78BB710EE0FB79542202FB03F2BB7936
:101DF0001344144AD35C01201946FFF7E7FEBB7970
:101E00000133BB71104B1B78BA799A42EBD9FB793D
:101E10000133FB71FB79052BC0D9094B53221A7092
:101E2000094B00221A70044B2F221A70034B002218
:101E30001A700837BD4680BDC20B0020C30B0020BE
:101E4000C00B00204C1D0020C10B002090B482B0BC
:101E500000AF0446084611461A462346FB71034666
:101E6000BB710B467B7113463B71124B1B78FA79A1
:101E70009A4202D20F4AFB7913700F4B1B787A7982
:101E80009A4202D90C4A7B7913700C4B1B78BA79B1
:101E90009A4202D2094ABB791370094B1B783A79EE
:101EA0009A4202D9064A3B7913700837BD4690BC66
:101EB000704700BFC00B0020C10B0020C20B0020E8
:101EC000C30B002080B483B000AF03460A46FB7109
:101ED0001346BB71054AFB791370054ABB79137031
:101EE0000C37BD465DF8047B704700BF491D0020DC
:101EF000481D002080B584B000AF0346FB710B463F
:101F0000BB7113467B717B79012B04D10423BB7316
:101F10000623FB7303E00623BB730823FB73464BC6
:101F20001B781A46BB7B1344542B09DD434B1A78AC
:101F3000FB7B1344DAB2414B1A703F4B00221A70FC
:101F400000237B736AE0FB791F2B1CD97B79012B63
:101F50000CD1FB79A3F12002797B394813465B0051
:101F600013440B4403441B783B730CE0FB79A3F14F
:101F70002002797B334813465B0013445B000B441B
:101F800003441B783B733B7B002B06D1FB79002B72
:101F900003D0FB79202B00D03DE00023FB7230E022
:101FA000BB79012B15D1244B1878244B1A78FB7A76
:101FB0001344D9B23A7BFB7A42FA03F303F00103EC
:101FC000002B14BF01230023DBB21A46FFF73CFEAF
:101FD00014E0194B1878194B1A78FB7A1344D9B2CC
:101FE0003A7BFB7A42FA03F303F00103002B0CBFA8
:101FF00001230023DBB21A46FFF726FEFB7A0133EA
:10200000FB72FA7AFB7B9A42CAD30B4B1B780133E3
:10201000DAB2094B1A707B7B01337B737A7BBB7B13
:10202000013B9A428FDB044B1B780133DAB2024B3F
:102030001A701037BD4680BD491D0020481D002084
:10204000C4B401087CB2010880B582B000AF7860EA
:102050000B46FB701346BB700AE07B685A1C7A6023
:102060001978FA78BB78084611461A46FFF742FFFE
:102070007B681B78002BF0D10837BD4680BD00BFC0
:1020800090B585B000AF0446084611461A4623466F
:10209000FB710346BB710B467B7113463B71FA79AA
:1020A0007B799A4205D97B79FB81FB797B71FB892E
:1020B000FB71BA793B799A4205D93B79FB81BB79AF
:1020C0003B71FB89BB717B799AB2FB799BB2D31AC6
:1020D0009BB2BB813B799AB2BB799BB2D31A9BB2BC
:1020E0007B81B7F90C30002B10D1F979BA7997F8C8
:1020F0002030084611461A46FFF7A6FDBB7901338A
:10210000BB713A79BB799A42EFD293E0B7F90A30C2
:10211000002B10D1F979BA7997F82030084611468A
:102120001A46FFF791FDFB790133FB717A79FB7950
:102130009A42EFD27EE0B7F90C20B7F90A309A4202
:102140003CDD7B895B009AB2BB89D31A9BB2FB81D1
:1021500026E0F979BA7997F82030084611461A46F0
:10216000FFF772FDFB790133FB71B7F90E30002BDD
:102170000FDDBB790133BB71B7F90A20B7F90C3019
:10218000D31A9BB25B009AB2FB8913449BB2FB81CA
:1021900006E07B895B009AB2FB8913449BB2FB810A
:1021A000FA797B799A42D4D1F979BA7997F82030C3
:1021B000084611461A46FFF747FD3BE0BB895B0026
:1021C0009AB27B89D31A9BB2FB8126E0F979BA795E
:1021D00097F82030084611461A46FFF735FDBB79BF
:1021E0000133BB71B7F90E30002B0FDDFB790133E2
:1021F000FB71B7F90A20B7F90C30D31A9BB25B0018
:102200009AB2FB8913449BB2FB8106E07B895B0099
:102210009AB2FB8913449BB2FB81BA793B799A420B
:10222000D4D1F979BA7997F82030084611461A4680
:10223000FFF70AFD1437BD4690BD00BF90B585B0CD
:1022400002AF0446084611461A462346FB71034670
:10225000BB710B467B7113463B71F879B9797A797A
:10226000BC793B7E00932346FFF70AFFF879B979E2
:10227000FA793C793B7E00932346FFF701FF78799A
:10228000B9797A793C793B7E00932346FFF7F8FED3
:10229000F87939797A793C793B7E00932346FFF7C8
:1022A000EFFE0C37BD4690BD90B585B002AF044639
:1022B000084611461A462346FB710346BB710B467E
:1022C0007B7113463B710BE0F879B9797A79BC7967
:1022D0003B7E00932346FFF7D3FEBB790133BB71EE
:1022E000BA793B799A42EFD30C37BD4690BD00BF17
:1022F00090B587B000AF0446084611461A462346FB
:10230000FB710346BB710B467B7113463B717B79B6
:102310009BB2C3F101039BB2FB820123BB827B7999
:102320009BB21A46D203D31A5B009BB27B82002376
:102330003B827B79FB81BA797B791344DAB2F979F4
:102340003B79084611461A46FFF77EFCBA797B793D
:10235000D31ADAB2F9793B79084611461A46FFF7E3
:1023600073FCFA797B791344D9B2BA793B79084680
:1023700011461A46FFF768FCFA797B79D31AD9B26D
:10238000BA793B79084611461A46FFF75DFC9FE093
:10239000B7F91630002B0DDBFB899BB2013B9BB2DA
:1023A000FB817B8A02339BB27B82FA8A7B8A13444D
:1023B0009BB2FB823B8A9BB201339BB23B82BB8ABE
:1023C00002339BB2BB82FA8ABB8A13449BB2FB8264
:1023D0003B8ADAB2FB791344D9B2FB89DAB2BB7912
:1023E0001344DAB23B79084611461A46FFF72CFC33
:1023F0003B8ADBB2FA79D31AD9B2FB89DAB2BB795C
:102400001344DAB23B79084611461A46FFF71CFC22
:102410003B8ADAB2FB791344D9B2FB89DBB2BA79D1
:10242000D31ADAB23B79084611461A46FFF70CFC7C
:102430003B8ADBB2FA79D31AD9B2FB89DBB2BA791B
:10244000D31ADAB23B79084611461A46FFF7FCFB6D
:10245000FB89DAB2FB791344D9B23B8ADAB2BB7991
:102460001344DAB23B79084611461A46FFF7ECFBF3
:10247000FB89DBB2FA79D31AD9B23B8ADAB2BB79DB
:102480001344DAB23B79084611461A46FFF7DCFBE3
:10249000FB89DAB2FB791344D9B23B8ADBB2BA7951
:1024A000D31ADAB23B79084611461A46FFF7CCFB3D
:1024B000FB89DBB2FA79D31AD9B23B8ADBB2BA799B
:1024C000D31ADAB23B79084611461A46FFF7BCFB2D
:1024D000B7F91020B7F90E309A42FFF659AF1C3702
:1024E000BD4690BDB0B588B002AF0446084611465F
:1024F0001A462346FB710346BB710B467B7113469C
:102500003B717B799BB2C3F101039BB2FB82012338
:10251000BB827B799BB21A46D203D31A5B009BB273
:102520007B8200233B827B79FB81BA797B791344E0
:10253000DAB2F9793B79084611461A46FFF784FB6F
:10254000BA797B79D31ADAB2F9793B790846114620
:102550001A46FFF779FBFA797B791344D9B2BA7935
:102560003B79084611461A46FFF76EFBFA797B79EC
:10257000D31AD9B2BA793B79084611461A46FFF701
:1025800063FBFA797B79D31AD8B2FA797B79134451
:10259000DAB2B979BC793B7900932346FFF770FD35
:1025A00087E0B7F91630002B0DDBFB899BB2013BAE
:1025B0009BB2FB817B8A02339BB27B82FA8A7B8A45
:1025C00013449BB2FB823B8A9BB201339BB23B829A
:1025D000BB8A02339BB2BB82FA8ABB8A13449BB28A
:1025E000FB823B8ADBB2FA79D31AD8B2FB89DAB222
:1025F000BB791344D9B23B8ADAB2FB791344DDB21A
:10260000FB89DAB2BB791344DCB23B7900932A46EA
:102610002346FFF735FD3B8ADAB2FB791344D8B283
:10262000FB89DBB2BA79D31AD9B23B8ADBB2FA7929
:10263000D31ADDB2FB89DBB2BA79D31ADCB23B79AB
:1026400000932A462346FFF71BFDFB89DAB2FB798C
:102650001344D8B23B8ADAB2BB791344D9B2FB89AE
:10266000DBB2FA79D31ADDB23B8ADAB2BB79134412
:10267000DCB23B7900932A462346FFF701FDFB8934
:10268000DAB2FB791344D8B23B8ADBB2BA79D31AF7
:10269000D9B2FB89DBB2FA79D31ADDB23B8ADBB25D
:1026A000BA79D31ADCB23B7900932A462346FFF766
:1026B000E7FCB7F91020B7F90E309A42FFF671AF78
:1026C0001837BD46B0BD00BF80B483B000AF03462D
:1026D000FB71FB79642B01D96423FB71054B1B68EB
:1026E000FA79054931F812205A630C37BD465DF876
:1026F000047B7047E81800204800002090B583B0A4
:1027000000AF786039601E4B1B88092B2FD81C4BFB
:102710001B881C463B681B68184615F0B7FE02462E
:102720004FF47A7303FB02F31A46164B43F8342036
:10273000134B1B881C463B6804331B68184615F076
:10274000A1FE53EC102B1046194615F047FB01462D
:102750000C4AE30013445960094B1B8801339AB2B9
:10276000074B1A800848FEF70DFC002304E00748D9
:10277000FEF708FC4FF0FF3318460C37BD4690BDFE
:102780001C0C0020501F002004B6010808B60108E8
:1027900080B584B000AF786039607B68012B05D0CC
:1027A0001548FEF7EFFB4FF0FF3320E03B681B6856
:1027B000184615F06BFE0346FB81FB890F4ADB00D0
:1027C0001344D3ED017AFCEEE77A17EE903ABB6042
:1027D000F989FB89094A52F83330094AA2FB0323DD
:1027E0009B0908481A46BB68FEF7CCFB0023184635
:1027F0001037BD4680BD00BF08B60108501F00203D
:10280000D34D621010B6010880B582B000AF786079
:102810003960054B00221A800448FEF7B3FB002301
:1028200018460837BD4680BD1C0C002004B60108C0
:1028300080B582B000AF78603960104B00221A601A
:102840000F4B4FF000021A600E4B4FF000021A605F
:102850000D4B01221A7000200021FEF783FC01209D
:102860000021FEF77FFCFEF757FC0848FEF78AFBC5
:10287000002318460837BD4680BD00BF4C1F00200E
:10288000240C0020200C00201E0C002004B601089F
:1028900080B584B000AF7860396000F00BF8F86064
:1028A0000348FEF76FFBFB6818461037BD4680BD36
:1028B00004B6010880B500AF0D4B00221A7000204D
:1028C0000021FEF74FFC01200021FEF74BFCFEF734
:1028D00035FC084B00221A60074B4FF000021A60CB
:1028E000064B4FF000021A600023184680BD00BF5F
:1028F0001E0C00204C1F0020240C0020200C002067
:1029000090B585B000AF786039607B68042B05D046
:102910002648FEF737FB4FF0FF3342E03B681B6869
:10292000184615F0B3FD0346DBB2013BFB73FC7B9D
:102930003B6804331B68184615F0A4FD53EC102BBC
:102940001046194615F04AFA0146194AA3001344E5
:102950001960FC7B3B6808331B68184615F092FD34
:1029600053EC102B1046194615F038FA0146114A5F
:10297000A30013441960FC7B3B680C331B681846AA
:1029800015F080FD53EC102B1046194615F026FA71
:102990000146094AA300134419600848FEF7F2FAF9
:1029A000002318461437BD4690BD00BF08B6010885
:1029B000441F0020A81F0020A01F002004B601080B
:1029C00080B58CB002AF78607D4B1B78002B4AD16C
:1029D000FFF7ACF907F1180207F1140300201146C4
:1029E0001A46FEF789FC034687F8273000200021AD
:1029F000FFF768FAD7ED067AFDEEE77A714817EE31
:102A0000901AFEF7EBFA00200A21FFF75BFA97F81D
:102A100027306D481946FEF7E1FA07F1100207F179
:102A20000C03012011461A46FEF766FC034687F8A0
:102A3000273000201421FFF745FAD7ED047AFDEE88
:102A4000E77A624817EE901AFEF7C8FA00201E21B6
:102A5000FFF738FA97F827305D481946FEF7BEFAB7
:102A6000FFF796F9A8E007F1180207F11403002018
:102A700011461A46FEF740FC0346002B0BD107F126
:102A8000100207F10C03012011461A46FEF734FC30
:102A90000346002B01D0012300E0002387F82730F4
:102AA0004C4B1B68184600F0A3F887ED080AD7EDD9
:102AB000067A00207968B0EE670AD7ED080A00F0C0
:102AC00007F90346FB83FB8B00201946FEF74AFB00
:102AD000D7ED047A01207968B0EE670AD7ED080ACD
:102AE00000F0F6F80346FB83FB8B01201946FEF746
:102AF00039FB384B1B68D7ED087AFDEEE76AD7ED56
:102B0000067ABDEEE77AD7ED047AFDEEE77A17EEA6
:102B1000902A00923048194616EE902A17EE103A85
:102B2000FEF730FAFFF702F900200021FFF7CAF99B
:102B3000284B1B6829481946FEF750FA00200A2145
:102B4000FFF7C0F9D7ED087AFDEEE77A244817EED3
:102B5000901AFEF743FA00201421FFF7B3F9D7EDDE
:102B6000067AFDEEE77A174817EE901AFEF736FA66
:102B700000201E21FFF7A6F9D7ED047AFDEEE77AD3
:102B8000124817EE901AFEF729FAFFF701F9114BD8
:102B90001A687B6813440F4A1360124B1B88013B71
:102BA000114A52F833200B4B1B689A4204D2FFF7AC
:102BB00081FE0E48FEF7E6F92837BD4680BD00BF0E
:102BC0001E0C002030B6010840B6010850B60108BE
:102BD00060B601084C1F002070B6010898B60108C5
:102BE000A4B601081C0C0020501F0020B0B601083C
:102BF00080B487B000AF78600023FB820FE0FB8ACF
:102C0000314A52F833207B689A4205D1FB8A2E4A1A
:102C1000DB0013445B684EE0FB8A0133FB822B4BE5
:102C20001B88FA8A9A4206D2FB8A274A52F8332036
:102C30007B689A42E3D9FB8A234A52F83320FB8A05
:102C4000013B214951F83330D31A07EE903AF8EEA0
:102C5000677AC7ED047AFB8A1B4ADB00134493EDC5
:102C6000017AFB8A013B184ADB001344D3ED017A59
:102C700077EE677AC7ED037AFB8A013B124ADB00E5
:102C8000134493ED017AD7ED036AD7ED047AC6EECB
:102C9000A76AFB8A013B0C4A52F833307A68D31A90
:102CA00007EE903AF8EE677A66EEA77A77EE277A23
:102CB000C7ED027ABB6807EE903AB0EE670A1C37A0
:102CC000BD465DF8047B7047501F00201C0C00209F
:102CD00080B48BB000AF0346396187ED030AC7EDBE
:102CE000020AFB7597ED027AD7ED037A77EE677AE1
:102CF000C7ED097A3B6907EE903AB8EE677AD7EDEF
:102D0000097A27EE277A244BD3ED007A77EE277ADB
:102D1000214BC3ED007A214BD3ED007A97ED097A70
:102D200037EE677A3B6907EE903AF8EE677AC7EEBE
:102D3000277AC7ED087AFB7D194A9B00134493ED6F
:102D4000007AD7ED097A27EE277AFB7D154A9B009A
:102D50001344D3ED006A104BD3ED007A66EEA77AE8
:102D600037EE277AFB7D104A9B001344D3ED006AAF
:102D7000D7ED087A66EEA77A77EE277AFCEEE77A47
:102D8000C7ED017ABB88FB83FB8B18462C37BD4609
:102D90005DF8047B704700BF240C0020200C00204D
:102DA000441F0020A81F0020A01F002080B584B071
:102DB00000AF78603960022012F052FD0023FB73EF
:102DC00036E0FB7B7A6813441B780A2B06D00D2B68
:102DD00004D0002B12D14FF0FF3332E01B4B1B7895
:102DE0001A461B4B0021995400F036F80346002B7D
:102DF00003D01848FEF7C6F817E016E0134B1B780F
:102E00007E2B0FD8114B1B781946FB7B7A68134435
:102E10001A780F4B5A540D4B1B780133DAB20B4B17
:102E20001A7002E06FF001030BE0FB7B0133FB73D0
:102E3000FA7B3B681B689A42C3D3022012F02AFD3A
:102E4000002318461037BD4680BD00BF280C002067
:102E5000B01F002058B7010880B58AB000AF00232A
:102E60007B620023FB612023BB803B1D2948194660
:102E700016F0C4FD38621CE0FB69042B02D14FF050
:102E8000FF3343E07B6A002B02D13B6A7B620AE09E
:102E9000FB699B0007F1280213443A6A43F8202C8F
:102EA000FB690133FB613B1D0020194616F0A6FDAE
:102EB00038623B6A002BDFD1174B00221A700023C7
:102EC000FB761BE0FB7E154A52F833301846796AD0
:102ED00014F0DAFF0346BB76BB7E002B0BD1FB7EE2
:102EE0000E4ADB0013445B6807F10802F8691146DB
:102EF000984700230AE0FB7E0133FB76FB7E074AFE
:102F000052F83330002BDDD16FF00103184628371B
:102F1000BD4680BDB01F0020280C002014010020F9
:102F200080B582B000AF786039600448FEF72AF8B7
:102F3000002318460837BD4680BD00BF60B70108B2
:102F4000F0B58FB00AAF78600023FB607B68002B80
:102F500001D10123F7E07B68032283F8812378689D
:102F6000FDF710FA7B681B68184601F02BFA7B68A6
:102F7000D3F800E07E686D4606F110040FCC0FC553
:102F80000FCC0FC594E8030085E80300331D0ECB7A
:102F9000704601F0B3F97B681B681846002101F008
:102FA00023FA0023FB604CE07968FA681346DB00E3
:102FB0009B1A9B000B44383301225A70FB68D8B22D
:102FC0007968FA681346DB009B1A9B000B44383380
:102FD00002461A70FB6898B27968FA681346DB00FB
:102FE0009B1A9B000B4438330246DA807968FA68F2
:102FF0001346DB009B1A9B000B4438330022DA7027
:103000007968FA681346DB009B1A9B000B44403337
:1030100000221A607968FA681346DB009B1A9B004D
:103020000B44403300225A607968FA681346DB008B
:103030009B1A9B000B44483300225A60FB68013303
:10304000FB60FB680E2BAFD90023FB605AE0796868
:10305000FA681346DB009B1A9B000B4403F5EC73E4
:1030600000225A71FB68D8B27968FA681346DB000F
:103070009B1A9B000B4403F5EC7302461A71FB6824
:1030800098B27968FA681346DB009B1A9B000B44E0
:1030900038330246DA807968FA681346DB009B1AF7
:1030A0009B000B4403F5EC730022DA717968FA682F
:1030B0001346DB009B1A9B000B4403F5F0730022C0
:1030C0005A607968FA681346DB009B1A9B000B4430
:1030D00003F5F07300229A607968FA681346DB0002
:1030E0009B1A9B000B4403F5F47300229A607B68E3
:1030F0001A68FB6840339B00134400225A60FB6847
:103100000133FB60FB680E2BA1D97B68D3F800E08C
:103110007E686D4606F110040FCC0FC50FCC0FC5AD
:1031200094E8030085E80300331D0ECB704601F0E0
:1031300083F97B68012283F881237B681B6818462A
:1031400002F0C0FA002318461437BD46F0BD00BF98
:1031500080B582B000AF78607B68002B01D101237D
:103160000EE07B68032283F88123786800F042F840
:103170007868FDF745F97B68002283F881230023F6
:1031800018460837BD4680BD80B483B000AF786074
:103190000C37BD465DF8047B704700BF80B483B038
:1031A00000AF78600C37BD465DF8047B704700BF08
:1031B00080B582B000AF78607B6893F88033012BD4
:1031C00001D1022312E07B68012283F880237B680F
:1031D0001B68184602F05EFA7B681B68184601F00F
:1031E000DFF87B68002283F8802300231846083725
:1031F000BD4680BD80B582B000AF78607B6893F833
:103200008033012B01D1022317E07B68012283F870
:1032100080237B681B68184601F0D4F87B681B6824
:10322000184602F0CDF97B681B68184602F04AFA8E
:103230007B68002283F88023002318460837BD46A8
:1032400080BD00BF80B58AB000AF78607B681B6826
:10325000BB6100237B6200233B6200237B61002370
:10326000FB6100233B610023FB607B681B68184601
:1032700002F0DCFA0346002B40F0B0837B681B6849
:10328000184602F037FA0346002B00D1A6E37B680C
:103290001B68184602F02EFA034603F00203002BC7
:1032A00007D07B681B687A681268526902F00202D4
:1032B0005A617B681B68184602F01CFA034603F447
:1032C0000023002B00F0B3800023FB617B681B68A8
:1032D000184602F025FA3862A5E03B6A03F00103C4
:1032E000002B00F09A807B681A68FB69DBB21046FD
:1032F000194602F045FA78617B6903F00103002B5F
:103300006CD0FB695A01BB69134403F530631A465C
:10331000012393607B681B69012B3CD17968FA69B2
:103320001346DB009B1A9B000B4403F5F0735A68AD
:10333000FB695901BB690B4403F530631B69C3F397
:103340001203D11A7868FA691346DB009B1A9B00B6
:10335000034403F5F87359607968FA691346DB0092
:103360009B1A9B000B4403F5F07399687868FA691F
:103370001346DB009B1A9B00034403F5F0735B6864
:1033800019447868FA691346DB009B1A9B000344D2
:1033900003F5F0739960FB69DBB278681946FDF7B5
:1033A0005FF87B681B69012B18D1FB69002B15D1D5
:1033B0007968FA691346DB009B1A9B000B4403F5FE
:1033C000F4739B68002B09D17B681A687B6803F54E
:1033D0006173104601211A4602F06CFA7B6903F012
:1033E0000803002B0BD07868FDF728F8FB695A0119
:1033F000BB69134403F530631A46082393607B6965
:1034000003F01003002B08D0FB695A01BB69134479
:1034100003F530631A4610239360FB690133FB61A7
:103420003B6A5B083B623B6A002B7FF456AF7B68CC
:103430001B68184602F05EF9034603F48023002B54
:1034400000F0C4807B681B68184602F081F938627E
:103450000023FB61B6E03B6A03F00103002B00F0A0
:10346000AB807B681A68FB69DBB21046194602F034
:10347000A3F978617B6903F00103002B5BD0FB6942
:10348000012202FA03F33B61BB6903F500631946AD
:10349000BB6903F500635A6B3B69DB4313404B6325
:1034A000FB695A01BB69134403F510631A460123F3
:1034B00093607B681B69012B1BD17968FA691346FD
:1034C000DB009B1A9B000B44403359687868FA690B
:1034D0001346DB009B1A9B00034440331B681944CE
:1034E0007868FA691346DB009B1A9B00034440335B
:1034F0005960FB69DBB278681946FCF7CDFF7B6841
:103500001B69012B17D1FB69002B14D17968FA696B
:103510001346DB009B1A9B000B4448335B68002B6F
:1035200009D17B681A687B6803F561731046012135
:103530001A4602F0BFF97B6903F00803002B08D09C
:10354000FB695A01BB69134403F510631A4608234B
:1035500093607B6903F01003002B08D0FB695A01CC
:10356000BB69134403F510631A46102393607B690B
:1035700003F04003002B08D0FB695A01BB691344D8
:1035800003F510631A46402393607B6903F002033E
:10359000002B08D0FB695A01BB69134403F5106383
:1035A0001A46022393607B6903F08003002B03D04B
:1035B0007868F96900F08AFDFB690133FB613B6AB9
:1035C0005B083B623B6A002B7FF445AF7B681B685E
:1035D000184602F08FF80346002B15DABB6903F595
:1035E00000631A46BB6903F500635B6823F00103BF
:1035F00053607868FCF7C6FF7B681B687A681268BE
:10360000526902F000425A617B681B68184602F05A
:1036100071F8034603F40063002B12D0BB6903F575
:1036200000639B6803F00103002B02D07868FCF76D
:1036300083FF7B681B687A681268526902F4006233
:103640005A617B681B68184602F054F8034603F47D
:103650008053002B00F09380BB6903F500631A468A
:10366000BB6903F500635B6823F0010353607B686B
:103670001B681846002101F00BF800237B6214E060
:103680007B6A5A01BB69134403F510631A46FF2392
:1036900093607B6A5A01BB69134403F530631A4691
:1036A000FF2393607B6A01337B627B685A687B6A85
:1036B0009A42E5D8BB6903F500631A464FF0FF3321
:1036C0009361BB6903F500631A46BB6903F50063A8
:1036D000DB6943F00113D3617B681B6B002B18D0AF
:1036E000BB6903F500631A46BB6903F50063D3F8B1
:1036F000843043F00B03C2F88430BB6903F50063E8
:103700001A46BB6903F500635B6C43F00B0353641B
:1037100015E0BB6903F500631A46BB6903F5006356
:103720005B6943F00B035361BB6903F500631A4601
:10373000BB6903F500631B6943F00B031361BB69AD
:1037400003F500631A46BB6903F500631B6823F4A5
:10375000FE6313607B6819687B681B69DAB27B685B
:1037600003F56173084611461A4602F0A3F87B6818
:103770001B687A681268526902F480525A617B6849
:103780001B68184601F0B6FF034603F40053002BF4
:103790003DD07B681B68184602F056F87B681B68B2
:1037A0007A681268D26822F47052DA607B681B680B
:1037B000184600F0CDFF0346002B0FD17B68002296
:1037C000DA607B684FF400725A617B681B687A6824
:1037D0001268D26842F41052DA600DE07B6803226E
:1037E000DA607B6840225A617B681B687A681268DD
:1037F000D26842F4A052DA607868FCF775FE7B6804
:103800001B687A681268526902F400525A617B6838
:103810001B68184601F06EFF034603F01003002BEF
:1038200064D07B681B687A681268926922F0100283
:103830009A61BB691B6AFB60FB6803F00F021346C9
:10384000DB009B1A9B0003F5EC737A681344043386
:10385000BB60FB6803F4F0135B0C022B26D1FA6803
:1038600047F6F0731340002B38D0BB68D968FA686C
:1038700047F6F07313401B099BB2B8691A4601F072
:1038800097FDBB68DA68F96847F6F0730B401B09CF
:103890001A44BB68DA60BB689A69F96847F6F07346
:1038A0000B401B091A44BB689A6117E0FB6803F4DC
:1038B000F0135B0C062B11D17B6803F56173B869BB
:1038C0001946082201F074FDBB689A69F96847F649
:1038D000F0730B401B091A44BB689A617B681B6834
:1038E0007A681268926942F010029A617B681B68DC
:1038F000184601F0FFFE034603F00803002B0AD030
:103900007868FCF7E3FD7B681B687A681268526987
:1039100002F008025A617B681B68184601F0EAFE53
:10392000034603F48013002B0DD0FB69DBB27868EB
:103930001946FCF747FE7B681B687A681268526973
:1039400002F480125A617B681B68184601F0D2FEAF
:10395000034603F40013002B0DD0FB69DBB278683B
:103960001946FCF71DFE7B681B687A68126852696D
:1039700002F400125A617B681B68184601F0BAFE17
:10398000034603F08043002B0AD07868FCF72CFE36
:103990007B681B687A681268526902F080425A613B
:1039A0007B681B68184601F0A5FE034603F004037C
:1039B000002B13D07B681B685B68FB60FB6803F01F
:1039C0000403002B02D07868FCF71CFE7B681B68A0
:1039D0007A6812685168FA680A435A602837BD4607
:1039E00080BD00BF80B483B000AF78600B46FB7031
:1039F0000C37BD465DF8047B704700BF80B483B0D0
:103A000000AF78600B46FB700C37BD465DF8047B59
:103A1000704700BF80B483B000AF78600C37BD46FC
:103A20005DF8047B704700BF80B483B000AF78605E
:103A30000C37BD465DF8047B704700BF80B483B08F
:103A400000AF78600C37BD465DF8047B704700BF5F
:103A500080B483B000AF78600C37BD465DF8047B5E
:103A6000704700BF80B483B000AF78600C37BD46AC
:103A70005DF8047B704700BF80B483B000AF78600E
:103A80000B46FB700C37BD465DF8047B704700BFEA
:103A900080B483B000AF78600B46FB700C37BD4636
:103AA0005DF8047B704700BF80B483B000AF7860DE
:103AB0000C37BD465DF8047B704700BF80B483B00F
:103AC00000AF78600C37BD465DF8047B704700BFDF
:103AD00080B582B000AF78607B6893F88033012BAB
:103AE00001D102230DE07B68012283F880237B68EB
:103AF0001B68184601F0CEFD7B68002283F8802306
:103B0000002318460837BD4680BD00BF80B582B08F
:103B100000AF78607B6893F88033012B01D10223DA
:103B20000DE07B68012283F880237B681B681846C0
:103B300001F0C8FD7B68002283F88023002318462B
:103B40000837BD4680BD00BF80B582B000AF786049
:103B50000B46FB707B6893F88033012B01D1022365
:103B60000FE07B68012283F880237B681A68FB786A
:103B70001046194601F068FD7B68002283F8802317
:103B8000002318460837BD4680BD00BF80B584B00D
:103B900000AF7860084611461A460346FB700B4694
:103BA0003B801346BB700023FB72FB785BB2002B9B
:103BB0000BDAFB7803F07F021346DB009B1A9B00B5
:103BC00038337A681344FB600CE0FB7803F07F0223
:103BD0001346DB009B1A9B0003F5EC737A681344D1
:103BE0000433FB60FB7803F07F03DAB2FB681A70E2
:103BF000FB78DB09DBB21A46FB685A703A88FB682F
:103C00009A60FB68BA78DA70FB685B78002B04D0A6
:103C1000FB681B789AB2FB68DA80BB78022B02D172
:103C2000FB6800221A717B6893F88033012B01D165
:103C300002230EE07B68012283F880237B681B68E7
:103C40001846F96800F0BAFD7B68002283F88023EB
:103C5000FB7A18461037BD4680BD00BF80B584B0E2
:103C600000AF78600B46FB70FB785BB2002B0BDA81
:103C7000FB7803F07F021346DB009B1A9B0038336E
:103C80007A681344FB600CE0FB7803F07F02134674
:103C9000DB009B1A9B0003F5EC737A681344043332
:103CA000FB60FB7803F07F03DAB2FB681A70FB78E5
:103CB000DB09DBB21A46FB685A707B6893F88033E5
:103CC000012B01D102230EE07B68012283F88023BF
:103CD0007B681B681846F96800F0BEFE7B6800220E
:103CE00083F88023002318461037BD4680BD00BFEF
:103CF00080B586B000AFF8607A603B600B46FB721F
:103D0000FB7A03F07F021346DB009B1A9B0003F54E
:103D1000EC73FA68134404337B617B697A68DA6078
:103D20007B693A685A617B6900229A617B6900224B
:103D30005A70FB7A03F07F03DAB27B691A70FB6872
:103D40001B69012B02D17A687B691A61FB6893F8C1
:103D50008033012B01D1022322E0FB68012283F88A
:103D60008023FB7A03F07F03002B0AD1FB681A68DB
:103D7000FB681B69DBB2104679691A4601F084F9C9
:103D800009E0FB681A68FB681B69DBB210467969B9
:103D90001A4600F037FFFB68002283F880230023D7
:103DA00018461837BD4680BD80B483B000AF786038
:103DB0000B46FB70FB7803F07F0279681346DB004B
:103DC0009B1A9B000B4403F5F8735B689BB2184683
:103DD0000C37BD465DF8047B704700BF80B586B0E8
:103DE00000AFF8607A603B600B46FB72FB7A03F031
:103DF0007F021346DB009B1A9B003833FA6813449A
:103E00007B617B697A68DA607B693A685A617B69B1
:103E100000229A617B6901225A70FB7A03F07F03CA
:103E2000DAB27B691A70FB681B69012B02D17A68D0
:103E30007B691A61FB6893F88033012B01D102235F
:103E400022E0FB68012283F88023FB7A03F07F03E2
:103E5000002B0AD1FB681A68FB681B69DBB21046AD
:103E600079691A4601F010F909E0FB681A68FB68E5
:103E70001B69DBB2104679691A4600F0C3FEFB6885
:103E8000002283F88023002318461837BD4680BDE2
:103E900080B584B000AF78600B46FB70FB785BB2F6
:103EA000002B0BDAFB7803F07F021346DB009B1A32
:103EB0009B0038337A681344FB600AE0FA781346B3
:103EC000DB009B1A9B0003F5EC737A681344043300
:103ED000FB60FB6801229A70FB7803F07F03DAB283
:103EE000FB681A70FB78DB09DBB21A46FB685A7074
:103EF0007B6893F88033012B01D1022320E07B689B
:103F0000012283F880237B681B681846F96801F05A
:103F100077FAFB7803F07F03002B0CD17B681968DC
:103F20007B681B69DAB27B6803F56173084611464A
:103F30001A4601F0BFFC7B68002283F8802300232F
:103F400018461037BD4680BD80B584B000AF78609C
:103F50000B46FB70FB785BB2002B0BDAFB7803F0AF
:103F60007F021346DB009B1A9B0038337A681344A8
:103F7000FB600AE0FA781346DB009B1A9B0003F50E
:103F8000EC737A6813440433FB60FB6800229A7078
:103F9000FB7803F07F03DAB2FB681A70FB78DB0969
:103FA000DBB21A46FB685A707B6893F88033012BAA
:103FB00001D102230EE07B68012283F880237B6815
:103FC0001B681846F96801F08DFA7B68002283F8B7
:103FD0008023002318461037BD4680BD80B582B0CF
:103FE00000AF78600B46FB707B6893F88033012B41
:103FF00001D102231BE07B68012283F88023FB7838
:104000005BB2002B09DA7B681A68FB7803F07F0348
:104010001046194600F03CFB04E07B681B6818461C
:1040200000F05CFB7B68002283F8802300231846A5
:104030000837BD4680BD00BF80B485B000AF786052
:104040007B681B68FB60FB6803F500639B6803F0FB
:104050000103002B0AD0FB6803F500631A46FB68D6
:1040600003F500635B6843F00103536000231846C7
:104070001437BD465DF8047B704700BF80B485B03F
:1040800000AF78607B681B68FB60FB6803F500632A
:104090001A46FB6803F500635B6823F00103536075
:1040A000002318461437BD465DF8047B704700BFF7
:1040B00080B483B000AF78607B6893F88133DBB263
:1040C00018460C37BD465DF8047B704790B58BB041
:1040D00002AF786039607B681B687B610023FB61FD
:1040E00000233B613A681346DB009B1A9B00383380
:1040F0007A681344FB60FB685A69FB689B69D31AB2
:10410000FB61FA69FB689B689A4202D9FB689B686D
:10411000FB61FB6903339B08BB612BE0FB685A69B9
:10412000FB689B69D31AFB61FA69FB689B689A423A
:1041300002D9FB689B68FB61FB6903339B08BB6189
:10414000FB68D9683B68DAB2FB699CB27B681B6983
:10415000DBB200937869234601F0F4F8FB68DA6873
:10416000FB691A44FB68DA60FB689A69FB691A44C8
:10417000FB689A613B685A017B69134403F510633D
:104180009B699AB2BB699A4209D9FB689A69FB6834
:104190005B699A4203D2FB685B69002BBED1FB6965
:1041A000002B10D13B68012202FA03F33B617B69CB
:1041B00003F5006319467B6903F500635A6B3B699D
:1041C000DB4313404B63002318462437BD4690BDA4
:1041D00080B58CB000AF78600023BB6200237B62A7
:1041E00036207968002209F019FF362009F032FFE5
:1041F0000023BB60244A244B1B6C43F01003136460
:10420000214B1B6C03F01003BB60BB6807F110026D
:1042100007F10C031046194610F070FEFB69BB62F3
:10422000BB6A002B03D110F06DFDF86204E010F0C2
:1042300069FD03465B00FB62FB6A144AA2FB032391
:104240009B0C013B7B62124B124A1A60104B40F2EE
:10425000E732DA600E4A7B6A53600D4B00221A6126
:104260000B4B00229A600A480CF076F80346002BAC
:1042700004D107480CF028F9034600E00123184652
:104280003037BD4680BD00BF0038024083DE1B438F
:10429000302000200010004080B400AF054B1B68A8
:1042A000044A1268D26822F00102DA60BD465DF865
:1042B000047B70473020002080B400AF054B1B68A2
:1042C000044A1268D26842F00102DA60BD465DF825
:1042D000047B70473020002080B582B000AF78604A
:1042E00002F042F90837BD4680BD00BF80B500AF7F
:1042F00001480EF0CFF880BD3020002084B080B59A
:1043000082B000AF786007F1140080E80E00BB6A4D
:10431000012B20D17B689B6B23F480327B689A63EE
:104320007B68DB6823F4840323F040037A68D3605E
:104330007B68DB6823F440127B68DA607B6C012BBE
:1043400005D17B68DB6843F480127B68DA607868AB
:1043500001F0F6FA0CE07B68DB6843F040027B6812
:10436000DA60786801F0ECFA7B684FF480329A6387
:104370003B6A012B0BD17B689B6843F00C027B6886
:104380009A607B689B6843F020027B689A600023F8
:1043900018460837BD46BDE8804004B0704700BFEE
:1043A00080B483B000AF78607B689B6843F0010203
:1043B0007B689A60002318460C37BD465DF8047B85
:1043C000704700BF80B483B000AF78607B689B68A3
:1043D00023F001027B689A60002318460C37BD4623
:1043E0005DF8047B704700BF80B582B000AF786095
:1043F0000B46FB707B68DB6823F0C0427B68DA60A9
:10440000FB78012B06D17B68DB6843F000527B68A8
:10441000DA6008E0FB78002B05D17B68DB6843F0AD
:1044200080427B68DA60322002F0B8F80023184638
:104430000837BD4680BD00BF84B080B584B000AFF2
:10444000786007F11C0080E80E000023FB607B68A9
:104450009B6B43F400227B689A637B6C002B05D135
:104460007B689B6B43F400127B689A637B6803F55F
:1044700060631A46002313607B6803F500631A46E5
:104480007B6803F500631B6813603B6B012B0CD149
:104490007B6A002B04D17868002100F041F908E024
:1044A0007868012100F03CF903E07868032100F00E
:1044B00037F97868102100F0EBF8786800F00EF911
:1044C0007B6803F500631A46002313617B6803F5DC
:1044D00000631A46002353617B6803F500631A46A4
:1044E0004FF0FF3393617B6803F500631A460023A6
:1044F000D3610023FB6031E0FB685A017B68134401
:1045000003F510631B68002B0ADAFB685A017B680D
:10451000134403F510631A464FF09043136008E00C
:10452000FB685A017B68134403F510631A460023A5
:104530001360FB685A017B68134403F510631A4645
:1045400000231361FB685A017B68134403F5106371
:104550001A46FF239360FB680133FB60FA69FB682E
:104560009A42C9D80023FB6031E0FB685A017B689E
:10457000134403F530631B68002B0ADAFB685A0109
:104580007B68134403F530631A464FF09043136081
:1045900008E0FB685A017B68134403F530631A4650
:1045A00000231360FB685A017B68134403F53063F2
:1045B0001A4600231361FB685A017B68134403F514
:1045C00030631A46FF239360FB680133FB60FA698E
:1045D000FB689A42C9D87B6803F500631A467B687A
:1045E00003F500631B6923F480731361BB6A012B1D
:1045F00017D17B6803F500631A46234B13637B686E
:1046000003F500631A467B6803F500631B6B43F4F4
:10461000803343F0030313637B6803F500631B6B74
:10462000FB607B6800229A617B686FF080425A6170
:10463000BB6A002B05D17B689B6943F010027B6845
:104640009A617B689A69114B13437A6893617B6B1B
:10465000002B05D07B689B6943F008027B689A6158
:104660007B6C012B07D17B689B6943F0804343F04F
:1046700004037A689361002318461037BD46BDE8ED
:10468000804004B0704700BF0001800000383C80CB
:1046900080B485B000AF786039600023FB603B6870
:1046A0009B0143F020027B681A61FB680133FB60C9
:1046B000FB68094A934201D9032306E07B681B6922
:1046C00003F02003002BF0D1002318461437BD4619
:1046D0005DF8047B704700BF400D030080B485B0D7
:1046E00000AF78600023FB607B6810221A61FB68D2
:1046F0000133FB60FB68094A934201D9032306E0BA
:104700007B681B6903F01003002BF0D100231846CF
:104710001437BD465DF8047B704700BF400D0300B1
:1047200080B483B000AF78600B46FB707B6803F504
:10473000006319467B6803F500631A68FB7813432E
:104740000B60002318460C37BD465DF8047B7047AC
:1047500080B485B000AF78600023FB737B6803F5FD
:1047600000639B6803F00603002B02D10023FB7358
:104770001CE07B6803F500639B6803F00603022BD3
:1047800007D07B6803F500639B6803F00603062BE4
:1047900002D10323FB7309E07B6803F500639B6888
:1047A00003F00603042B01D10223FB73FB7B1846A5
:1047B0001437BD465DF8047B704700BF80B483B0FA
:1047C00000AF786039603B685B78012B3ED17B6835
:1047D00003F5006319467B6803F50063DA693B68FB
:1047E0001B781846012383409BB21343CB613B687F
:1047F0001B785A017B68134403F510631B6803F4AC
:104800000043002B5CD13B681B785A017B68134442
:1048100003F5106318463B681B785A017B68134404
:1048200003F510631A683B689B68C3F30A03396891
:10483000C97889040B433968097889050B43134308
:1048400043F0805343F40043036039E07B6803F591
:10485000006319467B6803F50063DA693B681B78DF
:104860001846012383401B041343CB613B681B782C
:104870005A017B68134403F530631B6803F400435B
:10488000002B1DD13B681B785A017B68134403F54C
:10489000306318463B681B785A017B68134403F564
:1048A00030631A683B689B68C3F30A033968C978A8
:1048B00089040B43134343F0805343F400430360E4
:1048C000002318460C37BD465DF8047B704700BFD7
:1048D00080B483B000AF786039603B685B78012BAF
:1048E00053D13B681B785A017B68134403F510636E
:1048F0001B6803F40043002B21D13B681B785A014D
:104900007B68134403F5106318463B681B785A0113
:104910007B68134403F510631A683B689B68C3F314
:104920000A033968C97889040B433968097889050D
:104930000B43134343F0805343F4004303603B684D
:104940009B68C3F30A033A68D278920413433A6827
:10495000127892051A433F4B1B68134343F0805370
:1049600043F400433B4A13607B6803F50063194638
:104970007B6803F50063DA6B3B681B7818460123FC
:1049800083409BB21343CB635DE03B681B785A01C5
:104990007B68134403F530631B6803F40043002B6A
:1049A00041D13B681B785A017B68134403F530639F
:1049B00018463B681B785A017B68134403F5306343
:1049C0001A683B689B68C3F30A033968C97889048D
:1049D0000B433968097889050B43134343F40043BB
:1049E00003607B6803F530631A4A13603B681B78E9
:1049F0005A017B68134403F530631A46154B1A605D
:104A00003B689B68C3F30A033A68D2789204134365
:104A10003A68127892051A430E4B1B68134343F40D
:104A200000430C4A13607B6803F5006319467B68FA
:104A300003F50063DA6B3B681B781846012383405B
:104A40001B041343CB63002318460C37BD465DF8A7
:104A5000047B70472C0C002080B483B000AF7860DA
:104A600039603B685B78012B35D17B6803F50063C7
:104A700019467B6803F50063DA6B3B681B781846C0
:104A8000012383409BB2DB431340CB637B6803F578
:104A9000006319467B6803F50063DA693B681B789D
:104AA0001846012383409BB2DB431340CB613B6834
:104AB0001B785A017B68134403F5106319463B6861
:104AC0001B785A017B68134403F510631B6823F4B9
:104AD00000430B6034E07B6803F5006319467B6894
:104AE00003F50063DA6B3B681B78184601238340AB
:104AF0001B04DB431340CB637B6803F5006319465B
:104B00007B6803F50063DA693B681B78184601236C
:104B100083401B04DB431340CB613B681B785A0185
:104B20007B68134403F5306319463B681B785A01D0
:104B30007B68134403F530631B6823F400430B6068
:104B4000002318460C37BD465DF8047B704700BF54
:104B500080B483B000AF786039603B685B78012B2C
:104B600024D13B681B785A017B68134403F510631A
:104B700019463B681B785A017B68134403F51063A0
:104B80001B6823F400430B607B6803F50063194640
:104B90007B6803F50063DA693B681B7818460123DC
:104BA00083409BB2DB431340CB6123E03B681B781F
:104BB0005A017B68134403F5306319463B681B7840
:104BC0005A017B68134403F530631B6823F40043E8
:104BD0000B607B6803F5006319467B6803F500638F
:104BE000DA693B681B781846012383401B04DB43CA
:104BF0001340CB61002318460C37BD465DF8047B9B
:104C0000704700BF90B589B002AFF860B960134635
:104C1000FB710023FB82BB685B78012B40F046816F
:104C2000BB685B69002B3BD1BB681B785A01FB68F2
:104C3000134403F510631946BB681B785A01FB68DF
:104C4000134403F510631B6923F0FF5323F4C013CF
:104C50000B61BB681B785A01FB68134403F51063B2
:104C60001946BB681B785A01FB68134403F51063AF
:104C70001B6943F400230B61BB681B785A01FB6876
:104C8000134403F510631946BB681B785A01FB688F
:104C9000134403F510631B69DB0CDB040B6186E036
:104CA000BB681B785A01FB68134403F5106319466F
:104CB000BB681B785A01FB68134403F510631B693A
:104CC000DB0CDB040B61BB681B785A01FB681344E7
:104CD00003F510631946BB681B785A01FB6813443F
:104CE00003F510631B6923F0FF5323F4C0130B611A
:104CF000BB681B785A01FB68134403F51063184620
:104D0000BB681B785A01FB68134403F510631A69EA
:104D1000BB685969BB689B680B44591EBB689B689C
:104D2000B1FBF3F3D9048C4B0B4013430361BB6815
:104D30001B785A01FB68134403F510631946BB68DE
:104D40001B785A01FB68134403F510631A69BB68AA
:104D50005B69C3F3120313430B61BB68DB78012B60
:104D600025D1BB681B785A01FB68134403F5106317
:104D70001946BB681B785A01FB68134403F510639E
:104D80001B6923F0C0430B61BB681B785A01FB68A9
:104D9000134403F510631946BB681B785A01FB687E
:104DA000134403F510631B6943F000530B61FB7957
:104DB000012B0BD1BB681B785A01FB68134403F528
:104DC00010631A46BB681B69536116E0BB68DB7849
:104DD000012B12D0BB685B69002B0ED0FB6803F57A
:104DE00000631946FB6803F500635A6BBB681B78C8
:104DF00018460123834013434B63BB68DB78012BC8
:104E00002ED1FB6803F500639B6803F48073002BCD
:104E100013D1BB681B785A01FB68134403F5106378
:104E20001946BB681B785A01FB68134403F51063ED
:104E30001B6843F000530B6012E0BB681B785A01FB
:104E4000FB68134403F510631946BB681B785A01CD
:104E5000FB68134403F510631B6843F080530B6039
:104E6000BB681B785A01FB68134403F510631946AD
:104E7000BB681B785A01FB68134403F510631B6879
:104E800043F004430B60BB68DB78012B40F0F580F6
:104E9000BB68D968BB681A78BB685B699CB2FB7950
:104EA0000093F868234600F04DFAE6E0BB681B78F3
:104EB0005A01FB68134403F530631946BB681B783D
:104EC0005A01FB68134403F530631B69DB0CDB04F8
:104ED0000B61BB681B785A01FB68134403F5306310
:104EE0001946BB681B785A01FB68134403F530630D
:104EF0001B6923F0FF5323F4C0130B61BB685B698C
:104F0000002B2BD1BB681B785A01FB68134403F5B7
:104F100030631946BB681B785A01FB68134403F5DC
:104F200030631A69BB689B68C3F3120313430B61B8
:104F3000BB681B785A01FB68134403F530631946BC
:104F4000BB681B785A01FB68134403F530631B6987
:104F500043F400230B613CE00000F81FBB685A6972
:104F6000BB689B6813445A1EBB689B68B2FBF3F393
:104F7000FB82BB681B785A01FB68134403F530635E
:104F80001946BB681B785A01FB68134403F530636C
:104F90001A69FB8ADB0418463A4B034013430B6142
:104FA000BB681B785A01FB68134403F5306318464D
:104FB000BB681B785A01FB68134403F530631A6918
:104FC000BB689B68F98A01FB03F3C3F31203134325
:104FD0000361FB79012B0AD1BB681B785A01FB687E
:104FE000134403F530631A46BB68DB685361BB6842
:104FF000DB78012B2ED1FB6803F500639B6803F47B
:105000008073002B13D1BB681B785A01FB681344D3
:1050100003F530631946BB681B785A01FB681344DB
:1050200003F530631B6843F000530B6012E0BB686C
:105030001B785A01FB68134403F530631946BB68BB
:105040001B785A01FB68134403F530631B6843F077
:1050500080530B60BB681B785A01FB68134403F54F
:1050600030631946BB681B785A01FB68134403F58B
:1050700030631B6843F004430B60002318461C3761
:10508000BD4690BD0000F81F80B485B000AFF86049
:10509000B9601346FB71BB685B78012B40F0D1808F
:1050A000BB685B69002B3BD1BB681B785A01FB686E
:1050B000134403F510631946BB681B785A01FB685B
:1050C000134403F510631B6923F0FF5323F4C0134B
:1050D0000B61BB681B785A01FB68134403F510632E
:1050E0001946BB681B785A01FB68134403F510632B
:1050F0001B6943F400230B61BB681B785A01FB68F2
:10510000134403F510631946BB681B785A01FB680A
:10511000134403F510631B69DB0CDB040B615AE0DD
:10512000BB681B785A01FB68134403F510631946EA
:10513000BB681B785A01FB68134403F510631B69B5
:10514000DB0CDB040B61BB681B785A01FB68134462
:1051500003F510631946BB681B785A01FB681344BA
:1051600003F510631B6923F0FF5323F4C0130B6195
:10517000BB685A69BB689B689A4203D9BB689A6846
:10518000BB685A61BB681B785A01FB68134403F57E
:1051900010631946BB681B785A01FB68134403F57A
:1051A00010631B6943F400230B61BB681B785A0131
:1051B000FB68134403F510631946BB681B785A015A
:1051C000FB68134403F510631A69BB685B69C3F39A
:1051D000120313430B61FB79012B0BD1BB681B78C6
:1051E0005A01FB68134403F510631A46BB681B6938
:1051F000536112E0BB685B69002B0ED0FB6803F5BE
:1052000000631946FB6803F500635A6BBB681B78A3
:1052100018460123834013434B63BB681B785A0134
:10522000FB68134403F510631946BB681B785A01E9
:10523000FB68134403F510631B6843F004430B60E1
:1052400079E0BB681B785A01FB68134403F53063AF
:105250001946BB681B785A01FB68134403F5306399
:105260001B69DB0CDB040B61BB681B785A01FB6814
:10527000134403F530631946BB681B785A01FB6879
:10528000134403F530631B6923F0FF5323F4C01369
:105290000B61BB685B69002B03D0BB689A68BB6875
:1052A0005A61BB681B785A01FB68134403F53063ED
:1052B0001946BB681B785A01FB68134403F5306339
:1052C0001B6943F400230B61BB681B785A01FB6820
:1052D000134403F530631946BB681B785A01FB6819
:1052E000134403F530631A69BB689B68C3F3120368
:1052F00013430B61FB79012B0AD1BB681B785A0160
:10530000FB68134403F530631A46BB68DB685361DE
:10531000BB681B785A01FB68134403F530631946D8
:10532000BB681B785A01FB68134403F530631B68A4
:1053300043F004430B60002318461437BD465DF864
:10534000047B704780B487B000AFF860B960114645
:105350001A460B46FB711346BB8000233B610023BA
:105360007B6197F82030002B1AD1BB8803339B0850
:105370003B6100237B610FE0FB791A03FB68134458
:1053800003F580531A46BB681B6813607B690133C1
:105390007B61BB680433BB607A693B699A42EBD39B
:1053A000002318461C37BD465DF8047B704700BFDC
:1053B00080B487B000AFF860B9601346FB8000236B
:1053C0007B61FB8803339B083B6100237B610BE01F
:1053D000FB6803F580531A68BB681A607B69013368
:1053E0007B61BB680433BB607A693B699A42EFD347
:1053F000BB6818461C37BD465DF8047B704700BF8C
:1054000080B483B000AF786039603B685B78012B73
:1054100030D13B681B785A017B68134403F5106355
:105420001B68002B12DB3B681B785A017B68134416
:1054300003F5106319463B681B785A017B681344D7
:1054400003F510631B6823F080430B603B681B78F7
:105450005A017B68134403F5106319463B681B78B7
:105460005A017B68134403F510631B6843F400136F
:105470000B602FE03B681B785A017B68134403F5EF
:1054800030631B68002B12DB3B681B785A017B687A
:10549000134403F5306319463B681B785A017B6857
:1054A000134403F530631B6823F080430B603B68B3
:1054B0001B785A017B68134403F5306319463B6837
:1054C0001B785A017B68134403F530631B6843F46F
:1054D00000130B60002318460C37BD465DF8047BB3
:1054E000704700BF80B483B000AF786039603B681C
:1054F0005B78012B2ED13B681B785A017B681344E3
:1055000003F5106319463B681B785A017B68134406
:1055100003F510631B6823F400130B603B68DB7812
:10552000032B03D03B68DB78022B41D13B681B780F
:105530005A017B68134403F5106319463B681B78D6
:105540005A017B68134403F510631B6843F08053D2
:105550000B602DE03B681B785A017B68134403F510
:10556000306319463B681B785A017B68134403F586
:1055700030631B6823F400130B603B68DB78032B5C
:1055800003D03B68DB78022B12D13B681B785A01B1
:105590007B68134403F5306319463B681B785A0156
:1055A0007B68134403F530631B6843F080530B6042
:1055B000002318460C37BD465DF8047B704700BFDA
:1055C00080B584B000AF78600023FB6014E0FB6816
:1055D0005A017B68134403F510631A46FF23936056
:1055E000FB685A017B68134403F530631A46FF23B6
:1055F0009360FB680133FB60FB680E2BE7D97B6887
:1056000003F500631A464FF0FF3393617B6803F59F
:1056100000631A46002313617B6803F500631A4692
:10562000002353617B6803F500631A460023D361AE
:105630007868FFF753F878681021FFF729F80023FE
:1056400018461037BD4680BD80B483B000AF786087
:105650000B46FB707B6803F500631A467B6803F515
:1056600000631B6823F4FE6313607B6803F500632B
:1056700019467B6803F500631A68FB781B0103F485
:10568000FE6313430B60002318460C37BD465DF8DC
:10569000047B704780B582B000AF78607B6803F50B
:1056A00000631A467B6803F500635B6823F002031E
:1056B0005360032000F072FF002318460837BD46F0
:1056C00080BD00BF80B582B000AF78607B6803F515
:1056D00000631A467B6803F500635B6843F00203CE
:1056E0005360032000F05AFF002318460837BD46D8
:1056F00080BD00BF80B485B000AF78600023FB6040
:105700007B685B69FB607B689B69FA681340FB60A0
:10571000FB6818461437BD465DF8047B704700BF30
:1057200080B485B000AF78607B6803F500639B6947
:10573000FB607B6803F50063DB69FA681340FB607C
:10574000FB681B0C18461437BD465DF8047B704798
:1057500080B485B000AF78607B6803F500639B6917
:10576000FB607B6803F50063DB69FA681340FB604C
:10577000FB689BB218461437BD465DF8047B704742
:1057800080B485B000AF78600B46FB70FB785A019F
:105790007B68134403F530639B68FB607B6803F50B
:1057A00000635B69FA681340FB60FB6818461437B6
:1057B000BD465DF8047B704780B487B000AF786069
:1057C0000B46FB707B6803F500631B697B617B689C
:1057D00003F500635B6B3B61FB783A6922FA03F3E4
:1057E000DB01DBB27A6913437B61FB785A017B688A
:1057F000134403F510639A687B691340FB60FB68F0
:1058000018461C37BD465DF8047B704780B483B0F2
:1058100000AF786039607B685A693B681A437B68DF
:105820005A610C37BD465DF8047B704780B483B085
:1058300000AF78607B685B6903F0010318460C37A2
:10584000BD465DF8047B704780B483B000AF7860DC
:105850007B6803F510631A467B6803F510631B68C9
:1058600023F4FF6323F0070313607B6803F50063F1
:105870009B6803F00603042B0AD17B6803F51063D1
:105880001A467B6803F510631B6843F0030313603B
:105890007B6803F500631A467B6803F500635B6869
:1058A00043F480735360002318460C37BD465DF8FF
:1058B000047B704780B485B000AFF8600B467A6017
:1058C000FB72FB6803F530631A4600231361FB6823
:1058D00003F530631A46FB6803F530631B6943F434
:1058E00000231361FB6803F530631A46FB6803F578
:1058F00030631B6943F018031361FB6803F53063E1
:105900001A46FB6803F530631B6943F0C04313611B
:10591000FB7A012B0CD1FB6803F530631A467B68D8
:105920005361FB6803F530631A464FF08023136020
:10593000002318461437BD465DF8047B704700BF4E
:1059400080B485B000AF78600023FB60FB68013352
:10595000FB60FB68134A934201D903231BE07B6879
:105960001B69002BF2DA0023FB607B681B6943F0A4
:1059700001027B681A61FB680133FB60FB68094A1E
:10598000934201D9032306E07B681B6903F00103FE
:10599000002BF0D1002318461437BD465DF8047B78
:1059A000704700BF400D030084B080B584B000AFE5
:1059B000786007F11C0080E80E007B6803F56063E7
:1059C0001A46002313607B689B6B23F480227B685C
:1059D0009A637B689B6B23F400227B689A637B68E5
:1059E0009B6B43F400127B689A637B6A032B0FD195
:1059F0007B68B3F1A04F0BD07B6803F580631A4638
:105A00007B6803F580631B6843F0040313600AE0BE
:105A10007B6803F580631A467B6803F580631B6827
:105A200023F00403136078681021FEF731FE7868D4
:105A3000FEF754FE0023FB6015E0FB685A017B680B
:105A4000134403F5A0631A464FF0FF339360FB68DD
:105A50005A017B68134403F5A0631A460023D36000
:105A6000FB680133FB603A6AFB689A42E5D87868C4
:105A7000012100F0A5F8C82000F090FD7B6800220D
:105A80009A617B684FF0FF325A617B68B3F1A04F97
:105A90000AD17B6880225A627B68144A9A627B68CA
:105AA000134AC3F800210AE07B684FF400725A627F
:105AB0007B68104A9A627B680F4AC3F80021BB6A70
:105AC000002B05D17B689B6943F010027B689A61CB
:105AD0007B689A69094B13437A68936100231846DF
:105AE0001037BD46BDE8804004B0704780006000BC
